:020000040800F2
:10000000986F002055020008BD3E000851340008DA
:10001000293C0008D10F0008996700080000000083
:100020000000000000000000000000009D0100082A
:100030004527000800000000F1010008894A000877
:100040006F0200086F0200086F0200086F020008CC
:100050006F0200086F0200086F0200086F020008BC
:100060006F0200086F0200086F0200087922000882
:100070006F0200086F0200086F0200086F0200089C
:100080006F0200086F0200086F020008C511000827
:10009000E91000086F0200086F0200086F020008F4
:1000A0006F0200086F0200086F0200086F0200086C
:1000B0006F0200086F0200086F0200086F0200085C
:1000C0006F0200086F0200086F0200086F0200084C
:1000D0006F020008A154000849550008B1570008F4
:1000E0006F0200086F0200086F0200086F0200082C
:1000F0006F0200086F0200086F0200086F0200081C
:100100006F0200086F0200086F0200086F0200080B
:10011000F5510008995200086F0200086F020008AC
:100120006F0200086F0200086F0200086F020008EB
:100130006F0200086F0200086F0200080912000831
:10014000E11100086F0200086F0200086F0200084A
:100150006F0200086F0200086F020008295D0008A6
:100160006F0200086F0200086F0200086F020008AB
:100170006F0200086F0200086F0200086F0200089B
:100180006F0200086F020008DFF80CD000F040FE9C
:1001900000480047656F0008986F00202A4B1968D7
:1001A0000868B0E8F04F80F30988BFF36F8F4FF015
:1001B000000080F3118870470000000006480068C6
:1001C000006880F3088862B661B6BFF34F8FBFF353
:1001D0006F8F00DF00BF00BF08ED00E0DFF80C000C
:1001E000016841F470010160704700BF88ED00E0D4
:1001F000EFF30980BFF36F8F134B1A681EF0100FD7
:1002000008BF20ED108A20E9F04F106008B44FF0CD
:10021000500080F31188BFF34F8FBFF36F8F08F04A
:10022000CFFB4FF0000080F3118808BC1968086804
:10023000B0E8F04F1EF0100F08BFB0EC108A80F34A
:100240000988BFF36F8F7047AC000020EFF3058083
:10025000704700000648804706480047FEE7FEE773
:10026000FEE7FEE7FEE7FEE7FEE7FEE7FEE7FEE766
:10027000994A00088901000810B5044600BF00BF74
:1002800000BF00BF002CFDD000BF00BF00BF002991
:10029000FDD000BF00BF00BF002AFDD000BF00BFDF
:1002A00000BF002BFDD000BF72B6216002FB03101F
:1002B000401E6060A3600020E06022746161A16163
:1002C00062B6002010BD2DE9F04104460D4600261F
:1002D000002700BF00BF002CFDD000BF00BF00BF43
:1002E000002DFDD000BF1C2006F05AFE064616B9B0
:1002F0000020BDE8F08104FB05F006F051FE074642
:100300000FB90020F5E72B46224639463046FFF765
:10031000B3FF3046EDE710B5044600BF00BF002C28
:10032000FDD000BF00BF00BF20680028FCD000BF88
:10033000206806F05DFD204606F05AFD10BD03461C
:1003400000BF00BF00BF00BF002BFDD000BF00BF3B
:1003500000BF0029FDD000BF00BF00BF002AFDD0B4
:1003600000BF72B619608818401E58609A6000205D
:10037000D8601961596162B60020704770B50446B3
:100380000025002600BF00BF002CFDD000BF1820B4
:1003900006F006FE05460DB9002070BD204606F0A9
:1003A000FFFD06460EB90020F7E7224631462846F3
:1003B000FFF7C5FF2846F0E710B5044600BF00BFB1
:1003C000002CFDD000BF00BF00BF20680028FCD07B
:1003D00000BF206806F00CFD204606F009FD10BDA8
:1003E00030B5024600230C4600BF00BF00BF00BF6F
:1003F000002AFDD000BF00BF00BF0029FDD000BF14
:10040000906810B94FF0FF3030BD002310E0556800
:100410009069A84201D91068906114F8010B9569A0
:10042000287072B69069401C906162B6581CC3B2C5
:10043000107C9842EBDC72B69068401E9060D068E9
:10044000401CD06062B60020DEE7024600BF00BF5D
:1004500000BF00BF002AFDD000BF906810B94FF068
:10046000FF30704772B650695368984201D91068DE
:100470005061506901705069401C50619068401E85
:100480009060D068401CD06062B60020E9E770B58B
:1004900003460C46002500BF00BF00BF00BF002B75
:1004A000FDD000BF986810B94FF0FF3070BD00213B
:1004B00019E0986810B94FF0FF3516E072B65E6823
:1004C0005869B04201D918685861605C5E69307043
:1004D0005869401C58619868401E9860D868401C54
:1004E000D86062B6491C9142E3D300BF2846DDE7DD
:1004F00030B5024600230C4600BF00BF00BF00BF5E
:10050000002AFDD000BF00BF00BF0029FDD000BF02
:10051000D06810B94FF0FF3030BD002310E05568AF
:100520005069A84201D9106850615069007804F8F8
:10053000010B72B65069401C506162B6581CC3B2C0
:10054000107C9842EBDC72B69068401C9060D068DA
:10055000401ED06062B60020DEE70146002000BFEA
:1005600000BF00BF00BF0029FDD000BF72B60A69FE
:100570004B689A4201D90A680A610A6910780A69C7
:10058000521C0A618A68521C8A60CA68521ECA607C
:1005900062B6704770B5024600230C4600BF00BF2C
:1005A00000BF00BF002AFDD000BF00BF00BF002970
:1005B000FDD000BFD06810B94FF0FF3070BD72B6EB
:1005C000167CD068401E556906FB00501568451B17
:1005D000D2E90060801B401CB5FBF0F600FB165012
:1005E000156828445061D2E90250401E28449060AA
:1005F0000120D06062B6002310E055685069A8421F
:1006000001D9106850615069007804F8010B72B686
:100610005069401C506162B6581CC3B2107C9842AD
:10062000EBDC72B69068401C9060D068401ED060D1
:1006300062B60020C2E710B50146002000BF00BF2F
:1006400000BF00BF0029FDD000BF72B6D1E9033260
:100650001A44521E0B68D31AD1E90042121B521CD5
:10066000B3FBF2F402FB14320B681A440A610A6904
:100670001078D1E902231A448A600022CA6062B667
:1006800010BD70B503460C46154600222E460021CB
:1006900000BF00BF002BFDD000BF00BF00BF002D7A
:1006A000FDD000BFD868A04202D84FF0FF3070BD27
:1006B0005969002206E05868884200D21968491C2E
:1006C000501CC2B2187C60439042F4DC002209E066
:1006D0005868884200D21968087806F8010B491C4E
:1006E000501CC2B2187C9042F2DC0020DFE710B54B
:1006F00002460B460024002100BF00BF002AFDD0A7
:1007000000BF1169002406E05068884200D21168D9
:10071000491C601CC4B29C42F6DB087810BD01463F
:1007200000BF00BF0029FDD000BFC86808B9012084
:1007300070470020FCE7014600BF00BF0029FDD044
:1007400000BFC86808B9012070470020FCE70146D7
:1007500000BF00BF0029FDD000BF886808B9012094
:1007600070470020FCE7014600BF00BF0029FDD014
:1007700000BF886808B9012070470020FCE70146E7
:1007800000BF00BF0029FDD000BFC8687047014608
:1007900000BF00BF0029FDD000BFC86870470146F8
:1007A00000BF00BF0029FDD000BF88687047014628
:1007B00000BF00BF0029FDD000BF88687047014618
:1007C00000BF00BF00BF00BF0029FDD000BF72B650
:1007D000D1E90020801A0A7C90FBF2F088600020AA
:1007E000C860086848610868886162B60020704780
:1007F000014600BF00BF00BF00BF0029FDD000BF01
:1008000072B6D1E90020801A88600020C8600868AC
:1008100008610868486162B6002070479FED460A8B
:1008200080ED000A9FED440A80ED010A9FED420A27
:1008300080ED070A9FED400A80ED080A9FED3E0A11
:1008400080ED090A9FED3C0A80ED0D0A704790ED9E
:10085000030A80ED020A90ED000AD0ED010A30EEA5
:10086000600A80ED030A90ED040AD0ED030A20EE41
:10087000200A80ED070A90ED080AD0ED050A90EDF8
:10088000031A00EE810A80ED080A90ED030AD0ED0C
:10089000020A30EE600AD0ED060A20EE200A80ED52
:1008A000090A90ED080AD0ED0B0AF1EE600AB4EEE9
:1008B000E00AF1EE10FA06D890ED0B0AB1EE400A0C
:1008C00080ED080A0CE090ED080AD0ED0B0AB4EEBA
:1008D000E00AF1EE10FA03DB90ED0B0A80ED080A56
:1008E00090ED070AD0ED080A30EE200AD0ED090A93
:1008F00030EE200A80ED0D0A90ED0D0AD0ED0E0AC3
:10090000F1EE600AB4EEE00AF1EE10FA06D890EDCE
:100910000E0AB1EE400A80ED0D0A0CE090ED0D0AD2
:10092000D0ED0E0AB4EEE00AF1EE10FA03DB90ED22
:100930000E0A80ED0D0A70470000000040EA010336
:100940009B0703D009E008C9121F08C0042AFAD285
:1009500003E011F8013B00F8013B521EF9D2704749
:10096000D2B201E000F8012B491EFBD270470022F1
:10097000F6E710B513460A4604461946FFF7F0FF9E
:10098000204610BD421C10F8011B0029FBD1801A23
:1009900070472DE9FE4F804681EA0300C00F0C46E8
:1009A000009021F0004123F00045B8EB0200A9417E
:1009B00005D24046214690461C460B46024623F08F
:1009C0000040104347D0270DC7F30A00C3F30A5174
:1009D0000290401A019040286BDAC3F3130040F4F0
:1009E000801B0098924620B10023D2EB030A63EBF0
:1009F0000B0B01985946C0F14002504600F053F9E4
:100A000006460D4650465946019A00F05BF910EB38
:100A100008006141002487EA115284EAE7731A430F
:100A200040D0009A62B3019A012A4FEA075215DCBE
:100A3000001B61EB02014FF0004202EA0752CDE9D0
:100A40000042001C41F5801132462B4600F092F91D
:100A500003B0BDE8F08F40462146F9E7001B61EB8B
:100A60000201001C41F5801300185B412018A2F51B
:100A7000001747EB030140EAD570B6196D4111E04C
:100A80006D084FEA360645EAC0754FEA0752001B6B
:100A900061EB0201001C41F5801149084FEA30006A
:100AA0000019514132462B4603B0BDE8F04F00F02B
:100AB00052B90098012240000023D0EB020263EB00
:100AC000E073009821464FEAE074B8EB000061EB58
:100AD0000401E9E783F000435BE781F0004158E758
:100AE0002DE9FE4F81EA030404F0004421F00041A7
:100AF00000944FF0000B23F0004350EA01045ED055
:100B000052EA03045BD0C3F30A54C1F30A552C44E0
:100B1000A4F2F3340194A0FB0254C1F3130141F495
:100B20008011C3F3130343F4801301FB024400FB61
:100B3000034E840A970A44EA815447EA8357A4FB88
:100B4000076802958D0A05FB07854FEA932C04FB85
:100B50000C542705029D4FEA065847EA1637B5EBB5
:100B600008056EEB070C870E920E47EA811742EAE2
:100B70008312A7FB0201B6EB0B0164EB00042B0D03
:100B800043EA0C335E1844EB1C50DA465146E7FB4F
:100B90000201C5F313044FEA0B3343EA14534FEA3F
:100BA0000432019C43EA0603A4F10C040294009C65
:100BB000CDE900B400F0DEF803B0BDE8F08F00200E
:100BC0000146F9E70EB5C10F80EAE0700844CA0794
:100BD000002140F233438DE80E000A460B4600F038
:100BE000C9F803B000BD00F0004230F000400AD068
:100BF000C10D01F56071C0F3160042EA0151C2084F
:100C000040071143704700200146704701F0004340
:100C100030B421F0004150EA010206D00A0DA2F5DD
:100C20006072C1F31301002A02DC30BC002070475F
:100C3000440F44EAC104C100E01830BC00EBC250CC
:100C400000F052B82DE9F05F0546002092469B4621
:100C500088460646814640241BE0284641464746D2
:100C6000224600F0E7F853465A46C01A914110D385
:100C700011461846224600F016F82D1A67EB0108B7
:100C80004F4622460120002100F00DF817EB000925
:100C90004E41201EA4F10104DFDC484631462A46BD
:100CA0004346BDE8F09F202A04DB203A00FA02F117
:100CB000002070479140C2F1200320FA03F319434A
:100CC00090407047202A06DBCB17203A41FA02F009
:100CD00043EAE07306E041FA02F3D040C2F1200299
:100CE00091400843194670470029A8BF7047401C2F
:100CF000490008BF20F00100704710B4B0FA80FC32
:100D000000FA0CF050EA010404BF10BC704749B16E
:100D1000CCF1200421FA04F411FA0CF118BF0121DE
:100D200021430843A3EB0C01CB1D4FEA00614FEABE
:100D3000102042BF002010BC704700EBC35010448D
:100D40000029A4BF10BC7047401C490008BF20F018
:100D5000010010BC704710B5141E73F1000408DACE
:100D6000401C41F1000192185B411A4301D120F06F
:100D7000010010BD2DE9F04D92469B4611B1B1FA2C
:100D800081F202E0B0FA80F220329046FFF78BFF4A
:100D900004460F4640EA0A0041EA0B0153465A4610
:100DA000084313D0114653EA010019D0C8F140029C
:100DB000504600F03FF805460E465046594642461A
:100DC000FFF771FF084305D0012004E020463946B3
:100DD000BDE8F08D0020054346EAE0762C4337431A
:100DE0000A986305E40AA0EB08000022FD0A44EA21
:100DF00047540A3002D500200146E9E701051019E1
:100E00006941DDE9084500196941BDE8F04DA2E7F7
:100E1000064C074D06E0E06840F0010394E8070047
:100E200098471034AC42F6D3FFF7B2F96C9C000837
:100E30008C9C0008202A04DB203A21FA02F00021D1
:100E4000704721FA02F3D040C2F1200291400843DA
:100E50001946704708B502F01FF800901EE0012106
:100E6000684607F043FB02F017F800F0030008B9EA
:100E700000F062F802F010F86421B0FBF1F201FB1F
:100E8000120008B902F01CFE02F006F8C821B0FBFF
:100E9000F1F201FB120008B902F070FDDFE770B556
:100EA00005460C4600260DB1022C00D870BDA11ECF
:100EB0004FF6FF72284601F0FDFF0646A01E2E5495
:100EC000310A601E295400BFF0E7000070B50546E6
:100ED0000C4600260DB1022C00D870BD611E0548DD
:100EE0000278284602F000F80646601E2E5400BF25
:100EF000F3E70000689900081CB50121022003F007
:100F00001BFB4FF40040009001208DF804000020EE
:100F10008DF8060003208DF8050002208DF80700EB
:100F20006946044801F01CFF4FF40041014801F0FC
:100F30008BFF1CBD0004024010B5002406E0012018
:100F4000074908603C2007F097FA641C05480068D0
:100F50008442F4DB0020024908600249086010BDA9
:100F6000BC824042680000200220014908607047AE
:100F70006800002010B54FF4407002F0DDFFA8209B
:100F800005F014FE104804F0E5F94FF4E12004F0F8
:100F900033FB4FF4E13004F09DFC4FF4E13004F0FA
:100FA00037FD0A4804F00EFE00F014F802F056FD7A
:100FB00001F046FEFFF7A0FF02F0AEFE02F032FCA9
:100FC000462001F01DFE10BDA086010020A10700F3
:100FD00000BFFEE700B58BB00121084603F0ACFA74
:100FE0000121480603F0B8FA09220B213C4801F020
:100FF000FFFE09220C213A4801F0FAFE4FF4C050DE
:10100000029002208DF80C0002A9354801F0A8FEDC
:1010100014208DF8040000208DF8050001208DF8C3
:1010200006008DF8070001A802F04AFF13208DF892
:10103000040000208DF8050002208DF80600012034
:101040008DF8070001A802F03BFF264800F03EF9AA
:1010500008A800F076FB00208DF826008DF8270008
:101060008DF828008DF829008DF82A0001208DF8D0
:101070002B0000208DF822008DF8230008208DF829
:10108000240003208DF82500ADF8200008A915489C
:1010900000F055FA00208DF81A008DF81B00012091
:1010A0008DF81C000020ADF81000ADF81200ADF86E
:1010B0001400ADF81600ADF8180001208DF81D00E1
:1010C00004A800F01FF901220221064800F02EFAC0
:1010D00001221146034800F029FA0BB000BD0000C0
:1010E000000002400064004000B585B00221314894
:1010F00000F08CF900285AD004212E4800F092F814
:101100006A4600212B4800F0A4FA0098A0F20120C2
:1011100006284AD2DFE800F0030E1A26323D0DF110
:101120000B01254803F002F924480068401C2349BC
:1011300008603BE00DF10B011F480A3003F0F6F8A0
:101140001E484068401C1D4948602FE00DF10B010E
:101150001948143003F0EAF818488068401C174911
:10116000886023E00DF10B0113481E3003F0DEF818
:101170001248C068401C1149C86017E00DF10B010E
:101180000F4803F0E9F80D480069401C0B4908615D
:101190000CE00DF10B010A48143003F0DDF80748AC
:1011A0004069401C0549486100E000BF00BF05B030
:1011B00000BD0000006400407C08002040010020C9
:1011C000A408002010B50121044800F01FF918B14F
:1011D0000121024800F026F810BD00000064004024
:1011E00000B585B00221074800F010F940B1022196
:1011F000044800F017F86A460021024800F029FA76
:1012000005B000BD0068004010B50121044800F0A1
:10121000FDF818B10121024800F004F810BD0000EB
:1012200000680040B1F5007F3AD00FDC202928D0BB
:1012300006DC01291CD004291DD0082940D11DE05D
:10124000402921D0B1F5807F3AD126E0B1F5004F99
:1012500031D006DCB1F5806F25D0B1F5006F2FD10C
:1012600024E0B1F5803F12D0B1F5003F28D111E064
:10127000154A826025E00822C26022E01022C26086
:101280001FE0082202611CE01022026119E008221E
:10129000426016E01022426013E00422426010E037
:1012A000042242600DE0042242600AE000228261D2
:1012B0000422426005E0002282610422426000E0D4
:1012C00000BF00BF704700000101010010B50446D7
:1012D0000B48844209D10121480603F04DF9002151
:1012E0004FF0007003F048F908E00121880603F090
:1012F00043F900214FF0806003F03EF910BD00007B
:101300000064004010B50021837A012202FA03F143
:101310003D4A126842F001023B4B1A603A4A1C32C5
:1013200012688A43384B1C331A60027BCAB9364AAA
:101330000C3212688A43344B0C331A604288C388DB
:1013400042EA0343304A4032847A42F83430028819
:10135000838842EA03432C4A4032847A02EBC40277
:101360005360027B012A19D1274A0C3212680A43C2
:10137000254B0C331A604288038842EA0343224A11
:101380004032847A42F83430C288838842EA034388
:101390001D4A4032847A02EBC4025360C27A3AB9E1
:1013A000194A121D12688A43174B1B1D1A6006E06A
:1013B000154A121D12680A43134B1B1D1A6002893D
:1013C00032B9114A143212688A430F4B14331A602F
:1013D0000289012A06D10C4A143212680A430A4BC8
:1013E00014331A60427B012A06D1074A1C32126864
:1013F0000A43054B1C331A60034A126822F00102AB
:10140000014B1A6010BD00000066004070B5044634
:101410000D46002660692840002871D0B5F5807F10
:101420005CD010DC082D35D006DC012D20D0022D3B
:1014300024D0042D72D127E0102D31D0202D35D0AD
:10144000402D6BD138E0B5F5004F60D009DCB5F523
:10145000007F49D0B5F5806F4CD0B5F5006F5DD1F8
:101460004FE0B5F5803F2DD0B5F5003F56D12FE0C8
:10147000A0682D4900F0C2FC064651E0E068032157
:1014800000F0BCFC06464BE0E068082100F0B6FC2A
:10149000064645E0E068102100F0B0FC06463FE05B
:1014A0002069032100F0AAFC064639E020690821E2
:1014B00000F0A4FC064633E02069102100F09EFCF9
:1014C00006462DE06068082100F098FC064627E0FB
:1014D0006068102100F092FC064621E0A06901211D
:1014E00000F08CFC06461BE0A069022100F086FC9F
:1014F000064615E0A069042100F080FC06460FE0D6
:101500000FE0A069702100F079FC064608E06068F1
:10151000042100F073FC064602E0FFE7002600BF4E
:1015200000E00026304670BD010101001AB1436998
:101530000B43436102E043698B434361704730B51D
:10154000024600200023146824F00204146014688A
:1015500044F00104146000E05B1C546804F00104D2
:101560001CB94FF6FF74A342F6D1546804F001048D
:101570000CB900206CE08C79012C04D1146844F083
:101580008004146003E0146824F080041460CC79B3
:10159000012C04D1146844F04004146003E0146882
:1015A00024F0400414600C7A012C04D1146844F037
:1015B0002004146003E0146824F0200414604C7AC2
:1015C000012C04D1146844F01004146003E0146882
:1015D00024F0100414608C7A012C04D1146844F0B7
:1015E0000804146003E0146824F008041460CC7A42
:1015F000012C04D1146844F00404146003E014685E
:1016000024F0040414608C78A407CD7844EA0564BF
:101610000D7944EA05444D7944EA05540D886D1E60
:101620002C43D461146824F001041460002300E00A
:101630005B1C546804F001041CB14FF6FF74A34214
:10164000F6D1546804F001040CB1002000E0012040
:1016500030BD10B500F5D87303EB01131B6803F020
:1016600004031372137A53B900F5D87303EB011313
:101670001B6840F2FF7404EA5353136009E000F55D
:10168000D87303EB01131B686FF0604404EAD303C3
:10169000536000F5D87303EB01131B6803F00203DA
:1016A000537200F5D87303EB01135B6803F00F036B
:1016B000937200F5D87303EB01135B681B0AD374B4
:1016C00000F5D87303EB01139B68D37200F5D87350
:1016D00003EB01139B681C0A147300F5D87303EB2A
:1016E00001139B681C0C547300F5D87303EB0113B2
:1016F0009B681B0E937300F5D87303EB0113DB6833
:10170000D37300F5D87303EB0113DB681C0A147460
:1017100000F5D87303EB0113DB681C0C547400F55F
:10172000D87303EB0113DB681B0E937421B9C368F4
:1017300043F02003C36003E0036943F02003036127
:1017400010BD00218171C171017241728172C1723B
:101750008170C17003210171022141710121018059
:10176000704710B502460020936803F08063B3F120
:10177000806F00D110E0936803F00063B3F1006F55
:1017800001D1012008E0936803F08053B3F1805F3A
:1017900001D1022000E00420042874D002F5C073B7
:1017A00003EB00131B6803F0010402F5C07303EBA5
:1017B00000131C600B7A7BB94B7A0C8843EA4453C4
:1017C00002F5C07404EB00142468234302F5C074CE
:1017D00004EB0014236010E00B7A4C6843EAC40366
:1017E0004C7A234302F5C07404EB001424682343AD
:1017F00002F5C07404EB001423608B7A03F00F032E
:101800008B7202F5C07303EB00135B6823F00F04C7
:1018100002F5C07303EB00135C6002F5C07303EBC9
:1018200000135B688C7A234302F5C07404EB001448
:1018300063608B7B1C064B7B44EA03440B7B44EACE
:101840000323CC7A234302F5C07404EB0014A36095
:101850008B7C1C064B7C44EA03440B7C44EA032348
:10186000CC7B234302F5C07404EB0014E36002F563
:10187000C07303EB00131B6843F0010402F5C0734F
:1018800003EB00131C6010BD08B501F005FB0090D0
:1018900029E00121684606F029FE13480078012856
:1018A00007D101F0F9FA00F00300E0B900F078F98F
:1018B00019E00D480078022802D102F03DF912E04B
:1018C00009480078032808D100231A46194618460B
:1018D00003F054F8FFF748FB05E000231A461946C9
:1018E000184603F04BF8D4E73800002008B501F0A3
:1018F000D3FA00900AE00121684606F0F7FD01F0F6
:10190000CBFA0348007808B100F032F8F3E70000A2
:101910003800002001F0C0FA1349086003220021BA
:10192000012007F0BBF9114908601CE000235A1E92
:1019300019460E48006807F0EBF901F0ADFA0A49C4
:101940000968401AB0F5FA6F06D901F0A5FA064900
:10195000086001F0FBF806E0002364221946034802
:10196000006807F0D5F9E1E73400002030000020DE
:1019700010B5734890ED010AB1EE400AD0ED000AAF
:1019800030EE200AD0ED020A30EE200A6D4880EDDC
:10199000040A6B4890ED010AD0ED000A30EE200AEF
:1019A000D0ED020A30EE200A664880ED050A644850
:1019B00090ED010AB1EE400AD0ED000A30EE600A67
:1019C000D0ED020A30EE200A5E4880ED060A5C483F
:1019D00090ED010AD0ED000A30EE600AD0ED020A67
:1019E00030EE200A574880ED070A01F055FA14211D
:1019F000B0FBF1F201FB120008B900F081FA524885
:101A0000406801EE900A9FED512A71EE821AB0EE05
:101A1000611A4C48D0ED041AF0EE610A4C48B0F956
:101A2000040001EE900AF8EEE11AB0EE610A4948AE
:101A300000F0AAFA434880ED000A4348406801EEEE
:101A4000900A9FED422A71EE821AB0EE611A3D486B
:101A5000D0ED051AF0EE610A3D48B0F90E0001EE36
:101A6000900AF8EEE11AB0EE610A3B4800F08CFAF9
:101A7000344880ED010A3448406801EE900A9FED39
:101A8000332A71EE821AB0EE611A2E48D0ED061A92
:101A9000F0EE610A2E48B0F9180001EE900AF8EE57
:101AA000E11AB0EE610A2D4800F06EFA254880ED8B
:101AB000020A2548406801EE900A9FED242A71EE43
:101AC000821AB0EE611A1F48D0ED071AF0EE610AD3
:101AD0001F48B0F9220001EE900AF8EEE11AB0EECC
:101AE000610A1F4800F050FA164880ED030A00F121
:101AF0000C031A1F011D02F037F9124C94ED030A72
:101B0000BDEEC00A10EE104A23B20E4C94ED020A4C
:101B1000BDEEC00A10EE104A22B20A4C94ED010A42
:101B2000BDEEC00A10EE104A21B2064C94ED000A38
:101B3000BDEEC00A10EE104A20B202F01FFF10BD29
:101B4000DC06002068010020E01400200000FA45B7
:101B50007C0800202A0A00207A0A0020CA0A0020F5
:101B60001A0B0020054890ED070ADFED050A30EE5C
:101B7000600A044880ED000A70470000A4080020B5
:101B800000008045C4060020034890ED020A034887
:101B900080ED000A7047000028010020D0060020D8
:101BA00010B54548007808B900F0A0F84248007820
:101BB000012804D19FED410A414880ED020A4148C5
:101BC000007828BB4048D0ED000A9FED401A70EE27
:101BD000C10AB1EE0C1A60EE810AB0EE600A3C4810
:101BE00005F09AF8364880ED000A3748D0ED010A32
:101BF0009FED361A70EEC10AB2EE081A60EE810A45
:101C0000B0EE600A334805F087F82D4880ED010AF0
:101C10002C48007801284ED12F48407828B19FEDFC
:101C20002F0A2F4880ED010A0DE02B48407928B19A
:101C30009FED2C0A2A4880ED010A04E09FED1F0A5F
:101C4000274880ED010A2448007928B19FED250A34
:101C5000234880ED000A0DE01F48807928B19FEDF0
:101C60001F0A1F4880ED000A04E09FED140A1C487B
:101C700080ED000A1848807B38B11748407820B1C1
:101C80009FED190A164880ED010A1548D0ED000AAB
:101C9000B0EE600A0E4805F03FF8094880ED000AF2
:101CA0000F48D0ED010AB0EE600A0A4805F034F89A
:101CB000034880ED010A10BD39000020000000003B
:101CC000DC0600203C000020980E0020000080442C
:101CD000B0140020C0140020EC0E002000409C45F1
:101CE000E806002000409CC50020FD4510B538489E
:101CF0000078012823D13648807800BB9FED350A53
:101D0000354880ED000A90ED000A344805F004F8EB
:101D10003248406800EE900A31480088A0F58050B3
:101D200001EE100AB8EEC11AB0EE410A9FED2D1A6D
:101D30002D4800F029F92D4880ED020A47E024489B
:101D4000007820BB22488078012820D19FED280A06
:101D5000214880ED000A90ED000A204804F0DCFFE5
:101D60001E48406800EE900A1D480088A0F580508B
:101D700001EE100AB8EEC11AB0EE410A9FED191A31
:101D8000194800F001F9194880ED020A1FE09FEDA3
:101D9000190A114880ED000A90ED000A0F4804F07E
:101DA000BBFF0E48406800EE900A0D480088A0F581
:101DB000805001EE100AB8EEC11AB0EE410A9FED54
:101DC0000E1A094800F0E0F8084880ED020A10BD3C
:101DD000EC0E0020000096C458000020D014002013
:101DE000A408002000C05A45FA0C0020DC060020A0
:101DF000000096440000000000E0AB4502460020D1
:101E000002EA01030BB1012000E00020704700004E
:101E100010B501F041F8044611480068201AB0F5E9
:101E2000AF6F1BD90F4890ED020A0F4880ED000AF2
:101E300001F010FDDFED0D0A9FED0D0A0D4804F0D5
:101E40009BFFDFED0D0A9FED0A0A0C4804F094FF9A
:101E500005200B49087000200A49087010BD0000D9
:101E60004000002028010020D00600202CF9C53DAC
:101E70000AD7233BB0140020295C8F3DC0140020FA
:101E80003B0000203900002010B501F005F80446A1
:101E900011480068201AB0F5C87F1BD90F4890ED93
:101EA000020A0F4880ED000A01F0D4FCDFED0D0AB4
:101EB0009FED0D0A0D4804F05FFFDFED0D0A9FED69
:101EC0000A0A0C4804F058FF05200B49087000204E
:101ED0000A49087010BD00004000002028010020C1
:101EE000D00600202CF9C53D0AD7233BB0140020B2
:101EF000295C8F3DC01400203B00002039000020E9
:101F000010B51A48D0F8170000EE100ADFED180AD5
:101F1000B4EEE00AF1EE10FA1ADD1448D0F817001A
:101F200000EE100A9FED131ADFED110A124800F0BF
:101F30002BF8124880ED080A90ED080AB5EEC00AA9
:101F4000F1EE10FA09DD9FED0E0A80ED080A04E0BB
:101F50009FED0B0A094880ED080A0848D0ED080AF1
:101F6000B0EE600A074804F0D7FE10BD8C010020D7
:101F70000000A04200C0DA45EA0D00206801002000
:101F800000000000E014002010B52DED048B044685
:101F9000B0EE408AF0EE608AB0EE419A18EE900AF8
:101FA000206018EE100A606019EE100AA063204647
:101FB000FEF74DFC606B00EE100ABDEC048B10BD0B
:101FC000DFED263A13EE901A0160DFED243A13EEAE
:101FD000901A4160DFED213A13EE901A8160DFED37
:101FE0001F3A13EE901AC16010EE101AC16310EE82
:101FF000901A016411EE101A4164DFED183A13EEE5
:10200000901AC161DFED153A13EE901A0162DFED0F
:10201000133A13EE901A416211EE901A816212EE99
:10202000101AC16212EE901A0163DFED0C3A13EE42
:10203000901A416313EE101A8163DFED083A13EE34
:10204000901AC163DFED053A13EE901A0164DFEDDB
:10205000033A13EE901A416470470000000000003C
:1020600000B59FED6F3ADFED6F2A9FED6E2ADFED31
:102070006E1A9FED6E1ADFED6D0A9FED6C0A6C48CB
:10208000FFF79EFF9FED663ADFED662A9FED652A1A
:10209000DFED651A9FED651ADFED640A9FED630AB7
:1020A0006448FFF78DFF9FED5E3ADFED5E2A9FEDFE
:1020B0005D2ADFED5D1A9FED5D1ADFED5C0A9FED95
:1020C0005B0A5D48FFF77CFF9FED553ADFED552A2F
:1020D0009FED542ADFED541A9FED541ADFED530A99
:1020E0009FED520A5548FFF76BFF9FED553ADFED24
:1020F000552A9FED552ADFED551A9FED4C1ADFED5D
:102100004B0A9FED4A0A5248FFF75AFF9FED4C3A9F
:10211000DFED4C2A9FED4C2ADFED4C1A9FED431A60
:10212000DFED420A9FED410A4A48FFF749FF9FED64
:10213000443ADFED442A9FED442ADFED441A9FED37
:102140003B1ADFED3A0A9FED390A4348FFF738FFA3
:102150009FED3B3ADFED3B2A9FED3B2ADFED3B1A3B
:102160009FED321ADFED310A9FED300A3B48FFF751
:1021700027FF9FED333ADFED332A9FED332ADFED62
:10218000331A9FED2A1ADFED290A9FED280A3448F9
:10219000FFF716FF9FED223ADFED222A9FED212A5D
:1021A000DFED211A9FED211ADFED200A9FED1F0AB6
:1021B0002C48FFF705FF9FED223ADFED2B2A9FED1C
:1021C0002A2ADFED291A9FED191ADFED180A9FED73
:1021D000170A2648FFF7F4FE9FED193ADFED222A91
:1021E0009FED212ADFED201A9FED101ADFED0F0A77
:1021F0009FED0E0A1E48FFF7E3FE9FED093ADFED63
:102200001A2A9FED192ADFED181A9FED081ADFED43
:10221000070A9FED060A1748FFF7D2FE00BD00002F
:102220000000FA450000FA4400008046000000006B
:102230002A0A00207A0A0020CA0A00201A0B00206D
:102240000040834500007A4500803B4500A08C4556
:102250006A0B0020BA0B00200A0C00205A0C002048
:10226000AA0C0020FA0C002000409C459A0D00208A
:102270004A0D0020EA0D002010B50549054800F080
:1022800031F918B10449034800F008F810BD000006
:102290002080001010600240200000100246094B10
:1022A0009A4201D2084801E00648103801F0005374
:1022B0001BB1064B0B40C36002E0044B0B40836034
:1022C0007047000010640240006002407D0F7D0FE7
:1022D00021B1026842F00102026003E0026822F0CC
:1022E0000102026070470000016821F001010160F5
:1022F0000021016041608160C16001612121416173
:102300004A49884204D13D21484A103A91608CE004
:1023100046491831884205D14FF47461434A103A56
:10232000916082E041493031884205D14FF4741107
:102330003E4A103A916078E03C494831884205D1E4
:102340004FF07461394A103A91606EE0374960315C
:10235000884204D13649354A103AD16065E03349A4
:102360007831884204D13349304A103AD1605CE078
:102370002E499031884204D12F492C4A103AD1601D
:1023800053E02A49A831884205D14FF03D51274AF0
:10239000103AD16049E02949884204D13D21274AB9
:1023A000083A116041E025491831884205D14FF4BF
:1023B0007461224A083A116037E02049303188427E
:1023C00005D14FF474111D4A083A11602DE01B49E4
:1023D0004831884205D14FF07461184A083A1160BB
:1023E00023E016496031884204D11149134A121F73
:1023F00011601AE011497831884204D10D490F4A21
:10240000121F116011E00D499031884204D10A4930
:102410000A4A121F116008E00849A831884204D115
:102420004FF03D51054A121F116070471060024085
:102430003D000020400F002000003D2010640240BD
:1024400021B1026842F48022026003E0026822F4B3
:1024500080220260704722B1036843F400230360C6
:1024600003E0036823F40023036001617047014621
:1024700000200A6802F001020AB1012000E00020F9
:1024800070470146486880B27047014600200A68DC
:1024900002F400220AB1012000E000207047000091
:1024A00030B503460A46002000240B4DAB4201D252
:1024B0000A4901E00849103902F000550DB14C6895
:1024C00000E00C68064D2C4004EA02050DB1012025
:1024D00000E0002030BD00001064024000600240B7
:1024E0007D0F7D0F70B50246002000240025124E9E
:1024F000B24201D2114B01E00F4B103B104E0E4087
:1025000036B11E2606EAD124166806EA040502E062
:10251000566906F0800501F000560EB15C6800E0D7
:102520001C68084E344004EA010616B10DB10120C2
:1025300000E0002070BD0000106402400060024016
:102540003C0F3C0F7D0F7D0F10B501F080034BB1A8
:1025500022B1436943F08003436103E0436923F000
:102560008003436180290BD02AB1036801F01E0467
:102570002343036004E0036801F01E04A3430360E7
:1025800010BD000010B500220268134B1A40CC6841
:102590000B6823434C6923438C692343CC69234351
:1025A0000C6A23434C6A23438C6A23434C6B2343BA
:1025B0008C6B23431A430260426922F00702D1E97F
:1025C0000B3423431A4342610B6943604B688360B9
:1025D0008B68C36010BD00003F801CF041607047F5
:1025E0000021016041608160C160016141618161E0
:1025F000C161016241628162C162016341638163C1
:10260000704730B5044625460C21284604F0E4F80E
:1026100048B1B5F8090000F10E01284604F0BEF8F3
:1026200008B1012030BD0020FCE7000070B5A8B063
:10263000032004F0EBF8FF24002604F001FC04461C
:1026400014B9002028B070BD601EC4B2194800EB58
:10265000C426002507E02946304605F081FB01A984
:102660004855681C85B29B2DF5D39B2201A91248C1
:10267000FEF764F91048007858280DD10E4890F8FC
:102680009A00582808D19B220B490C48FEF756F9AE
:102690000BA004F0C3F80BE00EA004F0BFF8582024
:1026A0000549087081F89A0000F050FA0020C9E747
:1026B0000120C7E700000E088F090020F408002061
:1026C000464C415348CAFDBEDDD0A3D1E9CDA8B9DF
:1026D000FD0A0000464C415348CAFDBEDDD0A3D1DF
:1026E000E9CAA7B0DC2CD5FDD4DAD6D8D0C2D0B494
:1026F000C8EBCDB7CEB2C3DCC2EB0A000288A2F5AC
:102700008062002A07DD0288A2F580628A4202DA2E
:102710009FED0B0A70470288A2F58062002A08D557
:102720000288A2F580624B429A4202DD9FED040AC4
:10273000F0E7028800EE102AB8EE400AEAE700004F
:10274000000080447047000000BF00BFD0ED000AC9
:10275000C0ED010A80ED000AD0ED000A90ED011AEB
:1027600070EEC10AC0ED030AD0ED030A9FED121A04
:10277000F4EEC10AF1EE10FA03D24169491C41613D
:102780000BE0D0ED030A9FED0D1AF4EEC10AF1EE55
:1027900010FA02DD4169491E416190ED001A41695C
:1027A0004FF4B472514300EE901AF8EEE00A71EE65
:1027B000200AC0ED020A7047000066C300006643AD
:1027C00001490860704700000C3C024070B50446A7
:1027D0000A460026092502B909E0012A01D116029C
:1027E00005E0022A01D1160201E04FF4407600F024
:1027F0009DF80546092D28D11548006820F4407041
:1028000013490860084600683043086008460068BD
:1028100020F0F80008600846006844F00201084310
:102820000B4908600846006840F48030086000F0FA
:102830007DF805460648006820F00200044908605B
:102840000846006820F0F8000860284670BD0000C7
:10285000103C024009201349096801F48031B1F5A8
:10286000803F01D101201CE00E49096801F01001F0
:1028700009B1062015E00B49096801F4807109B11E
:1028800002200EE00749096801F0EF0109B10720B5
:1028900007E00449096801F0020109B1082000E0DD
:1028A000092070470C3C02400348006840F000409B
:1028B0000149086070470000103C024030B50246F4
:1028C0000C46092500F032F80546092D17D10D48B0
:1028D000006820F440700B490860084600680860F2
:1028E0000846006840F001000860147000F01EF80F
:1028F00005460448006820F00100024908602846A7
:1029000030BD0000103C02400548006800F0004067
:1029100028B1044802490C39086003480860704730
:10292000103C024023016745AB89EFCD08B5092073
:102930000090FFF78FFF009002E0FFF78BFF009001
:102940009DF800000128F8D09DF8000008BD0000A7
:1029500010B54FF46171044802F0E9F94FF4617168
:10296000014802F0E6F910BD0008004010B540F63D
:10297000FC01044802F0DBF940F6FC01014802F0DA
:10298000D8F910BD0008004010B50021014802F040
:102990001BF910BD0004004010B50121014802F0F0
:1029A00013F910BD0004004010B5FFF73FFE10B151
:1029B00001F0CCFA17E00CA003F030FF40F6B8307D
:1029C00004F016F900BFBFF34F8F1148006800F400
:1029D000E06010490843001D0D490860BFF34F8FA8
:1029E00000BF00BFFEE710BD504944CAFDBEDDB3C5
:1029F000F6B4EDA3A1A3A1A3A1C8FDC3EBD6D3BA9E
:102A0000F3D6D8C6F4A3A1A3A1A3A10A0000000095
:102A10000CED00E00000FA0510B59FED3E0A10EE47
:102A2000100A3D4908613D480088A0F5805000EE3D
:102A3000900AF8EEE00AB0EE600A9FED391ADFED79
:102A4000390A0846FFF7A0FAB1EE400A364880ED91
:102A5000020A90ED021AF0EE410A3448B0F90C0077
:102A600001EE100AB8EEC11AB0EE410A9FED301A1D
:102A70003048FFF789FAB1EE400A2B4880ED010A91
:102A80009FED280A2C4880ED000A01F029F82A4819
:102A900090ED001AF0EE410A204890ED071ADFEDA4
:102AA000271A31EE611AB0EE410A9FED251A25482A
:102AB000FFF76AFA204880ED020A90ED021AF0EE64
:102AC000410A1A48B0F9080001EE100AB8EEC11A1E
:102AD000B0EE410A9FED161A1B48FFF755FA16484B
:102AE00080ED010A024692ED010AB1EE400ABDEE08
:102AF000C00A10EE102A11B20B4A92ED010AB1EE93
:102B0000400ABDEEC00A10EE102A10B201F068FFB4
:102B100010BD00003333333FAA0C0020A40800206E
:102B200000000C4300000000D0060020F01400203C
:102B3000004083450A0C0020C406002000008045A8
:102B400000005243BA0B00206A0B002070B5A8B0F9
:102B50001EA003F063FEFF25002604F071F9054670
:102B60003E2D08DD582003F0D9FF08B1002502E012
:102B7000002028B070BD1A4800EBC526FFF7C4FE40
:102B80009B22184901A8FDF7D9FE00240AE001A8FC
:102B9000025D2146304605F09FFF08B90020E8E7B6
:102BA000601C84B29B2CF2D3FFF77EFE052003F05D
:102BB0002DFE9B220B490C48FDF7C0FE01F0C6F923
:102BC0000AA003F02BFE0120D3E70000666C6173BE
:102BD00068D0B4C8EBD6D0A3A1A3A1A3A1A3A100A0
:102BE00000000E088F090020F4080020666C617355
:102BF00068D0B4C8EBCDEAB1CFA3A1A3A100000077
:102C000070B506460324002509E0204601F00EFEBB
:102C1000304603F0EDFF6006040E681CC5B2032DBC
:102C2000F3DB002508E0204601F000FE304603F00B
:102C3000DFFF6410681CC5B2052DF4DB70BD000019
:102C400000B58BB00121042001F086FC0121082091
:102C500001F072FC02220C21314800F0C9F8022276
:102C60000D212F4800F0C4F84FF440500990022085
:102C70008DF8280003208DF8290000208DF82A0007
:102C800001208DF82B0009A9254800F069F8532090
:102C9000ADF818000020ADF81A0040F6C3100790F8
:102CA0000020ADF8200006A91E4802F045F870206B
:102CB000ADF804000120ADF806000220ADF81000C8
:102CC00001A9184801F08CFF0821164801F0C6FF41
:102CD0000121144801F06CFF0121124801F074FF3A
:102CE00001A9104801F0C4FF08210E4802F012F8B3
:102CF00001210C4801F05CFF01210A4801F064FF4A
:102D00004FF46171074802F012F84FF46171054801
:102D100002F00FF84FF4FA7003F06AFF0BB000BD39
:102D2000000C02400008004008B500F0B5F8009023
:102D300013E00121684605F0D9FB00F0ADF8074823
:102D4000007820B90021084601F04AFE05E003485A
:102D50000078012801D100F0D9F8EAE73A00002014
:102D6000F0B50A4600210023002400BF3DE0012504
:102D700005FA01F3156805EA03049C4234D105689D
:102D80004F000326BE40B543056015794E00B5409F
:102D90000668354305601579012D02D01579022D9D
:102DA00016D185684F000326BE40B543856055792E
:102DB0004E00B540866835438560456801268E40E3
:102DC000B5434560456896798E40B6B23543456057
:102DD000C5684F000326BE40B543C560D5794E0097
:102DE000B540C6683543C560491C1029BFD3F0BD46
:102DF000F0B5002300244D07ED0E02FA05F3CE10C6
:102E000000F1200555F826504E07F70E0F26BE405C
:102E1000B543CF1000F1200646F82750CE1000F140
:102E2000200555F8265045EA0304CE1000F1200590
:102E300045F82640F0BD0246002013690B400BB157
:102E4000012000E0002070474183704701837047F4
:102E50004FF6FF7101600021017141718171C171F3
:102E60007047B0EE402AB0EE420AF4EEC00AF1EE2E
:102E700010FA01DDB0EE600AB4EEC01AF1EE10FAFD
:102E800001DDB0EE410AF4EEC01AF1EE10FA01DDF8
:102E9000B0EE610A7047000010B506F0BDFA0128D7
:102EA00002D006F0C9FA10BD01480068FBE7000037
:102EB0002C00002030B5034613B94FF6FF7030BD2B
:102EC00009E013F8014B82EA0400C0B2054D35F861
:102ED000100080EA2222081EA1F10101F1D1104662
:102EE000EDE700006A9A000830B5034605E013F8E4
:102EF000010B80EA02040448025D081EA1F10101F1
:102F0000F5D1104630BD00006999000810B50E4893
:102F10000078052801D100F019F80B48007808B9AD
:102F200000F012FA08480078042803D1FFF774FD76
:102F3000FEF76EFF04480078032803D100F070F913
:102F4000FEF7A2FF10BD00003B00002010B52DEDE4
:102F5000088B8A480078002856D1894890ED020AEB
:102F6000DFED880A30EE600A10EE101A0846FDF711
:102F70003AFE41EC1A0B9FED840B53EC102BFDF73E
:102F8000AFFD41EC190BFDF741FE08EE100ADFED35
:102F9000800AB0EE480A01F011FA7E48D0ED000A2E
:102FA00030EE200A80ED000A754890ED030ADFED4F
:102FB000750A30EE600A10EE101A0846FDF713FE8F
:102FC00041EC1B0B9FED740B53EC102BFDF788FDB0
:102FD00041EC190B724890ED000A10EE101A0846E9
:102FE000FDF701FE41EC1A0B53EC192BFDF7D1FC58
:102FF00041EC180BFDF70AFE69490860DFED690A2C
:103000009FED690A00F0F2F85C480078012848D189
:103010006649B1F90A00FDF7D5FD41EC1A0B9FEDA9
:10302000640B53EC102BFDF75BFD41EC190BFDF726
:10303000EDFD08EE100ADFED560AB0EE480A01F089
:10304000BDF95448D0ED000A30EE200A80ED000AA8
:103050005649B1F90C00FDF7B5FD41EC1B0B9FED96
:10306000560B53EC102BFDF73BFD41EC190B4C4874
:1030700090ED000A10EE101A0846FDF7B4FD41EC81
:103080001A0B53EC192BFDF725FD41EC180BFDF73E
:10309000BDFD43490860DFED430A9FED430A00F0A0
:1030A000A5F83C4890ED001AF0EE410A444890ED36
:1030B000021AB0EE410A9FED431A4348FEF764FF3F
:1030C000344880ED020A90ED021AF0EE410A3F48C2
:1030D000B0F90C0001EE100AB8EEC11AB0EE410AC8
:1030E0009FED3B1A3B48FEF74FFFB1EE400A2948DF
:1030F00080ED010A2A4890ED001AF0EE410A3648A8
:1031000090ED071ADFED351A31EE611AB0EE410A83
:103110009FED331A3348FEF737FF214880ED020A4E
:1031200090ED021AF0EE410A2848B0F9080001EECD
:10313000100AB8EEC11AB0EE410A9FED251A2A48CE
:10314000FEF722FF164880ED010A024692ED010AC1
:10315000B1EE400ABDEEC00A10EE102A11B20D4ABF
:1031600092ED010AB1EE400ABDEEC00A10EE102A3F
:1031700010B201F035FCBDEC088B10BD3C00002006
:10318000980E002000008044FCA9F1D24D62403F1F
:103190000080BB44D00600207B14AE47E17A843F18
:1031A000C4060020000096C400009644D80E0020FB
:1031B000FCA9F1D24D62703FB81E85EB51B8BE3FFD
:1031C00028010020000048435A0C0020F014002081
:1031D000004083450A0C0020A40800200000804520
:1031E0000000C843BA0B00206A0B002010B52DED7B
:1031F000028BB0EE408AF0EE608A0848D0ED000AFB
:10320000B0EE600AB0EE481AF0EE680A03F0C8FDAE
:10321000024880ED000ABDEC028B10BDC406002000
:1032200010B59FED3C0A10EE100A3B4908613B487F
:103230000088A0F5805000EE900AF8EEE00AB0EEAB
:10324000600A9FED371ADFED370A0846FEF79CFE4D
:10325000B1EE400A344880ED020A90ED021AF0EE19
:10326000410A3248B0F90C0001EE100AB8EEC11A5A
:10327000B0EE410A9FED2E1A2E48FEF785FEB1EE04
:10328000400A294880ED010A9FED260A2A4880ED70
:10329000000A00F025FC2148D0ED070A9FED271A0F
:1032A00070EEC10AB0EE600A9FED1D1ADFED1D0A37
:1032B0002348FEF769FE204880ED020A90ED021ACD
:1032C000F0EE410A1948B0F9080001EE100AB8EE14
:1032D000C11AB0EE410A9FED161A1A48FEF754FEC5
:1032E000154880ED010A024692ED010AB1EE400A4E
:1032F000BDEEC00A10EE102A11B20B4A92ED010A7F
:10330000B1EE400ABDEEC00A10EE102A10B201F074
:1033100067FB10BD3333333FAA0C0020A408002004
:103320000000704300000000D0060020F0140020D0
:10333000004083450A0C0020C406002000008045A0
:10334000BA0B00206A0B002010B5FFF7A5FD0A217B
:10335000B0FBF1F201FB1200E8B93148D0ED020AEE
:10336000B0EE600A9FED2F1ADFED2F0A2F48FEF70F
:103370000BFE2F4880ED020A2948D0ED010AB0EE7D
:10338000600A9FED2C1ADFED280A2B48FEF7FCFDA2
:103390002A4880ED020A294890ED021AF0EE410A0F
:1033A0002748B0F90C0001EE100AB8EEC11AB0EED1
:1033B000410A9FED241A2448FEF7E6FDB1EE400ACB
:1033C0001E4880ED010A1A4890ED021AF0EE410AFB
:1033D0001B48B0F9080001EE100AB8EEC11AB0EEB1
:1033E000410A9FED181A1948FEF7CEFD104880EDEE
:1033F000010A024692ED010AB1EE400ABDEEC00A92
:1034000010EE102A11B20D4A92ED010AB1EE400AF7
:10341000BDEEC00A10EE102A10B201F0E1FA10BDA4
:10342000601200200000C843000000009A0D002038
:10343000C4060020000048434A0D0020D0060020AA
:10344000F0140020004083450A0C00206A0B002085
:1034500000BFFEE710B513480078E0B912480068D5
:1034600000EE100AB5EEC00AF1EE10FA11DDFFF71A
:1034700093FADC2005F000F80B48006800EE100A13
:10348000F7EE000A30EE600A10EE100A06490860F6
:1034900001E0FFF779FA03480078012801D1FFF72E
:1034A0007BFA10BD3D0000205000002010B52D48D3
:1034B0000078002855D12C480078032851D12B489A
:1034C000007802284DD12A4890ED000ADFED290A44
:1034D000B4EEE00AF1EE10FA43DD90ED010ADFED03
:1034E000260AB4EEE00AF1EE10FA3AD22348007848
:1034F00018B9FFF7D1FC2249086020480078401C29
:103500001E49087008460078042817D1FFF7C4FC4C
:103510001B490968401A40F6B831884208D2002099
:103520001649087001F0E8F816A003F077F905E0F5
:1035300000201249087019A003F070F9FFF7ACFCE5
:103540000F490968401A40F6B831884209D90B483A
:103550000078042805DA0020084908700FA003F05D
:103560005DF910BD38000020A80E0020C00E00201C
:10357000980E00200000B24400001C444C000020C3
:1035800048000020BDF8D0D0D2BBB4CED0A3D7BC69
:1035900050D6E159D6E1D0A3D7BC0000D0A3D7BC08
:1035A000B3ACCAB10000000010B50C48407C28B98B
:1035B0000B48407C012801D10A4908700748407C2B
:1035C000012809D10648407C30B90320064908701B
:1035D000FFF762FC0549086010BD0000A80E00203E
:1035E000C00E0020390000203B00002040000020D9
:1035F00010B507480078012802D101F01DFA05E056
:10360000FFF7A6F90021034801F0DEFA10BD000023
:10361000380000200004004010B51248407C01280A
:1036200008D111480078012804D100200F49087002
:103630000F4908700D48007898B90E48C07C0128E1
:1036400002D10D48C07C10B10748007848B9FEF798
:103650009BFAFEF787FA0520044908700020044908
:10366000087010BDD80E0020601200203B00002022
:1036700039000020A80E0020C00E002010B5204800
:103680004078012812D11F48407803280ED101202C
:103690001D4908701D49087004201D49087001204B
:1036A0001C490870FFF7F8FB1B4908601B48808C19
:1036B00040B100BF13484078032803D102201249CB
:1036C00008700CE00F484078012808D10E480078B7
:1036D000032804D000200C4908700C4908700948E0
:1036E0004078032803D100200D49087006E0054802
:1036F0004078022802D101200949087010BD00005D
:10370000A80E0020C00E0020380000203A00002043
:103710003B00002039000020400000204001002034
:103720003C00002010B51F48007D012812D11E4822
:10373000007D78B91D48007880F001001B490870B1
:103740000846007818B91AA003F068F802E01CA037
:1037500003F064F81348407D012814D11248407DDD
:1037600088B91BA000F00CFD1DA000F009FD1FA0F2
:1037700000F006FD20A000F003FD23A000F000FDF6
:1037800024A000F0FDFC0748C07D012809D10648AF
:10379000C07D30B958202249087081F89A00FFF79F
:1037A000D5F910BDC00E0020A80E00204400002056
:1037B000C9CFCEBBBBFAD2D1BEADB9D2C6F00A00DA
:1037C000C9CFCEBBBBFAD2D1BEADBBD6B8B40A000E
:1037D000535441545F4A554447455F7461736B00CD
:1037E0004348415349535F7461736B0047494D42ED
:1037F000414C5F7461736B00434F4E434C554445DD
:103800005F7461736B000000414E4F5F44545F74FE
:1038100061736B004155585F7461736B0000000069
:103820008F0900201CB50121102000F085FE0F201B
:10383000009000208DF8040003208DF80500012081
:103840008DF8070069460248FFF78AFA1CBD0000A0
:1038500000100240054890ED070ADFED050A30EE42
:10386000600A044880ED000A70470000A4080020A8
:1038700000008045C406002001F0400212B1012280
:10388000027001E00022027001F0010212B1012277
:10389000427001E00022427001F0800212B1012268
:1038A000827001E00022827001F4807212B1012264
:1038B000C27001E00022C27001F0040212B10122C4
:1038C000027101E00022027101F0020212B1012234
:1038D000427101E00022427101F0080212B101229E
:1038E000827101E00022827101F4007212B10122A2
:1038F000C27101E00022C27101F4806212B10122A2
:10390000027201E00022027201F4006212B101228F
:10391000427201E00022427201F4805212B101228F
:10392000827201E00022827201F4005212B101227F
:10393000C27201E00022C27201F4804212B101227F
:10394000027301E00022027301F4004212B101226D
:10395000427301E00022427301F0100212B1012211
:10396000827301E00022827301F0200212B1012271
:10397000C27301E00022C273704700003148007832
:10398000002812DD3048006808B9012000E000205E
:103990002D4908602B480078401E2A4908700846C7
:1039A000007810B9012028490860284800780028CC
:1039B00015DD2548001F006808B9012000E000203F
:1039C0002149091F086021480078401E1F490870DE
:1039D0000846007818B901201B49091F08601C48D7
:1039E0000078002815DD18480838006808B901205B
:1039F00000E0002014490839086015480078401E8E
:103A0000134908700846007818B901200E49083992
:103A1000086010480078002812DD0F48006808B9D7
:103A2000012000E000200C4908600A480078401E90
:103A3000084908700846007810B901200649086056
:103A4000704700005C000020980242425D000020A8
:103A50005E0000205F000020B40241421CB501213D
:103A6000142000F069FD4FF40050009001208DF803
:103A7000040000208DF8060003208DF8050069463B
:103A80000A48FFF76DF97020009069460848FFF773
:103A900067F90120074908600749C1F89002074902
:103AA00008600549C1F898021CBD000000080240EA
:103AB00000100240B40241420000424294024242DD
:103AC0000548007880F00100034908700846007836
:103AD00002490860704700006C000020B4024142B7
:103AE00090ED000ADFED0C0AB4EEE00AF1EE10FAF8
:103AF00003DD9FED090A80ED000A90ED000ADFED7D
:103B0000070AB4EEE00AF1EE10FA03D29FED030AC1
:103B100080ED000A7047000000009644000096C443
:103B200010B500231A4619460248006805F02CFA21
:103B300010BD0000300000209FED060A064880ED11
:103B4000000A9FED040A80ED010A9FED020A80ED54
:103B5000020A704700000000DC06002010B5044691
:103B60002078FF2803D000202D49087010BD60790F
:103B7000A0B900202A4908709FED2A0A084680ED66
:103B8000010A9FED280A80ED020A9FED260A80EDCA
:103B9000080A9FED240A80ED090AE7E70120204981
:103BA00008706078A17840EA012000B200EE100AA7
:103BB000B8EEC00AB1EE400AF2EE040A80EE201A16
:103BC000174880ED011AE078217940EA012000B21F
:103BD00000EE100AB8EEC00AF2EE040A80EE201AD7
:103BE0000F4880ED021A6079A17940EA012000B205
:103BF00000EE100AB8EEC00A094880ED050AE07927
:103C0000217A40EA012000B200EE100AB8EEC00AA4
:103C1000034880ED040AFDF7A7F900BFA6E70000FE
:103C2000601200200000000000BFFEE710B533481E
:103C3000407A032810D13248807C012803D02F48D5
:103C4000007A022804D101212E4800F0BDFF03E0D4
:103C500000212C4800F0B8FF2848407A02284CD1B7
:103C60002948007810BB2648807C01281ED12748AF
:103C7000807CD8B92648006800EE100AF7EE000AEA
:103C800030EE200A10EE100A21490860084600684C
:103C900000EE100AF2EE040AB4EEE00AF1EE10FAB9
:103CA00004DDB2EE020A10EE100A08601448807CAF
:103CB000012810D11448007868B915484068401CA4
:103CC0001349486008464068E62804D90020486047
:103CD00001200D4908700C48007801280DD10848D2
:103CE000807C50B90020084908709FED0A0A10EE48
:103CF000100A074908600020486010BDD80E002057
:103D0000C00E0020000400403D000020A80E00204E
:103D100050000020000000001CB50121084600F002
:103D20000BFCA020009001208DF8040000208DF8ED
:103D3000060003208DF8050001208DF80700694674
:103D40000848FFF70DF820210648FFF77FF880218B
:103D50000448FFF77BF84FF47A71142000F0D0FE8E
:103D60001CBD0000000002402DE9F0412DED028B4A
:103D700004460D4616461F4697ED002AF0EE421AFD
:103D800096ED002AB0EE421A95ED002AF0EE420AB6
:103D900094ED002AB0EE420AFFF763F8B0EE408AD5
:103DA0009FED190AB4EEC08AF1EE10FA27DD94ED0A
:103DB000000ADFED150A78EE600A30EE600A84ED45
:103DC000000A95ED000ADFED100A78EE600A30EE89
:103DD000600A85ED000A96ED000ADFED0B0A78EE29
:103DE000600A30EE600A86ED000A97ED000ADFED0A
:103DF000060A78EE600A30EE600A87ED000ABDEC34
:103E0000028BBDE8F081000000E0F64510B50446E5
:103E1000102221462548FCF791FD244890ED010A27
:103E2000B8EEC00ADFED220A20EE600A10EE100A9A
:103E30002049C1F817001D4890ED000AB8EEC00AED
:103E4000DFED1B0A20EE200A10EE100AC1F8130065
:103E5000164890ED030AB8EEC00ADFED150A20EE11
:103E6000600ABDEEC00A10EE100A01B211480181CD
:103E70000E4890ED020AB8EEC00ADFED0D0A20EE02
:103E8000200ABDEEC00A10EE100A01B20948818175
:103E9000D0F8170000EE100A0748FEF755FC064858
:103EA00080680449C1F81B0010BD00009014002078
:103EB0000AD7233CF014002028010020704700009E
:103EC00070B5002100230F22C4781CB3174C24685E
:103ED00004F4E064C4F5E064C4F30721C1F1040410
:103EE000E3B20A4144789C40E1B284781440214313
:103EF0000C07210E0E4C05786155047804F01F055F
:103F00000124AC4005786D11AD0005F1E025C5F840
:103F1000004109E0047804F01F050124AC40054D80
:103F20000678761145F8264070BD00000CED00E0E3
:103F300000E400E080E100E002490143024A116030
:103F4000704700000000FA050CED00E05448D0F87E
:103F50000100544908615248D0F8050048615048B2
:103F6000D0F8090088614E48D0F80D004E4908612C
:103F70004B48D0F8110048614948D0F815008861D5
:103F80004748D0F81900494908614548D0F81D0054
:103F900048614348D0F8210088614148D0F82500A5
:103FA000434908613E48D0F8290048613C48D0F8B0
:103FB0002D0088613A48D0F855003E4908613848DC
:103FC000D0F8590048613648D0F85D00886134481F
:103FD000D0F8550008613248D0F85900486130489F
:103FE000D0F85D0088612E48D0F849003249086158
:103FF0002B48D0F84D0048612948D0F8510088611D
:104000002748D0F83D002D4908612548D0F84100E7
:1040100048612348D0F8450088612148D0F8310034
:10402000274908611E48D0F8350048611C48D0F87F
:10403000390088611A48D0F861002249086118489F
:10404000D0F8650048611648D0F8690088611448C6
:10405000D0F879001C4908611148D0F87D0048610A
:104060000F48D0F8810088610D48D0F86D001749DD
:1040700008610B48D0F8710048610948D0F8750014
:1040800088610748D0F88D00114908610448D0F8CC
:10409000910048610248D0F895008861704700009F
:1040A000F40800202A0A00207A0A0020CA0A002008
:1040B0001A0B00206A0B0020BA0B00200A0C00200B
:1040C0005A0C0020FA0C00209A0D00204A0D002006
:1040D000EA0D002010B5FDF7C3FFDFED1C0A9FEDD0
:1040E0001C0A1C4802F048FEDFED1B0A9FED1B0A6C
:1040F0001B4802F041FEDFED1B0A9FED180A1A482B
:1041000002F03AFEDFED190A9FED140A184802F09A
:1041100033FEDFED180A9FED0D0A174802F02CFE62
:1041200001F036FDFEF740FC00F0DCFA002003F061
:1041300027FE012003F018FE002002F003FD0020FE
:1041400003F018FE00200D49087010BD0AD7A33CEB
:104150006F12833AA01400202CF9C53D6F12833BE7
:10416000B0140020295C8F3DC01400209A99193E9C
:10417000D0140020CDCC4C3EE01400203D000020A7
:1041800030B589B0044618A002F048FB204605F07F
:10419000E5F80546052301226946284604F09AFA07
:1041A00020A0019902F03AFB25A0029902F036FB0B
:1041B0009DF80C1029A002F031FB2FA0049902F009
:1041C0002DFB34A0059902F029FB39A0079902F0D4
:1041D00025FBBDF820103EA002F020FB43A002F01A
:1041E0001DFB09B030BD00002F2A2A2A2A2A2A2ABC
:1041F0002A2A2A2A2A2A2A2A2A2A2A2A2A2A2AC881
:10420000CECEF1D0C5CFA22A2A2A2A2A2A2A2A2AA1
:104210002A2A2A2A2A2A2A2A2A2A2A2A2A2A2A2AFE
:104220002F0D0A00C8CECEF1C3FB3A20202020205B
:10423000202020202020202020202025730D0A006F
:10424000C8CECEF1B1E0BAC53A20202020202020EF
:104250002020202020202025640D0A00C8CECEF189
:10426000D7B3CCAC3A2020202020202020202020B2
:1042700020202025640D0A00C8CECEF1B5B1C7B00C
:10428000D3C5CFC8BCB63A2020202020202020252E
:10429000640D0A00C8CECEF1BBF9D3C5CFC8BCB6F9
:1042A0003A2020202020202020202025640D0A00F4
:1042B000C8CECEF1B6D1D5BBBBF9B5D8D6B73A206A
:1042C000202020202020202523780D0A0000000037
:1042D000C8CECEF1B6D1D5BBC0FACAB7CAA3D3E017
:1042E000D7EED0A1D6B53A25640D0A002F2A2A2A86
:1042F0002A2A2A2A2A2A2A2A2A2A2A2A2A2A2A2A1E
:104300002A2A2A2A2A2A2ABDE1CAF82A2A2A2A2A55
:104310002A2A2A2A2A2A2A2A2A2A2A2A2A2A2A2AFD
:104320002A2A2A2A2A2A2F0D0A00000042880280FF
:104330004A780B7842EA03224280CA788B7842EAB4
:10434000032212B282804A790B7942EA032212B226
:10435000C2808A790272704730B504460D4668788B
:10436000297840EA01206080124AD2F8892000EEC4
:10437000102ABCEEC00A10EE102A91B2628810B268
:1043800003F0E8FD20800C4890ED020A84ED010A5C
:10439000008800EE100AB8EE400A84ED020A0648D2
:1043A00090ED020AD0ED010A30EE600A84ED030AB6
:1043B00030BD00008F090020A4080020002000214B
:1043C0001E4A1288A2F5805201EE102AB8EEC11AD8
:1043D000F1EE601AB4EEE11AF1EE10FA02D200BF6B
:1043E000012111E0154A1288A2F5805201EE102A2F
:1043F000B8EEC11AB4EEE01AF1EE10FA02DD0120B7
:10440000002101E001200121012809D141B9B5EEC7
:10441000C00AF1EE10FA03D29FED091AB0EE410A7C
:1044200050B9012908D1B5EEC00AF1EE10FA03DD4A
:104430009FED031AB0EE410A70470000A408002067
:104440000000000010B504462078617840EA0120A1
:10445000C0F30A00354908806078C010A17840EAAE
:104460004110C0F30A0031494880A0788011E178FA
:1044700040EA8100217940EA8120C0F30A002B49FB
:10448000888020794010617940EAC110C0F30A00A9
:104490002649C88060790011800808726079C0F3ED
:1044A00001104872A079E17940EA012000B21F4969
:1044B0004881207A617A40EA012001B21B4881815B
:1044C000A07AE17A40EA012001B21848C181217B3B
:1044D0000174617B4174A07BE17B40EA01201349B8
:1044E000488246211148FEF709F9114880ED000A7B
:1044F00046210E48801CFEF701F90D4880ED010AA7
:1045000046210A48001DFEF7F9F8094880ED020A25
:1045100046210648801DFEF7F1F8054880ED030AA4
:104520000248418A0348FFF7A7F910BDD80E0020C2
:10453000980E0020EC0E002029B1064A12680243B2
:10454000044B1A6004E0034A12688243014B1A606C
:10455000704700003038024029B1064A1268024311
:10456000044B1A6004E0034A12688243014B1A604C
:10457000704700004038024029B1064A12680243E1
:10458000044B1A6004E0034A12688243014B1A602C
:10459000704700002038024029B1064A12680243E1
:1045A000044B1A6004E0034A12688243014B1A600C
:1045B000704700004438024029B1064A126802439D
:1045C000044B1A6004E0034A12688243014B1A60EC
:1045D0007047000024380240F0B50021002200247A
:1045E000022500260223324F3F6807F00C0121B15B
:1045F000042905D0082937D105E02E4F076036E0A1
:104600002D4F076033E02A4F3F1F3F68C7F38056A6
:10461000274F3F1F3F6807F03F036EB1264FB7FBA0
:10462000F3F7DFF88CC0ACF1040CDCF800C0CCF37D
:10463000881C07FB0CF40CE01E4FB7FBF3F7DFF808
:1046400070C0ACF1040CDCF800C0CCF3881C07FB94
:104650000CF4174F3F1F3F68C7F301477F1C7D00D5
:10466000B4FBF5F7076002E0124F076000BF00BF20
:104670000F4F3F6807F0F0010909104F7A5C076897
:10468000D74047600A4F3F6807F4E051890A0B4F53
:104690007A5C4768D7408760054F3F6807F4604100
:1046A000490B064F7A5C4768D740C760F0BD0000F1
:1046B000083802400024F40000127A007B00002039
:1046C00008B5FEF7E9FB009009E00121684603F018
:1046D0000DFFFEF7E1FBA521014803F04FFCF4E7D5
:1046E000D40100204FF4806002490880488088800F
:1046F000C8807047D80E002010B50C48C08A00EE64
:10470000100AB8EE400A10EE100A0949C1F88500F7
:104710000648408800EE100AB8EE400A10EE100A73
:10472000C1F88900FFF7FCF910BD0000A4080020C3
:104730008F09002010B5182223492448FCF7FEF801
:104740002348007A204908702148407A487021485F
:10475000C07B48741E48407C08B1012000E0002066
:104760001949C8741A48007C08B1012000E00020F3
:104770001549887401211848FEF75DFB08B901202E
:1047800000E000201049087502211348FEF753FB92
:1047900008B9012000E000200B49487504210E48AB
:1047A000FEF749FB08B9012000E0002006498875A2
:1047B00008210948FEF73FFB08B9012000E000206E
:1047C0000149C87510BD0000C00E0020A80E0020D1
:1047D000D80E0020EC0E00200010024008B5FEF7B5
:1047E0005BFB009007E00121684603F07FFEFEF7C7
:1047F00053FBFEF72FFEF6E708B5FEF74DFB0090E2
:1048000013E00121684603F071FEFEF745FBFFF758
:1048100091FFFEF733FFFEF7EBFEFEF7FDFEFEF71E
:10482000C3FEFEF77FFFFEF741FEEAE700F001015D
:1048300019B10021144A116002E00121124A1160ED
:1048400000F0020119B10021104A116002E00121BB
:104850000E4A116000F0040121B100210B4A121F21
:10486000116003E00121094A121F116000F00801E4
:1048700021B10021054A083A116003E00121034AF1
:10488000083A116070470000B40241429802424267
:104890000CB50020019000903448006840F480304E
:1048A0003249086000BF3148006800F400300090D1
:1048B0000198401C0190009818B90198B0F5A04FDC
:1048C000F1D12A48006800F4003010B101200090B6
:1048D00001E0002000900098012846D12348403094
:1048E000006840F08050214940310860204800684D
:1048F00040F440401E4908601C48083000681B49CD
:10490000083108600846006840F400400860084626
:10491000006840F4A05008601648091F0860081F8E
:10492000006840F08070091F086000BF0F480068F1
:1049300000F000700028F9D040F205700E490860C0
:104940000A480830006820F0030008490831086070
:104950000846006840F00200086000BF03480830C5
:10496000006800F00C000828F8D10CBD00380240A7
:104970000070004008544007003C0240F0B585B08C
:1049800004460D4616461F464FF400700090002066
:104990008DF808008DF8090008208DF80A00200A1B
:1049A0008DF80B00E1B28DF80C10290A8DF80D106E
:1049B000E9B28DF80E10310A8DF80F10F1B28DF8B2
:1049C0001010390A8DF81110F9B28DF812106946DD
:1049D0000248FCF7C6FE05B0F0BD000000640040D0
:1049E00030B585B004460D4640F2FF10009000201F
:1049F0008DF808008DF8090008208DF80A00200ABB
:104A00008DF80B00E1B28DF80C10290A8DF80D100D
:104A1000E9B28DF80E1000218DF80F108DF81010EE
:104A20008DF811108DF8121069460248FCF799FEB6
:104A300005B030BD0064004010B50848007A032876
:104A400003D00648007A022804D1FDF78FFFFFF754
:104A5000EDF801E0FDF77CFF10BD0000D80E00204E
:104A6000042808D14FF0E021096941F004014FF01A
:104A7000E022116107E04FF0E021096921F0040113
:104A80004FF0E0221161704710B504F0C5FC012819
:104A900001D004F0E9F810BD10B51548006840F4E5
:104AA0007000134908601348006840F00100114984
:104AB000086000200F49083108600E4800680E4960
:104AC00008400C4908600D48091D0860081F00686F
:104AD00020F48020091F0860002006490C3108607E
:104AE000FFF7D6FE4FF0006001498039086010BD25
:104AF00088ED00E000380240FFFFF6FE1030002491
:104B000030B58BB004460D4601210220FFF724FD8D
:104B100001210846FFF710FD022206212248FEF778
:104B200067F94020099002208DF8280003208DF8B5
:104B3000290000208DF82A0001208DF82B0009A9FA
:104B40001948FEF70DF9A8B2ADF818000020ADF82D
:104B50001A000794ADF8200006A9144800F0ECF8FC
:104B60006020ADF804000120ADF806000020ADF88B
:104B7000100001A90D4800F033F808210B4800F09F
:104B80006DF80121094800F013F80121074800F0F1
:104B90001BF80021054800F017F80121034800F038
:104BA000C6F80BB030BD0000000002400004004019
:104BB00021B1028842F08002028004E002884FF6B0
:104BC0007F731A400280704721B1028842F00102CF
:104BD000028004E002884FF6FE731A40028070479C
:104BE00070B5002400220023058C4FF6FE76354078
:104BF0000584028C8388048B4FF68F752C40B51E7C
:104C00002C400D882C43751E2A408D892A434D88DF
:104C10002A43104DA84202D00F4DA84213D14FF69F
:104C2000F7752A40CD892A434FF6FB752A408D88B7
:104C30002A434FF6FF652B404FF6FF552B400D8A58
:104C40002B434D8A2B43838004838D684563028404
:104C500070BD000000000140000401400A46002130
:104C6000018B4FF6F7731940114301837047000021
:104C700070B5002400220023058C4FF6EF763540F6
:104C80000584028C8388048B48F6FF752C404FF610
:104C9000FF452C400D884FF6FF7606EA05252C438C
:104CA0004FF6DF752A408D8906EA05152A434D889F
:104CB00006EA05152A43154DA84202D0144DA84214
:104CC0001DD14FF67F752A40CD894FF6FF7606EA53
:104CD00005152A434FF6BF752A408D8806EA05154B
:104CE0002A434FF6FF352B404FF2FF752B400D8ABC
:104CF00006EA85052B434D8A06EA85052B4383800A
:104D000004838D688563028470BD0000000001404B
:104D1000000401400A460021018B4FF2FF73194045
:104D20004FF6FF7303EA022319430183704741637F
:104D3000704781637047000000220288184B984238
:104D40000ED0184B98420BD0B0F1804F08D0164BC4
:104D5000984205D0154B984202D0154B984204D189
:104D60004FF68F731A404B881A43124B984207D064
:104D7000114B984204D04FF6FF431A400B891A4357
:104D800002804B68C3620B880385054B984202D0B2
:104D9000044B984201D18B7A0386012383827047AA
:104DA00000000140000401400004004000080040F1
:104DB000000C0040001000400014004010B50446F4
:104DC0001CB12046FDF71DFC00B910BD7A2221461A
:104DD000FE48FBF7B3FDFD48808900EE100AF8EEAF
:104DE000400A9FEDFB1A80EE810A10EE100AF94985
:104DF000C1F80100F548C08900EE100AF8EE400A3B
:104E00009FEDF31A80EE810A10EE100AC1F805003A
:104E1000EE48008A00EE100AF8EE400A9FEDEC1A08
:104E200080EE810A10EE100AC1F80900E748408AB6
:104E300000EE100AF8EE400A9FEDE51A80EE810AB6
:104E400010EE100AC1F80D00E048808A00EE100A4A
:104E5000F8EE400A9FEDDE1A80EE810A10EE100A8D
:104E6000C1F81100D948C08A00EE100AF8EE400AD5
:104E70009FEDD71A80EE810A10EE100AC1F81500D6
:104E8000D248008B00EE100AF8EE400A9FEDD01ACF
:104E900080EE810A10EE100AC1F81900CB48408B51
:104EA00000EE100AF8EE400A9FEDC91A80EE810A62
:104EB00010EE100AC1F81D00C448808B00EE100AE5
:104EC000F8EE400A9FEDC21A80EE810A10EE100A39
:104ED000C1F82100BD48C08B00EE100AF8EE400A70
:104EE0009FEDBB1A80EE810A10EE100AC1F8250072
:104EF000B648008C00EE100AF8EE400A9FEDB41A96
:104F000080EE810A10EE100AC1F82900AF48408CEB
:104F100000EE100AF8EE400A9FEDAD1A80EE810A0D
:104F200010EE100AC1F82D00A848808C00EE100A7F
:104F3000F8EE400A9FEDA61A80EE810A10EE100AE4
:104F4000C1F85500A148C08C00EE100AF8EE400AE6
:104F50009FED9F1A80EE810A10EE100AC1F85900E9
:104F60009A48008D00EE100AF8EE400A9FED981A5C
:104F700080EE810A10EE100AC1F85D009348408D62
:104F800000EE100AF8EE400A9FED911A80EE810AB9
:104F900010EE100AC1F849008C48808D00EE100A0E
:104FA000F8EE400A9FED8A1A80EE810A10EE100A90
:104FB000C1F84D008548C08D00EE100AF8EE400A99
:104FC0009FED831A80EE810A10EE100AC1F851009D
:104FD0007E48008E00EE100AF8EE400A9FED7C1A23
:104FE00080EE810A10EE100AC1F83D007748408E2D
:104FF00000EE100AF8EE400A9FED751A80EE810A65
:1050000010EE100AC1F841007048808E00EE100AC0
:10501000F8EE400A9FED6E1A80EE810A10EE100A3B
:10502000C1F845006948C08E00EE100AF8EE400A4B
:105030009FED671A80EE810A10EE100AC1F8310068
:105040006248008F00EE100AF8EE400A9FED601AE9
:1050500080EE810A10EE100AC1F835005B48408FDF
:1050600000EE100AF8EE400A9FED591A80EE810A10
:1050700010EE100AC1F839005448808F00EE100A73
:10508000F8EE400A9FED521A80EE810A10EE100AE7
:10509000C1F861004D48C08F00EE100AF8EE400ADA
:1050A0009FED4B1A80EE810A10EE100AC1F86500E0
:1050B0004648B0F8400000EE100AF8EE400A9FEDB6
:1050C000441A80EE810A10EE100AC1F869003F48C8
:1050D000B0F8420000EE100AF8EE400A9FED3C1ACC
:1050E00080EE810A10EE100AC1F879003748B0F856
:1050F000440000EE100AF8EE400A9FED351A80EEEB
:10510000810A10EE100AC1F87D003048B0F8460060
:1051100000EE100AF8EE400A9FED2D1A80EE810A8B
:1051200010EE100AC1F881002848B0F8480000EEDF
:10513000100AF8EE400A9FED261A80EE810A10EE62
:10514000100AC1F86D002148B0F84A0000EE100ABC
:10515000F8EE400A9FED1E1A80EE810A10EE100A4A
:10516000C1F871001948B0F84C0000EE100AF8EED2
:10517000400A9FED171A80EE810A10EE100AC1F85E
:1051800075001248B0F84E0000EE100AF8EE400A22
:105190009FED0F1A80EE810A10EE100AC1F88D0003
:1051A0000A48B0F8500000EE100AF8EE400A9FEDF1
:1051B000081A80EE810A10EE100AC1F89100034827
:1051C000B0F8520000EE100A06E00000F4060020DD
:1051D0000000C8428F090020F8EE400A1FED041AB3
:1051E00080EE810A10EE100AC1F89500FDF7AEFCC2
:1051F00000BFEAE510B540F22441234800F07AFEF2
:10520000002840D0204800881F48001D00881F4803
:10521000FDF73BF9D8B900211C48FDF759F81B48A8
:10522000FDF72FF9C0F132001949087032201749F3
:10523000403948640846006C40F4002008640121AD
:105240001248FDF745F81348FEF788FC1BE00021E3
:105250000E48FDF73DF80D48FDF713F9C0F1320097
:105260000B49087032200949403948640846006CEF
:1052700020F40020086401210448FDF729F80548BE
:105280003230FEF76BFC10BD004C00404060024025
:1052900078000020FC11002010B5294800F0E4FE41
:1052A000C4B240F22441264800F024FE002845D034
:1052B00023480088224880882248FDF7E6F8F0B9A4
:1052C00000212048FDF704F81E48FDF7DAF8C0F188
:1052D00080001D49087080201A491039486108462D
:1052E000006940F40020086101211648FCF7F0FF36
:1052F0001548027815491648FBF7C9F81EE0002149
:105300001048FCF7E5FF0F48FDF7BBF8C0F180003F
:105310000D49087080200B49103948610846006922
:1053200020F40020086101210648FCF7D1FF06485F
:105330000278064980310648FBF7A9F810BD000045
:1053400000500040106002407900002090120020C0
:10535000AC06002010B596B0044601210220FFF7EC
:10536000EBF801218805FFF7E7F801211020FFF78E
:1053700013F9072211464548FDF73AFD14A8FDF739
:1053800067FD8020149002208DF8540000208DF8D5
:10539000550001208DF8570014A93C48FDF7E0FCAA
:1053A0003B4800F02FFD10A800F063FE1094002091
:1053B000ADF84400ADF84600ADF848000420ADF863
:1053C0004A000020ADF84C0010A9314800F0E2FD81
:1053D000012240212E4800F00BFD2E48FCF784FFEF
:1053E0006846FDF7FDF84FF0006000902848001D6A
:1053F000019029480290002003902D200490002065
:1054000005904FF4806006900020079008904FF4BC
:105410008070099000020A9000200B900C900D9073
:105420000E9069461B48FDF7ADF800221A491E315F
:105430001848FDF710F801211648FDF701F8012181
:105440001448FCF745FF25208DF83C0002208DF81C
:105450003D0000208DF83E0001208DF83F000FA890
:10546000FEF72EFD012240F22441094800F06CFDB8
:105470000121074800F0B0FC00221E21012003F0AA
:105480000DFC0649086016B010BD00000004024083
:1054900000100140886402403C0E00207000002093
:1054A00010B540F22441244800F024FD002841D0EA
:1054B00021480088204880882048FCF7E6FFE0B9B2
:1054C00000211E48FCF704FF1C48FCF7DAFFC0F17E
:1054D0001E001B4908701E201849091D0860081F7E
:1054E000006840F40020091F086001211348FCF700
:1054F000EFFE1448FEF7A6FF1CE000210F48FCF762
:10550000E7FE0E48FCF7BDFFC0F11E000C49087015
:105510001E200A49091D0860081F006820F40020A9
:10552000091F086001210548FCF7D2FE05481E301E
:10553000FEF788FF10BD00000010014088640240A3
:10554000740000203C0E002010B540F22441264893
:1055500000F0D0FC002845D0234800882248001DD8
:1055600000882248FCF791FFF0B900211F48FCF7A2
:10557000AFFE1E48FCF785FFC0F180001C49087093
:1055800080201A49091D086018488838D0F888001A
:1055900040F40020091F086001211448FCF798FE20
:1055A0001448FEF733FC1DE000211048FCF790FE84
:1055B0000E48FCF766FFC0F180000D49087080209E
:1055C0000A49091D086009488838D0F8880020F485
:1055D0000020091F086001210448FCF779FE0548F6
:1055E000FEF714FC10BD000000440040886002403B
:1055F00075000020FC0E002010B5A6B00446012165
:105600000220FEF799FF01214805FEF795FF0121D1
:105610008804FEF7A1FF07220A216048FDF7E8FB96
:1056200007220B215D48FDF7E3FB24A8FDF710FCE2
:105630004FF44060249002208DF8940003208DF8F0
:10564000950001208DF8970024A95448FDF788FBA8
:10565000534800F0D7FB20A800F00BFD2094002059
:10566000ADF88400ADF88600ADF888000C20ADF8E8
:105670008A000020ADF88C0020A9494800F08AFC7F
:1056800001224021464800F0B3FB0122802144481A
:1056900000F0AEFB4348FCF727FE10A8FCF7A0FF84
:1056A0004FF0006010903E48001D11903E4812904F
:1056B0000020139080201490002015904FF48060FB
:1056C00016900020179018904FF4807019900002E7
:1056D0001A9000201B901C901D901E9010A931481C
:1056E000FCF750FF0022304980312E48FCF7B3FE12
:1056F00001212C48FCF7A4FE01212A48FCF7E8FD13
:1057000027208DF87C0002208DF87D0000208DF888
:105710007E0001208DF87F001FA8FEF7D1FB01223B
:1057200040F224411E4800F00FFC01211C4800F00B
:1057300053FB01214805FEF7FFFE1A483030FCF705
:10574000D3FD00BF17483030FCF791FE0028F9D197
:105750004FF0006001901248001D02901348039022
:105760004020049080000590002006904FF4806057
:1057700007900020089009900A904FF480300B9019
:1057800000200C9003200D9000200E900F9001A996
:1057900004483030FCF7F6FE26B010BD000402408D
:1057A0000048004028600240FC100020FC0F002050
:1057B00010B540F22441294800F09CFB00284AD053
:1057C000264800882548001D00882548FCF75DFE16
:1057D00000BB00212248FCF77BFD2148FCF751FE6D
:1057E000C0F180001F49087080201D492839C86217
:1057F0000846806A40F40020886201211848FCF7BE
:1058000067FD184800787A2800D010BD1648FFF7C9
:10581000D5FA20E000211248FCF75AFD1048FCF7A9
:1058200030FEC0F180000F49087080200C492839F3
:10583000C8620846806A20F4002088620121084876
:10584000FCF746FD074800787A2800D0DDE70648D7
:105850008030FFF7B3FA00BFD7E7000000480040F0
:105860002860024077000020FC10002010B504469C
:105870001548007830B94FF0C0511448FCF710FEBD
:1058800000B910BD4FF0C0511048FCF707FD0122D0
:1058900080210F4800F0ACFA00210C48FCF718FDFD
:1058A00000BF0A48FCF7E3FD0028FAD1214607486B
:1058B000FCF794FE01210548FCF70AFD002002498F
:1058C000087000BFDDE7000076000020586002404D
:1058D0000048004010B596B0044601210420FEF7B0
:1058E0002BFE01214805FEF727FE0121C804FEF723
:1058F00033FE08220B214248FDF77AFA14A8FDF77F
:10590000A7FA4FF40060149002208DF85400002094
:105910008DF8550001208DF8570014A93848FDF77F
:105920001FFA384800F06EFA10A800F0A2FB10949D
:105930000020ADF84400ADF84600ADF84800042062
:10594000ADF84A000020ADF84C0010A92D4800F039
:1059500021FB012240212B4800F04AFA2A48FCF79B
:10596000C3FC6846FCF73CFE4FF000600090254801
:10597000001D0190254802900020039032200490E1
:10598000002005904FF4806006900020079008905A
:105990004FF48070099000020A9000200B900C9048
:1059A0000D900E9069461848FCF7ECFD002217494F
:1059B00032311548FCF74FFD01211348FCF740FD3B
:1059C00001211148FCF784FC34208DF83C000220B2
:1059D0008DF83D0000208DF83E0001208DF83F003D
:1059E0000FA8FEF76DFA012240F22441054800F0AD
:1059F000ABFA0121034800F0EFF916B010BD00002A
:105A000000080240004C004040600240FC110020B1
:105A100010B596B0044601210420FEF78DFD01214A
:105A20000820FEF789FD01214805FEF785FD0121CB
:105A30000805FEF791FD08220C214F48FDF7D8F923
:105A4000082202214D48FDF7D3F914A8FDF700FA0A
:105A50004FF48050149002208DF854008DF85500BA
:105A600001208DF8570014A94348FDF779F9042067
:105A7000149002208DF854008DF8550001208DF807
:105A8000570014A93D48FDF76BF93D4800F0BAF9FD
:105A900010A800F0EEFA10940020ADF84400ADF824
:105AA0004600ADF848000C20ADF84A000020ADF8E3
:105AB0004C0010A9324800F06DFA01224021304814
:105AC00000F096F92F48FCF70FFC6846FCF788FDBC
:105AD0004FF0006000902A48001D01902A48029073
