:020000040800F2
:1000000050700020550200085D3A0008D930000801
:100010006D3800085D0E00087D63000800000000D8
:100020000000000000000000000000009D0100082A
:100030004D24000800000000F10100087D46000882
:100040006F0200086F0200086F0200086F020008CC
:100050006F0200086F0200086F0200086F020008BC
:100060006F0200086F0200086F020008811F00087D
:100070006F0200086F0200086F0200086F0200089C
:100080006F0200086F0200086F020008511000089C
:10009000750F00086F0200086F0200086F02000869
:1000A0006F0200086F0200086F0200086F0200086C
:1000B0006F0200086F0200086F0200086F0200085C
:1000C0006F0200086F0200086F0200086F0200084C
:1000D0006F020008955000083D510008A553000824
:1000E0006F0200086F0200086F0200086F0200082C
:1000F0006F0200086F0200086F0200086F0200081C
:100100006F0200086F0200086F0200086F0200080B
:10011000E94D00088D4E00086F0200086F020008CC
:100120006F0200086F0200086F0200086F020008EB
:100130006F0200086F0200086F02000895100008A7
:100140006D1000086F0200086F0200086F020008BF
:100150006F0200086F0200086F0200081D590008B6
:100160006F0200086F0200086F0200086F020008AB
:100170006F0200086F0200086F0200086F0200089B
:100180006F0200086F020008DFF80CD000F078FD65
:1001900000480047B56B0008507000202A4B1968D2
:1001A0000868B0E8F04F80F30988BFF36F8F4FF015
:1001B000000080F3118870470000000006480068C6
:1001C000006880F3088862B661B6BFF34F8FBFF353
:1001D0006F8F00DF00BF00BF08ED00E0DFF80C000C
:1001E000016841F470010160704700BF88ED00E0D4
:1001F000EFF30980BFF36F8F134B1A681EF0100FD7
:1002000008BF20ED108A20E9F04F106008B44FF0CD
:10021000500080F31188BFF34F8FBFF36F8F08F04A
:1002200003FA4FF0000080F3118808BC19680868D1
:10023000B0E8F04F1EF0100F08BFB0EC108A80F34A
:100240000988BFF36F8F7047A8000020EFF3058087
:10025000704700000648804706480047FEE7FEE773
:10026000FEE7FEE7FEE7FEE7FEE7FEE7FEE7FEE766
:100270008D4600088901000810B5044600BF00BF84
:1002800000BF00BF002CFDD000BF00BF00BF002991
:10029000FDD000BF00BF00BF002AFDD000BF00BFDF
:1002A00000BF002BFDD000BF72B6216002FB03101F
:1002B000401E6060A3600020E06022746161A16163
:1002C00062B6002010BD2DE9F04104460D4600261F
:1002D000002700BF00BF002CFDD000BF00BF00BF43
:1002E000002DFDD000BF1C2006F082FC064616B98A
:1002F0000020BDE8F08104FB05F006F079FC07461C
:100300000FB90020F5E72B46224639463046FFF765
:10031000B3FF3046EDE710B5044600BF00BF002C28
:10032000FDD000BF00BF00BF20680028FCD000BF88
:10033000206806F085FB204606F082FB10BD0346D0
:1003400000BF00BF00BF00BF002BFDD000BF00BF3B
:1003500000BF0029FDD000BF00BF00BF002AFDD0B4
:1003600000BF72B619608818401E58609A6000205D
:10037000D8601961596162B60020704770B50446B3
:100380000025002600BF00BF002CFDD000BF1820B4
:1003900006F02EFC05460DB9002070BD204606F083
:1003A00027FC06460EB90020F7E7224631462846CC
:1003B000FFF7C5FF2846F0E710B5044600BF00BFB1
:1003C000002CFDD000BF00BF00BF20680028FCD07B
:1003D00000BF206806F034FB204606F031FB10BD5C
:1003E00030B5024600230C4600BF00BF00BF00BF6F
:1003F000002AFDD000BF00BF00BF0029FDD000BF14
:10040000906810B94FF0FF3030BD002310E0556800
:100410009069A84201D91068906114F8010B9569A0
:10042000287072B69069401C906162B6581CC3B2C5
:10043000107C9842EBDC72B69068401E9060D068E9
:10044000401CD06062B60020DEE7024600BF00BF5D
:1004500000BF00BF002AFDD000BF906810B94FF068
:10046000FF30704772B650695368984201D91068DE
:100470005061506901705069401C50619068401E85
:100480009060D068401CD06062B60020E9E770B58B
:1004900003460C46002500BF00BF00BF00BF002B75
:1004A000FDD000BF986810B94FF0FF3070BD00213B
:1004B00019E0986810B94FF0FF3516E072B65E6823
:1004C0005869B04201D918685861605C5E69307043
:1004D0005869401C58619868401E9860D868401C54
:1004E000D86062B6491C9142E3D300BF2846DDE7DD
:1004F00030B5024600230C4600BF00BF00BF00BF5E
:10050000002AFDD000BF00BF00BF0029FDD000BF02
:10051000D06810B94FF0FF3030BD002310E05568AF
:100520005069A84201D9106850615069007804F8F8
:10053000010B72B65069401C506162B6581CC3B2C0
:10054000107C9842EBDC72B69068401C9060D068DA
:10055000401ED06062B60020DEE70146002000BFEA
:1005600000BF00BF00BF0029FDD000BF72B60A69FE
:100570004B689A4201D90A680A610A6910780A69C7
:10058000521C0A618A68521C8A60CA68521ECA607C
:1005900062B6704770B5024600230C4600BF00BF2C
:1005A00000BF00BF002AFDD000BF00BF00BF002970
:1005B000FDD000BFD06810B94FF0FF3070BD72B6EB
:1005C000167CD068401E556906FB00501568451B17
:1005D000D2E90060801B401CB5FBF0F600FB165012
:1005E000156828445061D2E90250401E28449060AA
:1005F0000120D06062B6002310E055685069A8421F
:1006000001D9106850615069007804F8010B72B686
:100610005069401C506162B6581CC3B2107C9842AD
:10062000EBDC72B69068401C9060D068401ED060D1
:1006300062B60020C2E710B50146002000BF00BF2F
:1006400000BF00BF0029FDD000BF72B6D1E9033260
:100650001A44521E0B68D31AD1E90042121B521CD5
:10066000B3FBF2F402FB14320B681A440A610A6904
:100670001078D1E902231A448A600022CA6062B667
:1006800010BD70B503460C46154600222E460021CB
:1006900000BF00BF002BFDD000BF00BF00BF002D7A
:1006A000FDD000BFD868A04202D84FF0FF3070BD27
:1006B0005969002206E05868884200D21968491C2E
:1006C000501CC2B2187C60439042F4DC002209E066
:1006D0005868884200D21968087806F8010B491C4E
:1006E000501CC2B2187C9042F2DC0020DFE710B54B
:1006F00002460B460024002100BF00BF002AFDD0A7
:1007000000BF1169002406E05068884200D21168D9
:10071000491C601CC4B29C42F6DB087810BD01463F
:1007200000BF00BF0029FDD000BFC86808B9012084
:1007300070470020FCE7014600BF00BF0029FDD044
:1007400000BFC86808B9012070470020FCE70146D7
:1007500000BF00BF0029FDD000BF886808B9012094
:1007600070470020FCE7014600BF00BF0029FDD014
:1007700000BF886808B9012070470020FCE70146E7
:1007800000BF00BF0029FDD000BFC8687047014608
:1007900000BF00BF0029FDD000BFC86870470146F8
:1007A00000BF00BF0029FDD000BF88687047014628
:1007B00000BF00BF0029FDD000BF88687047014618
:1007C00000BF00BF00BF00BF0029FDD000BF72B650
:1007D000D1E90020801A0A7C90FBF2F088600020AA
:1007E000C860086848610868886162B60020704780
:1007F000014600BF00BF00BF00BF0029FDD000BF01
:1008000072B6D1E90020801A88600020C8600868AC
:1008100008610868486162B6002070479FED460A8B
:1008200080ED000A9FED440A80ED010A9FED420A27
:1008300080ED070A9FED400A80ED080A9FED3E0A11
:1008400080ED090A9FED3C0A80ED0D0A704790ED9E
:10085000030A80ED020A90ED000AD0ED010A30EEA5
:10086000600A80ED030A90ED040AD0ED030A20EE41
:10087000200A80ED070A90ED080AD0ED050A90EDF8
:10088000031A00EE810A80ED080A90ED030AD0ED0C
:10089000020A30EE600AD0ED060A20EE200A80ED52
:1008A000090A90ED080AD0ED0B0AF1EE600AB4EEE9
:1008B000E00AF1EE10FA06D890ED0B0AB1EE400A0C
:1008C00080ED080A0CE090ED080AD0ED0B0AB4EEBA
:1008D000E00AF1EE10FA03DB90ED0B0A80ED080A56
:1008E00090ED070AD0ED080A30EE200AD0ED090A93
:1008F00030EE200A80ED0D0A90ED0D0AD0ED0E0AC3
:10090000F1EE600AB4EEE00AF1EE10FA06D890EDCE
:100910000E0AB1EE400A80ED0D0A0CE090ED0D0AD2
:10092000D0ED0E0AB4EEE00AF1EE10FA03DB90ED22
:100930000E0A80ED0D0A70470000000040EA010336
:100940009B0703D009E008C9121F08C0042AFAD285
:1009500003E011F8013B00F8013B521EF9D2704749
:10096000D2B201E000F8012B491EFBD270470022F1
:10097000F6E710B513460A4604461946FFF7F0FF9E
:10098000204610BD421C10F8011B0029FBD1801A23
:1009900070472DE9FE4F81EA030404F0004421F082
:1009A000004100944FF0000B23F0004350EA010493
:1009B0005ED052EA03045BD0C3F30A54C1F30A5574
:1009C0002C44A4F2F3340194A0FB0254C1F31301AC
:1009D00041F48011C3F3130343F4801301FB024479
:1009E00000FB034E840A970A44EA815447EA83577E
:1009F000A4FB076802958D0A05FB07854FEA932C37
:100A000004FB0C542705029D4FEA065847EA1637A7
:100A1000B5EB08056EEB070C870E920E47EA8117BF
:100A200042EA8312A7FB0201B6EB0B0164EB000460
:100A30002B0D43EA0C335E1844EB1C50DA4651464A
:100A4000E7FB0201C5F313044FEA0B3343EA1453E7
:100A50004FEA0432019C43EA0603A4F10C04029419
:100A6000009CCDE900B400F0BDF803B0BDE8F08F04
:100A700000200146F9E70EB5C10F80EAE070084496
:100A8000CA07002140F233438DE80E000A460B46A8
:100A900000F0A8F803B000BD00F0004230F00040C4
:100AA0000AD0C10D01F56071C0F3160042EA015190
:100AB000C20840071143704700200146704701F00B
:100AC000004330B421F0004150EA010206D00A0D83
:100AD000A2F56072C1F31301002A02DC30BC0020D1
:100AE0007047440F44EAC104C100E01830BC00EB79
:100AF000C25000F031B82DE9F05F05460020924663
:100B00009B4688460646814640241BE028464146CF
:100B10004746224600F0D5F853465A46C01A91413E
:100B200010D311461846224600F0BCF82D1A67EB88
:100B300001084F4622460120002100F0B3F817EBD0
:100B400000094E41201EA4F10104DFDC4846314675
:100B50002A464346BDE8F09F0029A8BF7047401CC5
:100B6000490008BF20F00100704710B4B0FA80FCC3
:100B700000FA0CF050EA010404BF10BC704749B100
:100B8000CCF1200421FA04F411FA0CF118BF012170
:100B900021430843A3EB0C01CB1D4FEA00614FEA50
:100BA000102042BF002010BC704700EBC35010441F
:100BB0000029A4BF10BC7047401C490008BF20F0AA
:100BC000010010BC704710B5141E73F1000408DA60
:100BD000401C41F1000192185B411A4301D120F001
:100BE000010010BD2DE9F04D92469B4611B1B1FABE
:100BF00081F202E0B0FA80F22032904600F052F822
:100C000004460F4640EA0A0041EA0B0153465A46A1
:100C1000084313D0114653EA010019D0C8F140022D
:100C2000504600F04EF805460E465046594642469C
:100C300000F038F8084305D0012004E0204639468A
:100C4000BDE8F08D0020054346EAE0762C433743AB
:100C50000A986305E40AA0EB08000022FD0A44EAB2
:100C600047540A3002D500200146E9E70105101972
:100C70006941DDE9084500196941BDE8F04DA2E789
:100C8000064C074D06E0E06840F0010394E80700D9
:100C900098471034AC42F6D3FFF77AFAD49800089C
:100CA000F4980008202A04DB203A00FA02F1002020
:100CB00070479140C2F1200320FA03F3194390409A
:100CC0007047202A04DB203A21FA02F00021704705
:100CD00021FA02F3D040C2F12002914008431946A4
:100CE000704708B501F03EFF00901EE00121684604
:100CF00007F030FA01F036FF00F0030008B900F009
:100D000061F801F02FFF6421B0FBF1F201FB12004A
:100D100008B902F0FBFC01F025FFC821B0FBF1F29D
:100D200001FB120008B902F04FFCDFE770B5054681
:100D30000C4600260DB1022C00D870BDA11E4FF646
:100D4000FF72284601F01CFF0646A01E2E54310AF1
:100D5000601E295400BFF0E770B505460C4600261A
:100D60000DB1022C00D870BD611E054802782846DE
:100D700001F020FF0646601E2E5400BFF3E700007E
:100D8000D09500081CB50121022003F0CFF94FF4E3
:100D90000040009001208DF8040000208DF806002E
:100DA00003208DF8050002208DF8070069460448ED
:100DB00001F057FE4FF40041014801F0C6FE1CBD92
:100DC0000004024010B5002406E001200749086035
:100DD0003C2007F085F9641C054800688442F4DB78
:100DE0000020024908600249086010BDBC824042F0
:100DF0006400002002200149086070476400002060
:100E000010B54FF4407002F067FEA82005F0F6FC24
:100E1000104804F099F84FF4E12004F0E7F94FF49A
:100E2000E13004F051FB4FF4E13004F0EBFB0A48F1
:100E300004F0C2FC00F014F802F036FC01F082FD70
:100E4000FFF7A0FF02F08AFD02F012FB462001F03E
:100E500059FD10BDA086010020A1070000BFFEE7DC
:100E600000B58BB00121084603F060F90121480666
:100E700003F06CF909220B213C4801F03AFE0922EB
:100E80000C213A4801F035FE4FF4C0500290022088
:100E90008DF80C0002A9354801F0E3FD14208DF80F
:100EA000040000208DF8050001208DF806008DF863
:100EB000070001A802F0D4FD13208DF804000020E3
:100EC0008DF8050002208DF8060001208DF807003E
:100ED00001A802F0C5FD264800F066F908A800F058
:100EE0009EFB00208DF826008DF827008DF8280045
:100EF0008DF829008DF82A0001208DF82B000020A4
:100F00008DF822008DF8230008208DF8240003209E
:100F10008DF82500ADF8200008A9154800F07DFAED
:100F200000208DF81A008DF81B0001208DF81C00A0
:100F30000020ADF81000ADF81200ADF81400ADF8C7
:100F40001600ADF8180001208DF81D0004A800F06F
:100F500047F901220221064800F056FA0122114603
:100F6000034800F051FA0BB000BD00000000024041
:100F70000064004000B585B00221314800F0B4F9AA
:100F800000285AD004212E4800F0BAF86A46002101
:100F90002B4800F0CCFA0098A0F2012006284AD293
:100FA000DFE800F0030E1A26323D0DF10B01254853
:100FB00002F0E6FF24480068401C234908603BE03B
:100FC0000DF10B011F48103002F0DAFF1E48406897
:100FD000401C1D4948602FE00DF10B0119482030DD
:100FE00002F0CEFF18488068401C1749886023E053
:100FF0000DF10B011348303002F0C2FF1248C068F7
:10100000401C1149C86017E00DF10B010F4802F0B8
:10101000DBFF0D480069401C0B4908610CE00DF135
:101020000B010A48183002F0CFFF07484069401C06
:101030000549486100E000BF00BF05B000BD0000E9
:1010400000640040800800203C010020C00800200F
:1010500010B50121044800F047F918B101210248F8
:1010600000F04EF810BD00000064004000B585B0EF
:101070000221074800F038F940B10221044800F08D
:101080003FF86A460021024800F051FA05B000BD61
:101090000068004010B50121044800F025F918B19E
:1010A0000121024800F02CF810BD0000006800404B
:1010B00000B585B04FF4E060009000208DF8080086
:1010C0008DF8090008208DF80A0000208DF80B002B
:1010D00000218DF80C108DF80D108DF80E108DF884
:1010E0000F108DF810108DF811108DF81210694640
:1010F000024800F0A4FA05B000BD00000064004002
:10110000B1F5007F3AD00FDC202928D006DC012978
:101110001CD004291DD0082940D11DE0402921D030
:10112000B1F5807F3AD126E0B1F5004F31D006DC31
:10113000B1F5806F25D0B1F5006F2FD124E0B1F566
:10114000803F12D0B1F5003F28D111E0154A8260EE
:1011500025E00822C26022E01022C2601FE00822BF
:1011600002611CE01022026119E00822426016E0D0
:101170001022426013E00422426010E00422426028
:101180000DE0042242600AE00022826104224260F3
:1011900005E0002282610422426000E000BF00BF3F
:1011A000704700000101010010B504460B4884425D
:1011B00009D10121480602F0D9FF00214FF000704B
:1011C00002F0D4FF08E00121880602F0CFFF0021E1
:1011D0004FF0806002F0CAFF10BD000000640040C4
:1011E00010B50021837A012202FA03F13D4A126808
:1011F00042F001023B4B1A603A4A1C3212688A43A1
:10120000384B1C331A60027BCAB9364A0C3212685A
:101210008A43344B0C331A604288C38842EA034342
:10122000304A4032847A42F834300288838842EA75
:1012300003432C4A4032847A02EBC4025360027B9F
:10124000012A19D1274A0C3212680A43254B0C3364
:101250001A604288038842EA0343224A4032847A71
:1012600042F83430C288838842EA03431D4A403240
:10127000847A02EBC4025360C27A3AB9194A121D49
:1012800012688A43174B1B1D1A6006E0154A121D8F
:1012900012680A43134B1B1D1A60028932B9114AA6
:1012A000143212688A430F4B14331A600289012AE0
:1012B00006D10C4A143212680A430A4B14331A60DE
:1012C000427B012A06D1074A1C3212680A43054BA9
:1012D0001C331A60034A126822F00102014B1A60A3
:1012E00010BD00000066004070B504460D460026A3
:1012F00060692840002871D0B5F5807F5CD010DC93
:10130000082D35D006DC012D20D0022D24D0042D4F
:1013100072D127E0102D31D0202D35D0402D6BD14A
:1013200038E0B5F5004F60D009DCB5F5007F49D055
:10133000B5F5806F4CD0B5F5006F5DD14FE0B5F5D8
:10134000803F2DD0B5F5003F56D12FE0A0682D4944
:1013500000F01CFC064651E0E068032100F016FC9A
:1013600006464BE0E068082100F010FC064645E028
:10137000E068102100F00AFC06463FE020690321E6
:1013800000F004FC064639E02069082100F0FEFB6D
:10139000064633E02069102100F0F8FB06462DE0F8
:1013A0006068082100F0F2FB064627E06068102123
:1013B00000F0ECFB064621E0A069012100F0E6FB0D
:1013C00006461BE0A069022100F0E0FB064615E09E
:1013D000A069042100F0DAFB06460FE00FE0A069E7
:1013E000702100F0D3FB064608E06068042100F09D
:1013F000CDFB064602E0FFE7002600BF00E0002626
:10140000304670BD010101001AB143690B434361CD
:1014100002E043698B434361704730B502460020C8
:101420000023146824F002041460146844F00104DA
:10143000146000E05B1C546804F001041CB94FF612
:10144000FF74A342F6D1546804F001040CB90020E3
:101450006CE08C79012C04D1146844F08004146091
:1014600003E0146824F080041460CC79012C04D1CA
:10147000146844F04004146003E0146824F040044D
:1014800014600C7A012C04D1146844F02004146018
:1014900003E0146824F0200414604C7A012C04D179
:1014A000146844F01004146003E0146824F010047D
:1014B00014608C7A012C04D1146844F00804146080
:1014C00003E0146824F008041460CC7A012C04D1E1
:1014D000146844F00404146003E0146824F0040465
:1014E00014608C78A407CD7844EA05640D7944EA49
:1014F00005444D7944EA05540D886D1E2C43D46192
:10150000146824F001041460002300E05B1C54689C
:1015100004F001041CB14FF6FF74A342F6D15468E5
:1015200004F001040CB1002000E0012030BD10B532
:1015300000F5D87303EB01131B6803F00403137267
:10154000137A53B900F5D87303EB01131B6840F20B
:10155000FF7404EA5353136009E000F5D87303EBFA
:1015600001131B686FF0604404EAD303536000F575
:10157000D87303EB01131B6803F00203537200F5E9
:10158000D87303EB01135B6803F00F03937200F54C
:10159000D87303EB01135B681B0AD37400F5D8738F
:1015A00003EB01139B68D37200F5D87303EB0113AF
:1015B0009B681C0A147300F5D87303EB01139B6836
:1015C0001C0C547300F5D87303EB01139B681B0EBE
:1015D000937300F5D87303EB0113DB68D37300F545
:1015E000D87303EB0113DB681C0A147400F5D8737D
:1015F00003EB0113DB681C0C547400F5D87303EB88
:101600000113DB681B0E937421B9C36843F02003F8
:10161000C36003E0036943F02003036110BD0021B0
:101620008171C171017241728172C1728170C17028
:10163000032101710221417101210180704710B520
:1016400002460020936803F08063B3F1806F00D1FD
:1016500010E0936803F00063B3F1006F01D1012043
:1016600008E0936803F08053B3F1805F01D102205A
:1016700000E00420042874D002F5C07303EB0013CB
:101680001B6803F0010402F5C07303EB00131C6038
:101690000B7A7BB94B7A0C8843EA445302F5C07449
:1016A00004EB00142468234302F5C07404EB001417
:1016B000236010E00B7A4C6843EAC4034C7A23435E
:1016C00002F5C07404EB00142468234302F5C074CF
:1016D00004EB001423608B7A03F00F038B7202F586
:1016E000C07303EB00135B6823F00F0402F5C073B3
:1016F00003EB00135C6002F5C07303EB00135B683F
:101700008C7A234302F5C07404EB001463608B7B76
:101710001C064B7B44EA03440B7B44EA0323CC7A4C
:10172000234302F5C07404EB0014A3608B7C1C06F9
:101730004B7C44EA03440B7C44EA0323CC7B2343E5
:1017400002F5C07404EB0014E36002F5C07303EB10
:1017500000131B6843F0010402F5C07303EB001390
:101760001C6010BD08B501F0FDF9009029E00121D1
:10177000684606F0EFFC012005F00CF838B101F0E6
:10178000F1F900F00300E0B900F0C8F819E0022018
:1017900005F000F810B101F0F1FF12E0032004F0B1
:1017A000F9FF40B100231A461946184602F0E0FE40
:1017B000FFF720FB05E000231A461946184602F001
:1017C000D7FED4E708B501F0CDF900900DE0012176
:1017D000684606F0BFFC01F0C5F900F0030020B92F
:1017E0000248007808B100F031F8F0E73800002036
:1017F00001F0B8F91349086003220021012007F025
:1018000081F8114908601CE000235A1E19460E4851
:10181000006807F0B1F801F0A5F90A490968401A13
:10182000B0F5FA6F06D901F09DF90649086001F09C
:101830000FF806E00023642219460348006807F009
:101840009BF8E1E7340000203000002070B521480B
:10185000D0ED021AB0EE611AD0ED011AF0EE610A75
:10186000D0ED001AB0EE610A1B4804F049FF1A4D92
:10187000103D95ED030ABDEEC00A10EE105A2BB2D2
:10188000154D103D95ED020ABDEEC00A10EE105A3E
:101890002AB2114D103D95ED010ABDEEC00A10EEC1
:1018A000105A29B20C4D103D95ED000ABDEEC00A4C
:1018B00010EE105A28B202F05BFEF0EE000AB0EE15
:1018C000000A064802F0D6F9BDEEC00A10EE104A32
:1018D00070BD0000E006002074010020B80E00205A
:1018E000054890ED090ADFED050A30EE600A04486C
:1018F00080ED000A70470000C0080020000080450D
:10190000C0060020034890ED020A034880ED000A5B
:101910007047000024010020D006002010B52DEDF6
:10192000028B4A48007808B900F0A8F847480078C8
:10193000012804D19FED460A464880ED020A464838
:10194000007868BB454890ED000ADFED450A30EEAF
:10195000600ADFED440A80EE201AB0EE000A21EEA4
:10196000000AB0EE408A404804F0FEFF394880ED9E
:10197000000A3A4890ED010ADFED390A30EE600ABC
:10198000DFED380A80EE201AB7EE080A21EE000AD1
:10199000B0EE408A354804F0E7FF2E4880ED010A9A
:1019A0002D48007801284ED13148407828B1B7EE53
:1019B000080A304880ED010A0DE02D48407928B131
:1019C000BFEE080A2B4880ED010A04E09FED200AD3
:1019D000284880ED010A2648007928B1B8EE000AAF
:1019E000244880ED000A0DE02148807928B1B0EE4E
:1019F000000A204880ED000A04E09FED150A1D480A
:101A000080ED000A1A48807B38B11948407820B12F
:101A10009FED190A174880ED010A1648D0ED000A1B
:101A2000B0EE600A104804F09FFF0A4880ED000AFB
:101A30001048D0ED010AB0EE600A0C4804F094FFA3
:101A4000044880ED010ABDEC028B10BD3900002076
:101A500000000000E00600203C000020500F0020A5
:101A600000008044000025446815002078150020FF
:101A7000A40F0020EC060020478E574010B53748D1
:101A80000078012822D135488078F8B99FED340AD2
:101A9000344880ED000A90ED000A334804F064FFFA
:101AA0003148406800EE900A304890ED001ADFEDB2
:101AB000301A31EE611AB0EE410A9FED2E1A2E480F
:101AC00000F0E6F82D4880ED020A45E02348007852
:101AD00018BB2248807801281FD19FED290A214890
:101AE00080ED000A90ED000A1F4804F03DFF1E48FB
:101AF000406800EE900A1D4890ED001ADFED1C1AB8
:101B000031EE611AB0EE410A9FED1A1A1A4800F040
:101B1000BFF81A4880ED020A1EE09FED1A0A11482C
:101B200080ED000A90ED000A0F4804F01DFF0E48FA
:101B3000406800EE900A0D4890ED001ADFED0C1A97
:101B400031EE611AB0EE410A9FED0F1A0A4800F01B
:101B50009FF80A4880ED020A10BD0000A40F002083
:101B6000000096C45400002088150020C008002002
:101B70000000804500C05A45280D0020E0060020E6
:101B8000000096440000000000E0AB450246002043
:101B900002EA01030BB1012000E0002070470000C1
:101BA00010B500F0DFFF044611480068201AB0F5B8
:101BB000AF6F1BD90F4890ED020A0F4880ED000A65
:101BC00001F06EFCDFED0D0A9FED0D0A0D4804F0EB
:101BD000FBFEDFED0D0A9FED0A0A0C4804F0F4FE4F
:101BE00005200B49087000200A49087010BD00004C
:101BF0004000002024010020D00600202CF9C53D23
:101C00000AD7233B68150020295C8F3D78150020FA
:101C10003B0000203900002010B500F0A3FF04466F
:101C200011480068201AB0F5C87F1BD90F4890ED05
:101C3000020A0F4880ED000A01F032FCDFED0D0AC8
:101C40009FED0D0A0D4804F0BFFEDFED0D0A9FED7C
:101C50000A0A0C4804F0B8FE05200B490870002061
:101C60000A49087010BD0000400000202401002037
:101C7000D00600202CF9C53D0AD7233B681500206B
:101C8000295C8F3D781500203B00002039000020A2
:101C900010B52DED048B0446B0EE408AF0EE608A5C
:101CA000B0EE419A18EE900A206018EE100A6060BB
:101CB00019EE100AA0632046FEF7B0FD606B00EE3F
:101CC000100ABDEC048B10BDDFED263A13EE901A1E
:101CD0000160DFED243A13EE901A4160DFED213A06
:101CE00013EE901A8160DFED1F3A13EE901AC16077
:101CF00010EE101AC16310EE901A016411EE101A62
:101D00004164DFED183A13EE901AC161DFED153A28
:101D100013EE901A0162DFED133A13EE901A41624E
:101D200011EE901A816212EE101AC16212EE901A30
:101D30000163DFED0C3A13EE901A416313EE101AB3
:101D40008163DFED083A13EE901AC163DFED053AC7
:101D500013EE901A0164DFED033A13EE901A41641A
:101D6000704700000000000000B59FED6F3ADFED06
:101D70006F2A9FED6E2ADFED6E1A9FED6E1ADFED72
:101D80006D0A9FED6C0A6C48FFF79EFF9FED663A67
:101D9000DFED662A9FED652ADFED651A9FED651A76
:101DA000DFED640A9FED630A6448FFF78DFF9FED46
:101DB0005E3ADFED5E2A9FED5D2ADFED5D1A9FED55
:101DC0005D1ADFED5C0A9FED5B0A5D48FFF77CFF63
:101DD0009FED553ADFED552A9FED542ADFED541A59
:101DE0009FED541ADFED530A9FED520A5548FFF755
:101DF0006BFF9FED553ADFED552A9FED552ADFED3C
:101E0000551A9FED4C1ADFED4B0A9FED4A0A5248D6
:101E1000FFF75AFF9FED4C3ADFED4C2A9FED4C2A1D
:101E2000DFED4C1A9FED431ADFED420A9FED410AA8
:101E30004A48FFF749FF9FED443ADFED442A9FED02
:101E4000442ADFED441A9FED3B1ADFED3A0A9FED7D
:101E5000390A4348FFF738FF9FED3B3ADFED3B2A55
:101E60009FED3B2ADFED3B1A9FED321ADFED310A81
:101E70009FED300A3B48FFF727FF9FED333ADFED38
:101E8000332A9FED332ADFED331A9FED2A1ADFED57
:101E9000290A9FED280A3448FFF716FF9FED223AE2
:101EA000DFED222A9FED212ADFED211A9FED211A75
:101EB000DFED200A9FED1F0A2C48FFF705FF9FED7D
:101EC000223ADFED2B2A9FED2A2ADFED291A9FED1A
:101ED000191ADFED180A9FED170A2648FFF7F4FEDE
:101EE0009FED193ADFED222A9FED212ADFED201A1E
:101EF0009FED101ADFED0F0A9FED0E0A1E48FFF747
:101F0000E3FE9FED093ADFED1A2A9FED192ADFED76
:101F1000181A9FED081ADFED070A9FED060A174809
:101F2000FFF7D2FE00BD00000000FA450000FA44B1
:101F30000000804600000000580A0020A80A002087
:101F4000F80A0020480B00200040834500007A4535
:101F500000803B4500A08C45980B0020E80B00203A
:101F6000380C0020880C0020D80C0020280D002000
:101F700000409C45C80D0020780D0020180E002060
:101F800010B50549054800F031F918B10449034876
:101F900000F008F810BD0000208000101060024022
:101FA000200000100246094B9A4201D2084801E085
:101FB0000648103801F000531BB1064B0B40C360BC
:101FC00002E0044B0B408360704700001064024045
:101FD000006002407D0F7D0F21B1026842F00102D6
:101FE000026003E0026822F0010202607047000014
:101FF000016821F001010160002101604160816000
:10200000C1600161212141614A49884204D13D21D9
:10201000484A103A91608CE046491831884205D10F
:102020004FF47461434A103A916082E04149303183
:10203000884205D14FF474113E4A103A916078E01D
:102040003C494831884205D14FF07461394A103A11
:1020500091606EE037496031884204D13649354A93
:10206000103AD16065E033497831884204D1334970
:10207000304A103AD1605CE02E499031884204D158
:102080002F492C4A103AD16053E02A49A83188429E
:1020900005D14FF03D51274A103AD16049E0294916
:1020A000884204D13D21274A083A116041E0254980
:1020B0001831884205D14FF47461224A083A116000
:1020C00037E020493031884205D14FF474111D4A60
:1020D000083A11602DE01B494831884205D14FF084
:1020E0007461184A083A116023E016496031884249
:1020F00004D11149134A121F11601AE011497831B5
:10210000884204D10D490F4A121F116011E00D4998
:102110009031884204D10A490A4A121F116008E02E
:102120000849A831884204D14FF03D51054A121F99
:1021300011607047106002403D000020400F0020F9
:1021400000003D201064024021B1026842F4802268
:10215000026003E0026822F480220260704722B12C
:10216000036843F40023036003E0036823F40023BF
:10217000036001617047014600200A6802F0010215
:102180000AB1012000E0002070470146486880B293
:102190007047014600200A6802F400220AB10120BB
:1021A00000E000207047000030B503460A460020DA
:1021B00000240B4DAB4201D20A4901E00849103915
:1021C00002F000550DB14C6800E00C68064D2C4043
:1021D00004EA02050DB1012000E0002030BD00003E
:1021E00010640240006002407D0F7D0F70B5024612
:1021F000002000240025124EB24201D2114B01E012
:102200000F4B103B104E0E4036B11E2606EAD1246D
:10221000166806EA040502E0566906F0800501F03A
:1022200000560EB15C6800E01C68084E344004EAB9
:10223000010616B10DB1012000E0002070BD0000C4
:1022400010640240006002403C0F3C0F7D0F7D0F88
:1022500010B501F080034BB122B1436943F0800314
:10226000436103E0436923F08003436180290BD07D
:102270002AB1036801F01E042343036004E00368ED
:1022800001F01E04A343036010BD000010B500223E
:102290000268134B1A40CC680B6823434C692343F4
:1022A0008C692343CC6923430C6A23434C6A234340
:1022B0008C6A23434C6B23438C6B23431A43026089
:1022C000426922F00702D1E90B3423431A434261E9
:1022D0000B6943604B6883608B68C36010BD00006E
:1022E0003F801CF0416070470021016041608160C7
:1022F000C160016141618161C161016241628162CC
:10230000C162016341638163704730B5044625466D
:102310000C21284604F052F848B1B5F8090000F144
:102320000E01284604F02CF808B1012030BD002031
:10233000FCE7000070B5A8B0032004F059F8FF24B2
:10234000002604F0A5FB044614B9002028B070BD97
:10235000601EC4B2194800EBC426002507E02946D8
:10236000304605F025FB01A94855681C85B29B2D18
:10237000F5D39B2201A91248FEF7E0FA1048007835
:1023800058280DD10E4890F89A00582808D19B2261
:102390000B490C48FEF7D2FA0BA004F031F80BE021
:1023A0000EA004F02DF858200549087081F89A0015
:1023B00000F04EFA0020C9E70120C7E700000E0830
:1023C000BB09002020090020464C415348CAFDBEED
:1023D000DDD0A3D1E9CDA8B9FD0A0000464C415398
:1023E00048CAFDBEDDD0A3D1E9CAA7B0DC2CD5FD1B
:1023F000D4DAD6D8D0C2D0B4C8EBCDB7CEB2C3DC15
:10240000C2EB0A000288A2F58062002A07DD02887A
:10241000A2F580628A4202DA9FED0B0A70470288B9
:10242000A2F58062002A08D50288A2F580624B429C
:102430009A4202DD9FED040AF0E7028800EE102ABE
:10244000B8EE400AEAE70000000080447047000050
:1024500000BF00BFD0ED000AC0ED010A80ED000A08
:10246000D0ED000A90ED011A70EEC10AC0ED030A2A
:10247000D0ED030A9FED121AF4EEC10AF1EE10FA44
:1024800003D24169491C41610BE0D0ED030A9FED85
:102490000D1AF4EEC10AF1EE10FA02DD4169491E8F
:1024A000416190ED001A41694FF4B472514300EE5E
:1024B000901AF8EEE00A71EE200AC0ED020A7047A9
:1024C000000066C3000066430149086070470000D1
:1024D0000C3C024070B504460A460026092502B9A4
:1024E00009E0012A01D1160205E0022A01D11602F3
:1024F00001E04FF4407600F09DF80546092D28D103
:102500001548006820F440701349086008460068C8
:10251000304308600846006820F0F800086008466C
:10252000006844F0020108430B490860084600684F
:1025300040F48030086000F07DF8054606480068E9
:1025400020F00200044908600846006820F0F80006
:102550000860284670BD0000103C02400920134965
:10256000096801F48031B1F5803F01D101201CE000
:102570000E49096801F0100109B1062015E00B4968
:10258000096801F4807109B102200EE00749096869
:1025900001F0EF0109B1072007E00449096801F0E3
:1025A000020109B1082000E0092070470C3C0240FC
:1025B0000348006840F0004001490860704700008F
:1025C000103C024030B502460C46092500F032F8B6
:1025D0000546092D17D10D48006820F440700B49BD
:1025E00008600846006808600846006840F001007E
:1025F0000860147000F01EF805460448006820F0DA
:10260000010002490860284630BD0000103C02402D
:102610000548006800F0004028B1044802490C3920
:102620000860034808607047103C0240230167457A
:10263000AB89EFCD08B509200090FFF78FFF009020
:1026400002E0FFF78BFF00909DF800000128F8D012
:102650009DF8000008BD000010B54FF461710448FA
:1026600002F05FF94FF46171014802F05CF910BDAE
:102670000008004010B540F6FC01044802F051F992
:1026800040F6FC01014802F04EF910BD0008004080
:1026900010B50021014802F091F810BD000400407F
:1026A00010B50121014802F089F810BD0004004076
:1026B00010B5FFF73FFE10B101F018FA17E00CA0BB
:1026C00003F09EFE40F6B83004F0BAF800BFBFF346
:1026D0004F8F1148006800F4E06010490843001D66
:1026E0000D490860BFF34F8F00BF00BFFEE710BD6C
:1026F000504944CAFDBEDDB3F6B4EDA3A1A3A1A326
:10270000A1C8FDC3EBD6D3BAF3D6D8C6F4A3A1A310
:10271000A1A3A10A000000000CED00E00000FA05F2
:1027200010B59FED3D0A10EE100A3C4908613C4887
:10273000D0ED000A9FED3B1A70EEC10AB0EE600AC0
:102740009FED391ADFED390A0846FFF7A1FAB1EE1D
:10275000400A374880ED020A90ED021AF0EE410A75
:102760003448B0F90C0001EE100AB8EEC11AB0EE10
:10277000410A9FED311A3148FFF78AFAB1EE400A5B
:102780002B4880ED010A9FED290A2D4880ED000AB3
:1027900000F0CCFF2A4890ED001AF0EE410A2048E4
:1027A00090ED091ADFED1F1A31EE611AB0EE410A01
:1027B0009FED241A2448FFF76BFA214880ED020AA6
:1027C00090ED021AF0EE410A1A48B0F9080001EE45
:1027D000100AB8EEC11AB0EE410A9FED171A1B4855
:1027E000FFF756FA164880ED010A024692ED010AFB
:1027F000B1EE400ABDEEC00A10EE102A11B20C4A2A
:1028000092ED010AB1EE400ABDEEC00A10EE102AA8
:1028100010B201F0DFFE10BD3333333FD80C00207F
:10282000C00800200000804500000C4300000000AC
:10283000D0060020A815002000408345380C002059
:10284000C006002000005243E80B0020980B002037
:1028500070B5A8B01EA003F0D3FDFF25002604F03C
:1028600017F905463E2D08DD582003F073FF08B127
:10287000002502E0002028B070BD1A4800EBC526F4
:10288000FFF7C6FE9B22184901A8FEF757F800245F
:102890000AE001A8025D2146304605F051FF08B963
:1028A0000020E8E7601C84B29B2CF2D3FFF780FE87
:1028B000052003F09DFD9B220B490C48FEF73EF8D6
:1028C00001F014F90AA003F09BFD0120D3E70000FA
:1028D000666C617368D0B4C8EBD6D0A3A1A3A1A3E2
:1028E000A1A3A10000000E08BB09002020090020C0
:1028F000666C617368D0B4C8EBCDEAB1CFA3A1A375
:10290000A100000070B506460324002509E020461A
:1029100001F086FD304603F093FF6006040E681C4C
:10292000C5B2032DF3DB002508E0204601F078FD59
:10293000304603F085FF6410681CC5B2052DF4DB3A
:1029400070BD000000B58BB00121042001F0FEFB3A
:102950000121082001F0EAFB02220C21314800F09D
:10296000C8F802220D212F4800F0C3F84FF4405060
:10297000099002208DF8280003208DF829000020FE
:102980008DF82A0001208DF82B0009A9254800F0B8
:1029900068F85320ADF818000020ADF81A0040F692
:1029A000C31007900020ADF8200006A91E4801F0D2
:1029B000BDFF7020ADF804000120ADF80600022034
:1029C000ADF8100001A9184801F004FF08211648CD
:1029D00001F03EFF0121144801F0E4FE01211248FC
:1029E00001F0ECFE01A9104801F03CFF08210E485F
:1029F00001F08AFF01210C4801F0D4FE01210A48B0
:102A000001F0DCFE4FF46171074801F08AFF4FF4DA
:102A10006171054801F087FF4FF4FA7003F010FF71
:102A20000BB000BD000C02400008004008B500F0EB
:102A300099F8009014E00121684605F08BFB00F046
:102A400091F8002003F09AFE20B10021084601F021
:102A5000C1FD05E0012003F091FE08B100F0BCF8D3
:102A6000E9E7F0B50A4600210023002400BF3DE05D
:102A7000012505FA01F3156805EA03049C4234D1E7
:102A800005684F000326BE40B543056015794E002A
:102A9000B5400668354305601579012D02D01579DA
:102AA000022D16D185684F000326BE40B5438560D0
:102AB00055794E00B54086683543856045680126E6
:102AC0008E40B5434560456896798E40B6B2354331
:102AD0004560C5684F000326BE40B543C560D57943
:102AE0004E00B540C6683543C560491C1029BFD3A8
:102AF000F0BDF0B5002300244D07ED0E02FA05F3FA
:102B0000CE1000F1200555F826504E07F70E0F267F
:102B1000BE40B543CF1000F1200646F82750CE1036
:102B200000F1200555F8265045EA0304CE1000F1C7
:102B3000200545F82640F0BD0246002013690B40F1
:102B40000BB1012000E000207047418370470183F2
:102B500070474FF6FF710160002101714171817171
:102B6000C171704710B506F08BFA012802D006F04B
:102B700097FA10BD01480068FBE700002C00002018
:102B800030B5034613B94FF6FF7030BD09E013F8B6
:102B9000014B82EA0400C0B2054D35F8100080EA0E
:102BA0002222081EA1F10101F1D11046EDE700003B
:102BB000D296000830B5034605E013F8010B80EA11
:102BC00002040448025D081EA1F10101F5D110467E
:102BD00030BD0000D195000810B50E4800780528DA
:102BE00001D100F019F80B48007808B900F0F0F9AD
:102BF00008480078042803D1FFF792FDFEF7D0FFC4
:102C000004480078032803D100F04EF9FFF704F8D8
:102C100010BD00003B00002010B52DED068B914843
:102C2000007800287DD1904890ED020ADFED8F0AF0
:102C300030EE600A10EE101A0846FDF72DFF41EC49
:102C40001A0B9FED8B0B53EC102BFDF7A2FE41EC02
:102C5000190BFDF734FF08EE100A8748D0F81B0067
:102C600000EE100A8548D0ED001A30EE210ADFEDA3
:102C7000841A30EE210AB0EE401A7F48D0F81B00CB
:102C800000EE100A7D48D0ED001A30EE610ADFED4B
:102C90007C1A30EE610AF0EE400AB0EE480A03F00A
:102CA000A7FE784880ED030A90ED000AD0ED030AF4
:102CB00030EE200A80ED000A6B4890ED030ADFED4C
:102CC0006B0A30EE600A10EE101A0846FDF7E4FEBB
:102CD00041EC1A0B9FED6C0B53EC102BFDF759FEDA
:102CE00041EC190BFDF7EBFE08EE100A634890ED7E
:102CF000060AB1EE400AF3EE041A30EE610AB0EEB5
:102D0000401A90ED060AB1EE400AFBEE041A30EECE
:102D1000210AF0EE400AB0EE480A03F069FE5C4872
:102D200000E009E080ED030A90ED000AD0ED030A0F
:102D300030EE600A80ED000A4A480078012878D118
:102D40005449B1F90A00FDF796FE41EC1A0B9FEDCC
:102D5000520B53EC102BFDF71CFE41EC190BFDF749
:102D6000AEFE08EE100A4448D0F81B0000EE100A30
:102D70004248D0ED001A30EE210ADFED411A30EE64
:102D8000210AB0EE401A3C48D0F81B0000EE100AB1
:102D90003A48D0ED001A30EE610ADFED391A30EE14
:102DA000610AF0EE400AB0EE480A03F021FE354811
:102DB00080ED030A90ED000AD0ED030A30EE200A00
:102DC00080ED000A3349B1F90C00FDF754FE41ECE7
:102DD0001A0B9FED330B53EC102BFDF7DAFD41EC92
:102DE000190BFDF76CFE08EE100A244890ED060A58
:102DF000B1EE400AF3EE041A30EE610AB0EE401A6A
:102E000090ED060AB1EE400AFBEE041A30EE210AFC
:102E1000F0EE400AB0EE480A03F0EAFD1C4880EDEF
:102E2000030A90ED000AD0ED030A30EE600A80ED4F
:102E3000000A174A92ED010AB1EE400ABDEEC00A3F
:102E400010EE102A11B20F4A92ED010AB1EE400ABB
:102E5000BDEEC00A10EE102A10B201F0BBFBBDECB3
:102E6000068B10BD3C000020500F00200000804465
:102E7000FCA9F1D24D62403FA8150020C0080020F7
:102E800000007042D00600207B14AE47E17A843FF8
:102E9000C0060020900F0020FCA9F1D24D62703FC7
:102EA000B81E85EB51B8BE3F10B59FED3C0A10EE41
:102EB000100A3B4908613B48D0ED000A9FED3A1AE1
:102EC00070EEC10AB0EE600A9FED381ADFED380AE5
:102ED0000846FEF7DDFEB1EE400A364880ED020AF4
:102EE00090ED021AF0EE410A3348B0F90C0001EE01
:102EF000100AB8EEC11AB0EE410A9FED301A304800
:102F0000FEF7C6FEB1EE400A2A4880ED010A9FEDA9
:102F1000280A2C4880ED000A00F008FC2148D0ED7A
:102F2000090A9FED211A70EEC10AB0EE600A9FED0A
:102F30001F1ADFED1F0A2448FEF7AAFE214880ED84
:102F4000020A90ED021AF0EE410A1B48B0F908009F
:102F500001EE100AB8EEC11AB0EE410A9FED171A41
:102F60001A48FEF795FE174880ED010A024692EDD9
:102F7000010AB1EE400ABDEEC00A10EE102A11B2ED
:102F80000C4A92ED010AB1EE400ABDEEC00A10EE05
:102F9000102A10B201F01EFB10BD00003333333F86
:102FA000D80C0020C00800200000804500007043BD
:102FB00000000000D0060020A81500200040834536
:102FC000380C0020C0060020E80B0020980B0020E1
:102FD00010B5FFF7C7FD0A21B0FBF1F201FB1200AB
:102FE000E8B93148D0ED020AB0EE600A9FED2F1A21
:102FF000DFED2F0A2F48FEF74BFE2F4880ED020A27
:103000002948D0ED010AB0EE600A9FED2C1ADFEDE1
:10301000280A2B48FEF73CFE2A4880ED020A294880
:1030200090ED021AF0EE410A2748B0F90C0001EECB
:10303000100AB8EEC11AB0EE410A9FED241A2448D6
:10304000FEF726FEB1EE400A1E4880ED010A1A483E
:1030500090ED021AF0EE410A1B48B0F9080001EEAB
:10306000100AB8EEC11AB0EE410A9FED181A1948BD
:10307000FEF70EFE104880ED010A024692ED010AAD
:10308000B1EE400ABDEEC00A10EE102A11B20D4A90
:1030900092ED010AB1EE400ABDEEC00A10EE102A10
:1030A00010B201F097FA10BD181300200000C843B9
:1030B00000000000C80D0020C006002000004843AA
:1030C000780D0020D0060020A81500200040834580
:1030D000380C0020980B002000BFFEE710B5134805
:1030E0000078E0B91248006800EE100AB5EEC00A98
:1030F000F1EE10FA11DDFFF7D3FADC2004F0F0FF57
:103100000B48006800EE100AF7EE000A30EE600A85
:1031100010EE100A0649086001E0FFF7B9FA03480B
:103120000078012801D1FFF7BBFA10BD3D00002057
:103130004C00002010B52D480078002855D12C48AF
:103140000078032851D12B48007802284DD12A4815
:1031500090ED000ADFED290AB4EEE00AF1EE10FA74
:1031600043DD90ED010ADFED260AB4EEE00AF1EE50
:1031700010FA3AD22348007818B9FFF7F3FC224935
:10318000086020480078401C1E49087008460078F6
:10319000042817D1FFF7E6FC1B490968401A40F6DE
:1031A000B831884208D200201649087001F09EF814
:1031B00016A003F025F905E000201249087019A0B7
:1031C00003F01EF9FFF7CEFC0F490968401A40F6DC
:1031D000B831884209D90B480078042805DA002064
:1031E000084908700FA003F00BF910BD380000204B
:1031F000600F0020780F0020500F00200000B24424
:1032000000001C444800002044000020BDF8D0D03D
:10321000D2BBB4CED0A3D7BC50D6E159D6E1D0A30F
:10322000D7BC0000D0A3D7BCB3ACCAB1000000002B
:1032300010B50C48407C28B90B48407C012801D1CE
:103240000A4908700748407C012809D10648407C9B
:1032500030B9032006490870FFF784FC054908606F
:1032600010BD0000600F0020780F00203900002002
:103270003B0000204000002010B5074800780128DE
:1032800002D101F0D3F905E0FFF7E6F90021034888
:1032900001F094FA10BD0000380000200004004046
:1032A00010B51248407C012808D111480078012847
:1032B00004D100200F4908700F4908700D480078AC
:1032C00098B90E48C07C012802D10D48C07C10B1CD
:1032D0000748007848B9FEF715FBFEF701FB05200B
:1032E0000449087000200449087010BD900F0020A8
:1032F000181300203B00002039000020600F002040
:10330000780F002010B520484078012812D11F48BE
:10331000407803280ED101201D4908701D4908700E
:1033200005201D49087001201C490870FFF71AFC90
:103330001B4908601B48808C40B100BF134840788F
:10334000032803D10220124908700CE00F4840788E
:10335000012808D10E480078032804D000200C4929
:1033600008700C49087009484078032803D10020F0
:103370000D49087006E005484078022802D1012076
:103380000949087010BD0000600F0020780F002070
:10339000380000203A0000203B00002039000020C7
:1033A000400000203C0100203C00002010B51948DE
:1033B000007D012804D11848007D08B9FDF778FE8A
:1033C0001448407D012815D11348407D002811D1B3
:1033D00012A000F0FFFC15A000F0FCFC16A000F00D
:1033E000F9FC18A000F0F6FC1AA000F0F3FC1CA0F9
:1033F00000F0F0FC0748C07D012809D10648C07DD7
:1034000030B958201949087081F89A00FFF720FA5E
:1034100010BD0000780F0020600F0020535441546D
:103420005F4A554447455F7461736B00434841539D
:1034300049535F7461736B0047494D42414C5F745F
:1034400061736B00434F4E434C5544455F74617349
:103450006B000000414E4F5F44545F7461736B001A
:103460004155585F7461736B00000000BB09002078
:103470001CB50121102000F059FE0F200090002003
:103480008DF8040003208DF8050001208DF8070059
:1034900069460248FFF7E5FA1CBD00000010024033
:1034A000054890ED090ADFED050A30EE600A044890
:1034B00080ED000A70470000C00800200000804531
:1034C000C006002001F0400212B10122027001E0AA
:1034D0000022027001F0010212B10122427001E0EB
:1034E0000022427001F0800212B10122827001E0DC
:1034F0000022827001F4807212B10122C27001E0D8
:103500000022C27001F0040212B10122027101E036
:103510000022027101F0020212B10122427101E0A7
:103520000022427101F0080212B10122827101E011
:103530000022827101F4007212B10122C27101E015
:103540000022C27101F4806212B10122027201E014
:103550000022027201F4006212B10122427201E003
:103560000022427201F4805212B10122827201E003
:103570000022827201F4005212B10122C27201E0F3
:103580000022C27201F4804212B10122027301E0F2
:103590000022027301F4004212B10122427301E0E1
:1035A0000022427301F0100212B10122827301E085
:1035B0000022827301F0200212B10122C27301E0E5
:1035C0000022C2737047000031480078002812DDE5
:1035D0003048006808B9012000E000202D4908604B
:1035E0002B480078401E2A4908700846007810B918
:1035F00001202849086028480078002815DD254862
:10360000001F006808B9012000E000202149091FBF
:10361000086021480078401E1F490870084600785D
:1036200018B901201B49091F08601C4800780028B0
:1036300015DD18480838006808B9012000E00020AE
:1036400014490839086015480078401E134908706D
:103650000846007818B901200E490839086010485A
:103660000078002812DD0F48006808B9012000E04A
:1036700000200C4908600A480078401E084908707C
:103680000846007810B9012006490860704700001C
:103690005800002098024242590000205A000020A1
:1036A0005B000020B40241421CB50121142000F04F
:1036B0003DFD4FF40050009001208DF804000020E3
:1036C0008DF8060003208DF8050069460A48FFF7CB
:1036D000C8F97020009069460848FFF7C2F9012038
:1036E000074908600749C1F8900207490860054981
:1036F000C1F898021CBD0000000802400010024002
:10370000B40241420000424294024242054800781D
:1037100080F00100034908700846007802490860FB
:103720007047000068000020B402414290ED000A9A
:10373000F3EE040AB4EEE00AF1EE10FA03DDB3EEA4
:10374000040A80ED000A90ED000AFBEE040AB4EED4
:10375000E00AF1EE10FA03D2BBEE040A80ED000A93
:103760007047000010B500231A4619460248006849
:1037700005F03EFA10BD0000300000209FED060A63
:10378000064880ED000A9FED040A80ED010A9FEDD6
:10379000020A80ED020A704700000000E0060020E7
:1037A00010B504462078FF2803D000202D4908706A
:1037B00010BD6079A0B900202A4908709FED2A0A3F
:1037C000084680ED010A9FED280A80ED020A9FED70
:1037D000260A80ED080A9FED240A80ED090AE7E732
:1037E0000120204908706078A17840EA012000B2E9
:1037F00000EE100AB8EEC00AB1EE400AF2EE040A7A
:1038000080EE201A174880ED011AE078217940EA0D
:10381000012000B200EE100AB8EEC00AF2EE040A6F
:1038200080EE201A0F4880ED021A6079A17940EAF3
:10383000012000B200EE100AB8EEC00A094880ED7F
:10384000050AE079217A40EA012000B200EE100A70
:10385000B8EEC00A034880ED040AFDF7CBFA00BFBA
:10386000A6E70000181300200000000000BFFEE7DC
:1038700010B53348407A032810D13248807C0128A3
:1038800003D02F48007A022804D101212E4800F0ED
:1038900095FF03E000212C4800F090FF2848407A73
:1038A00002284CD12948007810BB2648807C01288A
:1038B0001ED12748807CD8B92648006800EE100A3F
:1038C000F7EE000A30EE200A10EE100A21490860D7
:1038D0000846006800EE100AF2EE040AB4EEE00AB0
:1038E000F1EE10FA04DDB2EE020A10EE100A0860E2
:1038F0001448807C012810D11448007868B9154814
:103900004068401C1349486008464068E62804D9CE
:103910000020486001200D4908700C4800780128FB
:103920000DD10848807C50B90020084908709FEDEF
:103930000A0A10EE100A074908600020486010BD0E
:10394000900F0020780F0020000400403D00002070
:10395000600F00204C000020000000001CB5012179
:10396000084600F0E3FBA020009001208DF8040041
:1039700000208DF8060003208DF8050001208DF849
:10398000070069460848FFF76CF820210648FFF752
:10399000DEF880210448FFF7DAF84FF47A7114203A
:1039A00000F0A8FE1CBD00000000024010B5044657
:1039B000102221462548FCF7C1FF244890ED010A5A
:1039C000B8EEC00ADFED220A20EE600A10EE100AFF
:1039D0002049C1F817001D4890ED000AB8EEC00A52
:1039E000DFED1B0A20EE200A10EE100AC1F81300CA
:1039F000164890ED030AB8EEC00ADFED150A20EE76
:103A0000600ABDEEC00A10EE100A01B21148018131
:103A10000E4890ED020AB8EEC00ADFED0D0A20EE66
:103A2000200ABDEEC00A10EE100A01B209488181D9
:103A3000D0F8170000EE100A0748FEF709FD064807
:103A400080680449C1F81B0010BD00004815002023
:103A50000AD7233CA815002024010020704700004D
:103A600070B5002100230F22C4781CB3174C2468C2
:103A700004F4E064C4F5E064C4F30721C1F1040474
:103A8000E3B20A4144789C40E1B284781440214377
:103A90000C07210E0E4C05786155047804F01F05C3
:103AA0000124AC4005786D11AD0005F1E025C5F8A5
:103AB000004109E0047804F01F050124AC40054DE5
:103AC0000678761145F8264070BD00000CED00E048
:103AD00000E400E080E100E002490143024A116095
:103AE000704700000000FA050CED00E05448D0F8E3
:103AF0000100544908615248D0F805004861504817
:103B0000D0F8090088614E48D0F80D004E49086190
:103B10004B48D0F8110048614948D0F81500886139
:103B20004748D0F81900494908614548D0F81D00B8
:103B300048614348D0F8210088614148D0F8250009
:103B4000434908613E48D0F8290048613C48D0F814
:103B50002D0088613A48D0F855003E490861384840
:103B6000D0F8590048613648D0F85D008861344883
:103B7000D0F8550008613248D0F859004861304803
:103B8000D0F85D0088612E48D0F8490032490861BC
:103B90002B48D0F84D0048612948D0F85100886181
:103BA0002748D0F83D002D4908612548D0F841004C
:103BB00048612348D0F8450088612148D0F8310099
:103BC000274908611E48D0F8350048611C48D0F8E4
:103BD000390088611A48D0F8610022490861184804
:103BE000D0F8650048611648D0F86900886114482B
:103BF000D0F879001C4908611148D0F87D0048616F
:103C00000F48D0F8810088610D48D0F86D00174941
:103C100008610B48D0F8710048610948D0F8750078
:103C200088610748D0F88D00114908610448D0F830
:103C3000910048610248D0F8950088617047000003
:103C400020090020580A0020A80A0020F80A0020B5
:103C5000480B0020980B0020E80B0020380C0020B7
:103C6000880C0020280D0020C80D0020780D0020B1
:103C7000180E0020B0EE401AF0EE601A90ED070A20
:103C8000B0EE402A90ED090AF0EE400A90ED080AE5
:103C9000F0EE402A90ED020A80ED010A90ED030A51
:103CA00080ED020A31EEC10AF2EE043A20EE230A58
:103CB00080ED030A32EE220A30EE200AD0ED033AFC
:103CC00020EE230AB0EE004AF0EE423A44EE203AEB
:103CD00090ED024A03EEC40AD0ED013A00EEA30AC9
:103CE000B0EE403A90ED0A0A30EE030A80ED0A0A7F
:103CF00090ED0A0AD0ED0B3AB4EEE30AF1EE10FAB9
:103D000003DD90ED0B0A80ED0A0A90ED0A0AD0ED72
:103D10000C3AB4EEE30AF1EE10FA03D290ED0C0A7D
:103D200080ED0A0A90ED0A0A7047000010B5FEF710
:103D30001BF8DFED1C0A9FED1C0A1C4802F044FE34
:103D4000DFED1B0A9FED1B0A1B4802F03DFEDFED75
:103D50001B0A9FED180A1A4802F036FEDFED190A19
:103D60009FED140A184802F02FFEDFED180A9FEDB0
:103D70000D0A174802F028FE01F004FDFEF798FC3A
:103D800000F0AAFA002003F029FE012003F014FE3F
:103D9000002002F0F3FC002003F014FE002003F0EA
:103DA00017FE10BD0AD7A33C6F12833A58150020A6
:103DB0002CF9C53D6F12833B68150020295C8F3DAF
:103DC000781500209A99193E88150020CDCC4C3EDC
:103DD0009815002030B589B0044618A002F010FBF9
:103DE000204605F0EFF805460523012269462846DE
:103DF00004F0A4FA20A0019902F002FB25A0029988
:103E000002F0FEFA9DF80C1029A002F0F9FA2FA09A
:103E1000049902F0F5FA34A0059902F0F1FA39A0FC
:103E2000079902F0EDFABDF820103EA002F0E8FA82
:103E300043A002F0E5FA09B030BD00002F2A2A2A7B
:103E40002A2A2A2A2A2A2A2A2A2A2A2A2A2A2A2AD2
:103E50002A2A2AC8CECEF1D0C5CFA22A2A2A2A2AB7
:103E60002A2A2A2A2A2A2A2A2A2A2A2A2A2A2A2AB2
:103E70002A2A2A2A2F0D0A00C8CECEF1C3FB3A20E7
:103E8000202020202020202020202020202020252D
:103E9000730D0A00C8CECEF1B1E0BAC53A20202099
:103EA000202020202020202020202025640D0A0012
:103EB000C8CECEF1D7B3CCAC3A2020202020202091
:103EC0002020202020202025640D0A00C8CECEF11D
:103ED000B5B1C7B0D3C5CFC8BCB63A20202020208A
:103EE00020202025640D0A00C8CECEF1BBF9D3C531
:103EF000CFC8BCB63A20202020202020202020251A
:103F0000640D0A00C8CECEF1B6D1D5BBBBF9B5D889
:103F1000D6B73A20202020202020202523780D0A03
:103F200000000000C8CECEF1B6D1D5BBC0FACAB7EA
:103F3000CAA3D3E0D7EED0A1D6B53A25640D0A00C6
:103F40002F2A2A2A2A2A2A2A2A2A2A2A2A2A2A2ACC
:103F50002A2A2A2A2A2A2A2A2A2A2ABDE1CAF82A09
:103F60002A2A2A2A2A2A2A2A2A2A2A2A2A2A2A2AB1
:103F70002A2A2A2A2A2A2A2A2A2A2F0D0A00000057
:103F8000428802804A780B7842EA03224280CA784B
:103F90008B7842EA032212B28280B0F9042000EE4C
:103FA000102AB8EEC00ADFED070A20EE200A80EDE5
:103FB000030A4A790B7942EA032212B2C2808A7953
:103FC000027270470A01DA3930B504460D46687846
:103FD000297840EA0120A080144AD2F8892000EE16
:103FE000102ABCEEC00A10EE102A91B2A28810B2BC
:103FF00003F0E0FD00EE100AB8EEC00ADFED0C0A97
:1040000020EE200A84ED000A0A4890ED030A84EDB0
:10401000020A90ED000A84ED030A90ED030AD0ED48
:10402000020A30EE600A84ED040A30BDBB090020AC
:1040300000000000C008002010B504462078617818
:1040400040EA0120C0F30A00354908806078C010BA
:10405000A17840EA4110C0F30A0031494880A078B5
:104060008011E17840EA8100217940EA8120C0F3A3
:104070000A002B49888020794010617940EAC110FC
:10408000C0F30A002649C8806079001180080872D0
:104090006079C0F301104872A079E17940EA01200B
:1040A00000B21F494881207A617A40EA012001B2BA
:1040B0001B488181A07AE17A40EA012001B21848C8
:1040C000C181217B0174617B4174A07BE17B40EA6B
:1040D00001201349488232211148FEF793F9114813
:1040E00080ED000A32210E48801CFEF78BF90D4846
:1040F00080ED010A32210A48001DFEF783F90948C4
:1041000080ED020A32210648801DFEF77BF9054842
:1041100080ED030A0248418A0348FFF7D3F910BD36
:10412000900F0020500F0020A40F002029B1064A54
:1041300012680243044B1A6004E0034A1268824387
:10414000014B1A60704700003038024029B1064A1E
:1041500012680243044B1A6004E0034A1268824367
:10416000014B1A60704700004038024029B1064AEE
:1041700012680243044B1A6004E0034A1268824347
:10418000014B1A60704700002038024029B1064AEE
:1041900012680243044B1A6004E0034A1268824327
:1041A000014B1A60704700004438024029B1064AAA
:1041B00012680243044B1A6004E0034A1268824307
:1041C000014B1A607047000024380240F0B500210E
:1041D00000220024022500260223324F3F6807F008
:1041E0000C0121B1042905D0082937D105E02E4F53
:1041F000076036E02D4F076033E02A4F3F1F3F68CE
:10420000C7F38056274F3F1F3F6807F03F036EB14B
:10421000264FB7FBF3F7DFF88CC0ACF1040CDCF8E9
:1042200000C0CCF3881C07FB0CF40CE01E4FB7FB5E
:10423000F3F7DFF870C0ACF1040CDCF800C0CCF38D
:10424000881C07FB0CF4174F3F1F3F68C7F301475B
:104250007F1C7D00B4FBF5F7076002E0124F07609A
:1042600000BF00BF0F4F3F6807F0F0010909104F72
:104270007A5C0768D74047600A4F3F6807F4E0510F
:10428000890A0B4F7A5C4768D7408760054F3F68C3
:1042900007F46041490B064F7A5C4768D740C76016
:1042A000F0BD0000083802400024F40000127A003B
:1042B0007700002008B5FEF755FC009009E00121C9
:1042C000684603F047FFFEF74DFCA521014803F0C7
:1042D00089FCF4E7D00100204FF480600249088097
:1042E00048808880C8807047900F002010B50C4827
:1042F000808B00EE100AB8EE400A10EE100A094951
:10430000C1F885000648808800EE100AB8EE400A21
:1043100010EE100AC1F88900FFF724FA10BD000062
:10432000C0080020BB09002010B5182223492448EA
:10433000FCF704FB2348007A204908702148407AA2
:1043400048702148C07B48741E48407C08B1012059
:1043500000E000201949C8741A48007C08B1012007
:1043600000E000201549887401211848FEF7E4FB9D
:1043700008B9012000E00020104908750221134807
:10438000FEF7DAFB08B9012000E000200B49487570
:1043900004210E48FEF7D0FB08B9012000E0002000
:1043A0000649887508210948FEF7C6FB08B90120AF
:1043B00000E000200149C87510BD0000780F002002
:1043C000600F0020900F0020A40F0020001002407A
:1043D00008B5FEF7C7FB009007E00121684603F02F
:1043E000B9FEFEF7BFFBFEF779FEF6E708B5FEF76C
:1043F000B9FB009013E00121684603F0ABFEFEF725
:10440000B1FBFFF791FFFEF77DFFFEF735FFFEF7EB
:1044100047FFFEF70DFFFEF7C9FFFEF78BFEEAE749
:1044200000F0010119B10021144A116002E00121DC
:10443000124A116000F0020119B10021104A116006
:1044400002E001210E4A116000F0040121B10021B7
:104450000B4A121F116003E00121094A121F11606B
:1044600000F0080121B10021054A083A116003E07B
:104470000121034A083A116070470000B40241422A
:10448000980242420CB50020019000903448006828
:1044900040F480303249086000BF3148006800F4C1
:1044A000003000900198401C0190009818B90198C4
:1044B000B0F5A04FF1D12A48006800F4003010B1E7
:1044C0000120009001E0002000900098012846D1D2
:1044D00023484030006840F0805021494031086056
:1044E0002048006840F440401E4908601C480830DD
:1044F00000681B49083108600846006840F4004025
:1045000008600846006840F4A05008601648091F7B
:104510000860081F006840F08070091F086000BF35
:104520000F48006800F000700028F9D040F20570D4
:104530000E4908600A480830006820F00300084966
:10454000083108600846006840F00200086000BFBB
:1045500003480830006800F00C000828F8D10CBDB2
:10456000003802400070004008544007003C024000
:10457000F0B585B004460D4616461F464FF4007050
:10458000009000208DF808008DF8090008208DF8B3
:104590000A00200A8DF80B00E1B28DF80C10290AF0
:1045A0008DF80D10E9B28DF80E10310A8DF80F104C
:1045B000F1B28DF81010390A8DF81110F9B28DF89A
:1045C000121069460248FDF73AF805B0F0BD000048
:1045D0000064004030B585B004460D4640F2FF103F
:1045E000009000208DF808008DF8090008208DF853
:1045F0000A00200A8DF80B00E1B28DF80C10290A90
:104600008DF80D10E9B28DF80E1000218DF80F1005
:104610008DF810108DF811108DF8121069460248AF
:10462000FDF70DF805B030BD0064004010B5084836
:10463000007A032803D00648007A022804D1FEF746
:1046400019F8FFF715F901E0FEF706F810BD0000B4
:10465000900F0020042808D14FF0E021096941F0B3
:1046600004014FF0E022116107E04FF0E0210969F9
:1046700021F004014FF0E0221161704710B504F001
:10468000FFFC012801D004F023F910BD10B5154836
:10469000006840F47000134908601348006840F057
:1046A00001001149086000200F49083108600E48D8
:1046B00000680E4908400C4908600D48091D086053
:1046C000081F006820F48020091F086000200649A8
:1046D0000C310860FFF7D6FE4FF0006001498039C9
:1046E000086010BD88ED00E000380240FFFFF6FED4
:1046F0001030002430B58BB004460D460121022055
:10470000FFF724FD01210846FFF710FD02220621D4
:104710002248FEF7EEF94020099002208DF828008B
:1047200003208DF8290000208DF82A0001208DF843
:104730002B0009A91948FEF794F9A8B2ADF81800A2
:104740000020ADF81A000794ADF8200006A914481F
:1047500000F0ECF86020ADF804000120ADF8060090
:104760000020ADF8100001A90D4800F033F8082131
:104770000B4800F06DF80121094800F013F8012101
:10478000074800F01BF80021054800F017F8012148
:10479000034800F0C6F80BB030BD00000000024036
:1047A0000004004021B1028842F08002028004E04F
:1047B00002884FF67F731A400280704721B1028849
:1047C00042F00102028004E002884FF6FE731A40B4
:1047D0000280704770B5002400220023058C4FF63C
:1047E000FE7635400584028C8388048B4FF68F75E6
:1047F0002C40B51E2C400D882C43751E2A408D89F7
:104800002A434D882A43104DA84202D00F4DA8429A
:1048100013D14FF6F7752A40CD892A434FF6FB7521
:104820002A408D882A434FF6FF652B404FF6FF55EF
:104830002B400D8A2B434D8A2B43838004838D6844
:104840004563028470BD0000000001400004014087
:104850000A460021018B4FF6F7731940114301837B
:104860007047000070B5002400220023058C4FF62D
:10487000EF7635400584028C8388048B48F6FF75FB
:104880002C404FF6FF452C400D884FF6FF7606EA88
:1048900005252C434FF6DF752A408D8906EA05155C
:1048A0002A434D8806EA05152A43154DA84202D031
:1048B000144DA8421DD14FF67F752A40CD894FF681
:1048C000FF7606EA05152A434FF6BF752A408D8804
:1048D00006EA05152A434FF6FF352B404FF2FF75C8
:1048E0002B400D8A06EA85052B434D8A06EA85058D
:1048F0002B43838004838D688563028470BD000030
:1049000000000140000401400A460021018B4FF2E3
:10491000FF7319404FF6FF7303EA02231943018323
:10492000704741637047816370470000002202882E
:10493000184B98420ED0184B98420BD0B0F1804FD4
:1049400008D0164B984205D0154B984202D0154B13
:10495000984204D14FF68F731A404B881A43124B7A
:10496000984207D0114B984204D04FF6FF431A40AB
:104970000B891A4302804B68C3620B880385054B81
:10498000984202D0044B984201D18B7A03860123CE
:104990008382704700000140000401400004004091
:1049A00000080040000C00400010004000140040CF
:1049B00010B504461CB12046FDF7A7FC00B910BD98
:1049C0007A222146FE48FBF7B9FFFD48808900EEB8
:1049D000100AF8EE400A9FEDFB1A80EE810A10EEF5
:1049E000100AF949C1F80100F548C08900EE100A23
:1049F000F8EE400A9FEDF31A80EE810A10EE100ADD
:104A0000C1F80500EE48008A00EE100AF8EE400AF0
:104A10009FEDEC1A80EE810A10EE100AC1F8090031
:104A2000E748408A00EE100AF8EE400A9FEDE51ACA
:104A300080EE810A10EE100AC1F80D00E048808A6D
:104A400000EE100AF8EE400A9FEDDE1A80EE810AB1
:104A500010EE100AC1F81100D948C08A00EE100A01
:104A6000F8EE400A9FEDD71A80EE810A10EE100A88
:104A7000C1F81500D248008B00EE100AF8EE400A8B
:104A80009FEDD01A80EE810A10EE100AC1F81900CD
:104A9000CB48408B00EE100AF8EE400A9FEDC91A91
:104AA00080EE810A10EE100AC1F81D00C448808B08
:104AB00000EE100AF8EE400A9FEDC21A80EE810A5D
:104AC00010EE100AC1F82100BD48C08B00EE100A9C
:104AD000F8EE400A9FEDBB1A80EE810A10EE100A34
:104AE000C1F82500B648008C00EE100AF8EE400A26
:104AF0009FEDB41A80EE810A10EE100AC1F8290069
:104B0000AF48408C00EE100AF8EE400A9FEDAD1A57
:104B100080EE810A10EE100AC1F82D00A848808CA2
:104B200000EE100AF8EE400A9FEDA61A80EE810A08
:104B300010EE100AC1F85500A148C08C00EE100A12
:104B4000F8EE400A9FED9F1A80EE810A10EE100ADF
:104B5000C1F859009A48008D00EE100AF8EE400A9C
:104B60009FED981A80EE810A10EE100AC1F85D00E0
:104B70009348408D00EE100AF8EE400A9FED911A1E
:104B800080EE810A10EE100AC1F849008C48808D31
:104B900000EE100AF8EE400A9FED8A1A80EE810AB4
:104BA00010EE100AC1F84D008548C08D00EE100AC5
:104BB000F8EE400A9FED831A80EE810A10EE100A8B
:104BC000C1F851007E48008E00EE100AF8EE400A4F
:104BD0009FED7C1A80EE810A10EE100AC1F83D00AC
:104BE0007748408E00EE100AF8EE400A9FED751AE5
:104BF00080EE810A10EE100AC1F841007048808EE4
:104C000000EE100AF8EE400A9FED6E1A80EE810A5F
:104C100010EE100AC1F845006948C08E00EE100A77
:104C2000F8EE400A9FED671A80EE810A10EE100A36
:104C3000C1F831006248008F00EE100AF8EE400A19
:104C40009FED601A80EE810A10EE100AC1F835005F
:104C50005B48408F00EE100AF8EE400A9FED591AAB
:104C600080EE810A10EE100AC1F839005448808F96
:104C700000EE100AF8EE400A9FED521A80EE810A0B
:104C800010EE100AC1F861004D48C08F00EE100A06
:104C9000F8EE400A9FED4B1A80EE810A10EE100AE2
:104CA000C1F865004648B0F8400000EE100AF8EE82
:104CB000400A9FED441A80EE810A10EE100AC1F8F6
:104CC00069003F48B0F8420000EE100AF8EE400AD2
:104CD0009FED3C1A80EE810A10EE100AC1F87900AF
:104CE0003748B0F8440000EE100AF8EE400A9FED95
:104CF000351A80EE810A10EE100AC1F87D003048A6
:104D0000B0F8460000EE100AF8EE400A9FED2D1AAA
:104D100080EE810A10EE100AC1F881002848B0F830
:104D2000480000EE100AF8EE400A9FED261A80EEC9
:104D3000810A10EE100AC1F86D002148B0F84A004F
:104D400000EE100AF8EE400A9FED1E1A80EE810A6E
:104D500010EE100AC1F871001948B0F84C0000EECE
:104D6000100AF8EE400A9FED171A80EE810A10EE45
:104D7000100AC1F875001248B0F84E0000EE100A93
:104D8000F8EE400A9FED0F1A80EE810A10EE100A2D
:104D9000C1F88D000A48B0F8500000EE100AF8EE95
:104DA000400A9FED081A80EE810A10EE100AC1F841
:104DB00091000348B0F8520000EE100A06E000002F
:104DC000F80600200000C842BB090020F8EE400AA7
:104DD0001FED041A80EE810A10EE100AC1F895004A
:104DE000FDF736FD00BFEAE510B540F22441234847
:104DF00000F07AFE002840D0204800881F48001D9F
:104E000000881F48FDF7C5F9D8B900211C48FDF7F7
:104E1000E3F81B48FDF7B9F9C0F1320019490870F1
:104E200032201749403948640846006C40F400209D
:104E3000086401211248FDF7CFF81348FEF7B0FCD3
:104E40001BE000210E48FDF7C7F80D48FDF79DF95E
:104E5000C0F132000B4908703220094940394864DA
:104E60000846006C20F40020086401210448FDF786
:104E7000B3F805483230FEF793FC10BD004C0040FB
:104E80004060024074000020B412002010B5294890
:104E900000F0E4FEC4B240F22441264800F024FEB3
:104EA000002845D023480088224880882248FDF702
:104EB00070F9F0B900212048FDF78EF81E48FDF783
:104EC00064F9C0F180001D49087080201A4910392A
:104ED00048610846006940F4002008610121164835
:104EE000FDF77AF81548027815491648FBF7CFFA0E
:104EF0001EE000211048FDF76FF80F48FDF745F957
:104F0000C0F180000D49087080200B4910394861BC
:104F10000846006920F40020086101210648FDF7D9
:104F20005BF806480278064980310648FBF7AFFA7D
:104F300010BD0000005000401060024075000020CD
:104F400048130020A806002010B596B004460121A1
:104F50000220FFF7EBF801218805FFF7E7F80121B0
:104F60001020FFF713F9072211464548FDF7C1FD50
:104F700014A8FDF7EEFD8020149002208DF8540057
:104F800000208DF8550001208DF8570014A93C48E9
:104F9000FDF767FD3B4800F02FFD10A800F063FE11
:104FA00010940020ADF84400ADF84600ADF848007C
:104FB0000420ADF84A000020ADF84C0010A931489B
:104FC00000F0E2FD012240212E4800F00BFD2E48AA
:104FD000FDF70EF86846FDF787F94FF00060009086
:104FE0002848001D019029480290002003902D20A0
:104FF0000490002005904FF48060069000200790F8
:1050000008904FF48070099000020A9000200B90E5
:105010000C900D900E9069461B48FDF737F9002261
:105020001A491E311848FDF79AF801211648FDF774
:105030008BF801211448FCF7CFFF25208DF83C00A8
:1050400002208DF83D0000208DF83E0001208DF8F3
:105050003F000FA8FEF704FD012240F22441094859
:1050600000F06CFD0121074800F0B0FC00221E2179
:10507000012003F047FC0649086016B010BD00008F
:10508000000402400010014088640240F40E002039
:105090006C00002010B540F22441244800F024FDAB
:1050A000002841D021480088204880882048FDF70A
:1050B00070F8E0B900211E48FCF78EFF1C48FDF790
:1050C00064F8C0F11E001B4908701E201849091D14
:1050D0000860081F006840F40020091F08600121D3
:1050E0001348FCF779FF1448FEF7A6FF1CE00021E7
:1050F0000F48FCF771FF0E48FDF747F8C0F11E009E
:105100000C4908701E200A49091D0860081F006824
:1051100020F40020091F086001210548FCF75CFF0E
:1051200005481E30FEF788FF10BD0000001001404A
:105130008864024070000020F40E002010B540F298
:105140002441264800F0D0FC002845D023480088A0
:105150002248001D00882248FDF71BF8F0B9002105
:105160001F48FCF739FF1E48FDF70FF8C0F180001B
:105170001C49087080201A49091D086018488838A1
:10518000D0F8880040F40020091F0860012114486D
:10519000FCF722FF1448FEF709FC1DE0002110482F
:1051A000FCF71AFF0E48FCF7F0FFC0F180000D4934
:1051B000087080200A49091D086009488838D0F81D
:1051C000880020F40020091F086001210448FCF732
:1051D00003FF0548FEF7EAFB10BD00000044004055
:1051E0008860024071000020B40F002010B5A6B006
:1051F000044601210220FEF799FF01214805FEF730
:1052000095FF01218804FEF7A1FF07220A216048CB
:10521000FDF76FFC07220B215D48FDF76AFC24A80F
:10522000FDF797FC4FF44060249002208DF8940025
:1052300003208DF8950001208DF8970024A954488B
:10524000FDF70FFC534800F0D7FB20A800F00BFD42
:1052500020940020ADF88400ADF88600ADF88800F9
:105260000C20ADF88A000020ADF88C0020A9494838
:1052700000F08AFC01224021464800F0B3FB0122E5
:105280008021444800F0AEFB4348FCF7B1FE10A873
:10529000FDF72AF84FF0006010903E48001D119075
:1052A0003E4812900020139080201490002015900A
:1052B0004FF4806016900020179018904FF4807083
:1052C000199000021A9000201B901C901D901E90B7
:1052D00010A93148FCF7DAFF0022304980312E480E
:1052E000FCF73DFF01212C48FCF72EFF01212A4845
:1052F000FCF772FE27208DF87C0002208DF87D00DF
:1053000000208DF87E0001208DF87F001FA8FEF799
:10531000A7FB012240F224411E4800F00FFC0121AE
:105320001C4800F053FB01214805FEF7FFFE1A4818
:105330003030FCF75DFE00BF17483030FCF71BFF34
:105340000028F9D14FF0006001901248001D029032
:1053500013480390402004908000059000200690A0
:105360004FF4806007900020089009900A904FF455
:1053700080300B9000200C9003200D9000200E90A8
:105380000F9001A904483030FCF780FF26B010BD13
:10539000000402400048004028600240B411002090
:1053A000B410002010B540F22441294800F09CFBC5
:1053B00000284AD0264800882548001D0088254836
:1053C000FCF7E7FE00BB00212248FCF705FE214860
:1053D000FCF7DBFEC0F180001F49087080201D49EA
:1053E0002839C8620846806A40F40020886201219A
:1053F0001848FCF7F1FD184800787A2800D010BD55
:105400001648FFF7D5FA20E000211248FCF7E4FD2A
:105410001048FCF7BAFEC0F180000F4908708020E8
:105420000C492839C8620846806A20F40020886246
:1054300001210848FCF7D0FD074800787A2800D001
:10544000DDE706488030FFF7B3FA00BFD7E700007A
:10545000004800402860024073000020B411002082
:1054600010B504461548007830B94FF0C0511448C3
:10547000FCF79AFE00B910BD4FF0C0511048FCF780
:1054800091FD012280210F4800F0ACFA00210C4868
:10549000FCF7A2FD00BF0A48FCF76DFE0028FAD118
:1054A00021460748FCF71EFF01210548FCF794FD43
:1054B00000200249087000BFDDE7000072000020F4
:1054C000586002400048004010B596B004460121E3
:1054D0000420FEF72BFE01214805FEF727FE0121DF
:1054E000C804FEF733FE08220B214248FDF701FBFA
:1054F00014A8FDF72EFB4FF40060149002208DF8E5
:10550000540000208DF8550001208DF8570014A993
:105510003848FDF7A6FA384800F06EFA10A800F0F7
:10552000A2FB10940020ADF84400ADF84600ADF8A1
:1055300048000420ADF84A000020ADF84C0010A946
:105540002D4800F021FB012240212B4800F04AFAAF
:105550002A48FCF74DFD6846FCF7C6FE4FF0006098
:1055600000902548001D01902548029000200390DE
:1055700032200490002005904FF4806006900020B7
:10558000079008904FF48070099000020A90002064
:105590000B900C900D900E9069461848FCF776FE23
:1055A0000022174932311548FCF7D9FD0121134873
:1055B000FCF7CAFD01211148FCF70EFD34208DF8DF
:1055C0003C0002208DF83D0000208DF83E000120B7
:1055D0008DF83F000FA8FEF743FA012240F2244164
:1055E000054800F0ABFA0121034800F0EFF916B0CE
:1055F00010BD000000080240004C00404060024026
:10560000B412002010B596B0044601210420FEF724
:105610008DFD01210820FEF789FD01214805FEF7D7
:1056200085FD01210805FEF791FD08220C214F4858
:10563000FDF75FFA082202214D48FDF75AFA14A837
:10564000FDF787FA4FF48050149002208DF8540033
:105650008DF8550001208DF8570014A94348FDF737
:1056600000FA0420149002208DF854008DF85500A3
:1056700001208DF8570014A93D48FDF7F2F93D4887
:1056800000F0BAF910A800F0EEFA10940020ADF87E
:105690004400ADF84600ADF848000C20ADF84A00D3
:1056A0000020ADF84C0010A9324800F06DFA01223C
:1056B0004021304800F096F92F48FCF799FC6846E5
:1056C000FCF712FE4FF0006000902A48001D019088
:1056D0002A4802900020039080200490002005902A
:1056E0004FF4806006900020079008904FF480707F
:1056F000099000020A9000200B900C900D900E90E3
:1057000069461D48FCF7C2FD00221C4980311A4839
:10571000FCF725FD01211848FCF716FD012116486C
:10572000FCF75AFC012210211348FCF791FD1449A3
:105730001148FCF737FC35208DF83C0002208DF82D
:105740003D0000208DF83E0001208DF83F000FA89D
:10575000FEF786F9012240F22441064800F0EEF9F6
:105760000121044800F032F916B010BD00080240D3
:10577000000C02400050004010600240481300201E
:105780002000001010B54FF4806208490848FAF76D
:10579000D6FD07480749086001F10A00486000206B
:1057A000A1F8D400088181F8D20010BDA802002021
:1057B000A8060020D001002010B596B004460121B3
:1057C0000420FEF7B3FC01210820FEF7AFFC012105
:1057D0008805FEF7ABFC01212020FEF7D7FC08224C
:1057E00007214A48FDF785F9082206214748FDF7B9
:1057F00080F914A8FDF7ADF98020149002208DF8EF
:1058000054008DF8550001208DF8570014A93F4829
:10581000FDF727F94020149002208DF854008DF8F0
:10582000550001208DF8570014A93848FDF719F9E3
:10583000374800F0E1F810A800F015FA10940020A5
:10584000ADF84400ADF84600ADF848000C20ADF8C6
:105850004A000020ADF84C0010A92D4800F094F942
:10586000012240212A4800F0BDF82A48FCF7C0FB7D
:105870006846FCF739FD4FF0206000902448001D79
:105880000190254802900020039080200490002081
:1058900005904FF4806006900020079008904FF428
:1058A0008070099000020A9000200B900C900D90DF
:1058B0000E9069461748FCF7E9FC00221649803132
:1058C0001448FCF74CFC01211248FCF73DFC012177
:1058D0001048FCF781FB47208DF83C0002208DF832
:1058E0003D0000208DF83E0001208DF83F000FA8FC
:1058F000FEF7B6F8012240F22441054800F01EF9F7
:105900000121034800F062F816B010BD0008024003
:1059100000140140286402404814002010B52748B4
:1059200000F09CF9C4B240F22441244800F0DCF8B5
:10593000002842D0214800882048001D00882048C7
:10594000FCF727FCE0B900211D48FCF745FB1C488B
:10595000FCF71BFCC0F180001A4908708020184930
:10596000091D0860081F006840F40020091F086036
:1059700001211348FCF730FB1348FEF717F81CE031
:1059800000210F48FCF728FB0D48FCF7FEFBC0F197
:1059900080000C49087080200949091D0860081F13
:1059A000006820F40020091F086001210448FCF76A
:1059B00013FB05488030FDF7F9FF10BD00140140CE
:1059C00028640240760000204814002021B182891A
:1059D00042F40052828104E082894DF6FF731A403E
:1059E000828170471AB1838A0B43838202E0838AE3
:1059F0008B4383827047000010B5044632488442CE
:105A000008D101211020FEF7D1FB00211020FEF764
:105A1000CDFB57E02D48844209D101214804FEF70F
:105A2000A5FB00214FF40030FEF7A0FB4AE0284818
:105A3000844209D101218804FEF798FB00214FF42C
:105A40008020FEF793FB3DE02248844209D10121EA
:105A5000C804FEF78BFB00214FF40020FEF786FB05
:105A600030E01D48844209D101210805FEF77EFB84
:105A700000214FF48010FEF779FB23E017488442A1
:105A800008D101212020FEF791FB00212020FEF704
:105A90008DFB17E01248844209D101218807FEF7E7
:105AA00065FB00214FF08040FEF760FB0AE00D48E7
:105AB000844207D101214005FEF758FB0021600513
:105AC000FEF754FB10BD00000010014000440040F0
:105AD00000480040004C00400050004000140140CD
