:020000040800F2
:10000000C86E00205502000825370008BD2D0008E5
:1000100035350008051100083961000800000000AE
:100020000000000000000000000000009D0100082A
:10003000E523000800000000F10100081D4400084D
:100040006F0200086F0200086F0200086F020008CC
:100050006F0200086F0200086F0200086F020008BC
:100060006F0200086F0200086F020008151F0008E9
:100070006F0200086F0200086F0200086F0200089C
:100080006F0200086F0200086F020008F9120008F2
:100090001D1200086F0200086F0200086F020008BE
:1000A0006F0200086F0200086F0200086F0200086C
:1000B0006F0200086F0200086F0200086F0200085C
:1000C0006F0200086F0200086F0200086F0200084C
:1000D0006F0200084D4E0008F54E00085D51000803
:1000E0006F0200086F0200086F0200086F0200082C
:1000F0006F0200086F0200086F0200086F0200081C
:100100006F0200086F0200086F0200086F0200080B
:10011000A14B0008454C00086F0200086F02000860
:100120006F0200086F0200086F0200086F020008EB
:100130006F0200086F0200086F0200083D130008FC
:10014000151300086F0200086F0200086F02000814
:100150006F0200086F0200086F020008D556000801
:100160006F0200086F0200086F0200086F020008AB
:100170006F0200086F0200086F0200086F0200089B
:100180006F0200086F020008DFF80CD000F080FE5C
:10019000004800475D770008C86E00202A4B1968A8
:1001A0000868B0E8F04F80F30988BFF36F8F4FF015
:1001B000000080F3118870470000000006480068C6
:1001C000006880F3088862B661B6BFF34F8FBFF353
:1001D0006F8F00DF00BF00BF08ED00E0DFF80C000C
:1001E000016841F470010160704700BF88ED00E0D4
:1001F000EFF30980BFF36F8F134B1A681EF0100FD7
:1002000008BF20ED108A20E9F04F106008B44FF0CD
:10021000500080F31188BFF34F8FBFF36F8F09F049
:1002200009F84FF0000080F3118808BC19680868CD
:10023000B0E8F04F1EF0100F08BFB0EC108A80F34A
:100240000988BFF36F8F7047B8000020EFF3058077
:10025000704700000648804706480047FEE7FEE773
:10026000FEE7FEE7FEE7FEE7FEE7FEE7FEE7FEE766
:100270002D4400088901000810B5044600BF00BFE6
:1002800000BF00BF002CFDD000BF00BF00BF002991
:10029000FDD000BF00BF00BF002AFDD000BF00BFDF
:1002A00000BF002BFDD000BF72B6216002FB03101F
:1002B000401E6060A3600020E06022746161A16163
:1002C00062B6002010BD2DE9F04104460D4600261F
:1002D000002700BF00BF002CFDD000BF00BF00BF43
:1002E000002DFDD000BF1C2007F056FA064616B9B7
:1002F0000020BDE8F08104FB05F007F04DFA074649
:100300000FB90020F5E72B46224639463046FFF765
:10031000B3FF3046EDE710B5044600BF00BF002C28
:10032000FDD000BF00BF00BF20680028FCD000BF88
:10033000206807F059F9204607F056F910BD03462A
:1003400000BF00BF00BF00BF002BFDD000BF00BF3B
:1003500000BF0029FDD000BF00BF00BF002AFDD0B4
:1003600000BF72B619608818401E58609A6000205D
:10037000D8601961596162B60020704770B50446B3
:100380000025002600BF00BF002CFDD000BF1820B4
:1003900007F002FA05460DB9002070BD204607F0AF
:1003A000FBF906460EB90020F7E7224631462846FB
:1003B000FFF7C5FF2846F0E710B5044600BF00BFB1
:1003C000002CFDD000BF00BF00BF20680028FCD07B
:1003D00000BF206807F008F9204607F005F910BDB6
:1003E00030B5024600230C4600BF00BF00BF00BF6F
:1003F000002AFDD000BF00BF00BF0029FDD000BF14
:10040000906810B94FF0FF3030BD002310E0556800
:100410009069A84201D91068906114F8010B9569A0
:10042000287072B69069401C906162B6581CC3B2C5
:10043000107C9842EBDC72B69068401E9060D068E9
:10044000401CD06062B60020DEE7024600BF00BF5D
:1004500000BF00BF002AFDD000BF906810B94FF068
:10046000FF30704772B650695368984201D91068DE
:100470005061506901705069401C50619068401E85
:100480009060D068401CD06062B60020E9E770B58B
:1004900003460C46002500BF00BF00BF00BF002B75
:1004A000FDD000BF986810B94FF0FF3070BD00213B
:1004B00019E0986810B94FF0FF3516E072B65E6823
:1004C0005869B04201D918685861605C5E69307043
:1004D0005869401C58619868401E9860D868401C54
:1004E000D86062B6491C9142E3D300BF2846DDE7DD
:1004F00030B5024600230C4600BF00BF00BF00BF5E
:10050000002AFDD000BF00BF00BF0029FDD000BF02
:10051000D06810B94FF0FF3030BD002310E05568AF
:100520005069A84201D9106850615069007804F8F8
:10053000010B72B65069401C506162B6581CC3B2C0
:10054000107C9842EBDC72B69068401C9060D068DA
:10055000401ED06062B60020DEE70146002000BFEA
:1005600000BF00BF00BF0029FDD000BF72B60A69FE
:100570004B689A4201D90A680A610A6910780A69C7
:10058000521C0A618A68521C8A60CA68521ECA607C
:1005900062B6704770B5024600230C4600BF00BF2C
:1005A00000BF00BF002AFDD000BF00BF00BF002970
:1005B000FDD000BFD06810B94FF0FF3070BD72B6EB
:1005C000167CD068401E556906FB00501568451B17
:1005D000D2E90060801B401CB5FBF0F600FB165012
:1005E000156828445061D2E90250401E28449060AA
:1005F0000120D06062B6002310E055685069A8421F
:1006000001D9106850615069007804F8010B72B686
:100610005069401C506162B6581CC3B2107C9842AD
:10062000EBDC72B69068401C9060D068401ED060D1
:1006300062B60020C2E710B50146002000BF00BF2F
:1006400000BF00BF0029FDD000BF72B6D1E9033260
:100650001A44521E0B68D31AD1E90042121B521CD5
:10066000B3FBF2F402FB14320B681A440A610A6904
:100670001078D1E902231A448A600022CA6062B667
:1006800010BD70B503460C46154600222E460021CB
:1006900000BF00BF002BFDD000BF00BF00BF002D7A
:1006A000FDD000BFD868A04202D84FF0FF3070BD27
:1006B0005969002206E05868884200D21968491C2E
:1006C000501CC2B2187C60439042F4DC002209E066
:1006D0005868884200D21968087806F8010B491C4E
:1006E000501CC2B2187C9042F2DC0020DFE710B54B
:1006F00002460B460024002100BF00BF002AFDD0A7
:1007000000BF1169002406E05068884200D21168D9
:10071000491C601CC4B29C42F6DB087810BD01463F
:1007200000BF00BF0029FDD000BFC86808B9012084
:1007300070470020FCE7014600BF00BF0029FDD044
:1007400000BFC86808B9012070470020FCE70146D7
:1007500000BF00BF0029FDD000BF886808B9012094
:1007600070470020FCE7014600BF00BF0029FDD014
:1007700000BF886808B9012070470020FCE70146E7
:1007800000BF00BF0029FDD000BFC8687047014608
:1007900000BF00BF0029FDD000BFC86870470146F8
:1007A00000BF00BF0029FDD000BF88687047014628
:1007B00000BF00BF0029FDD000BF88687047014618
:1007C00000BF00BF00BF00BF0029FDD000BF72B650
:1007D000D1E90020801A0A7C90FBF2F088600020AA
:1007E000C860086848610868886162B60020704780
:1007F000014600BF00BF00BF00BF0029FDD000BF01
:1008000072B6D1E90020801A88600020C8600868AC
:1008100008610868486162B600207047DFED190A78
:10082000B5EEC00A60EE200ABDEEE01A11EE100A25
:10083000F1EE10FA38BF401E00EE100A1349F7EE31
:10084000001AB8EEC00A30EEC00ADFED0F0A60EE03
:10085000200ABCEEE00A10EE100AC0F3080000EE19
:10086000100A01EB8000B8EE400A90ED011A70EE1C
:10087000C00A90ED000A71EEE01A21EE800A00EE47
:10088000810A704783F9223E00000044E0A400087A
:1008900010B5431A934209D28318881803E010F860
:1008A000011D03F8011D521EF9D210BD40EA0103DB
:1008B0009B0703D009E008C9121F08C0042AFAD216
:1008C00003E011F8013B00F8013B521EF9D210BDC4
:1008D000D2B201E000F8012B491EFBD27047002282
:1008E000F6E710B513460A4604461946FFF7F0FF2F
:1008F000204610BD421C10F8011B0029FBD1801AB4
:1009000070472DE9FE4F804681EA0300C00F0C4678
:10091000009021F0004123F00045B8EB0200A9410E
:1009200005D24046214690461C460B46024623F01F
:100930000040104347D0270DC7F30A00C3F30A5104
:100940000290401A019040286BDAC3F3130040F480
:10095000801B0098924620B10023D2EB030A63EB80
:100960000B0B01985946C0F14002504600F0DBF9EC
:1009700006460D4650465946019A00F0E3F910EB41
:1009800008006141002487EA115284EAE7731A43A0
:1009900040D0009A62B3019A012A4FEA075215DC4F
:1009A000001B61EB02014FF0004202EA0752CDE961
:1009B0000042001C41F5801132462B4600F01AFA25
:1009C00003B0BDE8F08F40462146F9E7001B61EB1C
:1009D0000201001C41F5801300185B412018A2F5AC
:1009E000001747EB030140EAD570B6196D4111E0DD
:1009F0006D084FEA360645EAC0754FEA0752001BFC
:100A000061EB0201001C41F5801149084FEA3000FA
:100A10000019514132462B4603B0BDE8F04F00F0BB
:100A2000DAB90098012240000023D0EB020263EB08
:100A3000E073009821464FEAE074B8EB000061EBE8
:100A40000401E9E783F000435BE781F0004158E7E8
:100A50002DE9FE4F81EA030404F0004421F0004137
:100A600000944FF0000B23F0004350EA01045ED0E5
:100A700052EA03045BD0C3F30A54C1F30A552C4471
:100A8000A4F2F3340194A0FB0254C1F3130141F426
:100A90008011C3F3130343F4801301FB024400FBF2
:100AA000034E840A970A44EA815447EA8357A4FB19
:100AB000076802958D0A05FB07854FEA932C04FB16
:100AC0000C542705029D4FEA065847EA1637B5EB46
:100AD00008056EEB070C870E920E47EA811742EA73
:100AE0008312A7FB0201B6EB0B0164EB00042B0D94
:100AF00043EA0C335E1844EB1C50DA465146E7FBE0
:100B00000201C5F313044FEA0B3343EA14534FEACF
:100B10000432019C43EA0603A4F10C040294009CF5
:100B2000CDE900B400F066F903B0BDE8F08F002015
:100B30000146F9E72DE9F04D81EA030404F0004B8A
:100B400021F0004514464FF0000A23F0004150EA1E
:100B5000050220D054EA01021DD0C5F30A5702460F
:100B6000C5F31303C1F31300C1F30A5640F4801513
:100B700043F48013A7EB0608101BD64608F2FD3895
:100B800073EB050002D308F1010801E092185B4104
:100B9000B8F1000F03DA00200146BDE8F08D002017
:100BA0004FF48011064684460EE0171B73EB0507D1
:100BB00005D3121B63EB050306434CEA010C4908FD
:100BC0004FEA300092185B4150EA0107EDD152EA3A
:100BD000030012D082EA040083EA0501084305D02D
:100BE000101BAB4106D20122002306E000224FF089
:100BF000004302E06FF0010253101AEB06004CEBC9
:100C0000085110EB0A0041EB0B01BDE8F04D00F07C
:100C1000E2B80EB5C10F80EAE0700844CA070021AF
:100C200040F233438DE80E000A460B4600F0E2F82E
:100C300003B000BD00F0004230F000400AD0C10D0A
:100C400001F56071C0F3160042EA0151C208400785
:100C500011437047002001467047000030B5041E64
:100C600071F1000404DB4FF00044404264EB0101E9
:100C7000141E73F1000405DB1C464FF00043524282
:100C800063EB0403994208BF904230BD01F000437A
:100C900030B421F0004150EA010206D00A0DA2F55D
:100CA0006072C1F31301002A02DC30BC00207047DF
:100CB000440F44EAC104C100E01830BC00EBC2504C
:100CC00000F052B82DE9F05F0546002092469B46A1
:100CD00088460646814640241BE028464146474652
:100CE000224600F0E7F853465A46C01A914110D305
:100CF00011461846224600F016F82D1A67EB010837
:100D00004F4622460120002100F00DF817EB0009A4
:100D10004E41201EA4F10104DFDC484631462A463C
:100D20004346BDE8F09F202A04DB203A00FA02F196
:100D3000002070479140C2F1200320FA03F31943C9
:100D400090407047202A06DBCB17203A41FA02F088
:100D500043EAE07306E041FA02F3D040C2F1200218
:100D600091400843194670470029A8BF7047401CAE
:100D7000490008BF20F00100704710B4B0FA80FCB1
:100D800000FA0CF050EA010404BF10BC704749B1EE
:100D9000CCF1200421FA04F411FA0CF118BF01215E
:100DA00021430843A3EB0C01CB1D4FEA00614FEA3E
:100DB000102042BF002010BC704700EBC35010440D
:100DC0000029A4BF10BC7047401C490008BF20F098
:100DD000010010BC704710B5141E73F1000408DA4E
:100DE000401C41F1000192185B411A4301D120F0EF
:100DF000010010BD2DE9F04D92469B4611B1B1FAAC
:100E000081F202E0B0FA80F220329046FFF78BFFC9
:100E100004460F4640EA0A0041EA0B0153465A468F
:100E2000084313D0114653EA010019D0C8F140021B
:100E3000504600F03FF805460E4650465946424699
:100E4000FFF771FF084305D0012004E02046394632
:100E5000BDE8F08D0020054346EAE0762C43374399
:100E60000A986305E40AA0EB08000022FD0A44EAA0
:100E700047540A3002D500200146E9E70105101960
:100E80006941DDE9084500196941BDE8F04DA2E777
:100E9000064C074D06E0E06840F0010394E80700C7
:100EA00098471034AC42F6D3FFF772F908AE000849
:100EB00028AE0008202A04DB203A21FA02F00021A3
:100EC000704721FA02F3D040C2F12002914008435A
:100ED000194670470EB540F2334102910021CDE929
:100EE00000110A460B46FFF785FF03B000BD70B541
:100EF000C1F30A5201F000450024C1F3130140F28E
:100F0000FF3341F480119A4201DA002070BD40F2B3
:100F100033439A42A2F2334203DC5242FFF7CAFF44
:100F200000E090402C43F1D0404270BD70B58C1869
:100F300010F8015B15F0070301D110F8013B2A11ED
:100F400006D110F8012B03E010F8016B01F8016BDA
:100F50005B1EF9D12B0705D40023521E0DD401F8D6
:100F6000013BFAE710F8013BCB1A921C03E013F89F
:100F7000015B01F8015B521EF9D5A142D8D30020D4
:100F800070BD08B501F06CFD00901BE001216846C2
:100F900007F0E6FE01F064FD01F062FD6421B0FBA4
:100FA000F1F201FB120018B902F014FA00F058F83F
:100FB00001F056FDC821B0FBF1F201FB120008B9A7
:100FC00002F066F9E2E770B505460C4600260DB161
:100FD000022C00D870BDA11E4FF6FF72284601F00A
:100FE0004DFD0646A01E2E54310A601E295400BF36
:100FF000F0E7000070B505460C4600260DB1022C46
:1010000000D870BD611E05480278284601F050FDE9
:101010000646601E2E5400BFF3E70000DCA1000866
:101020001CB50121022002F051FF4FF40040009056
:1010300001208DF8040000208DF8060003208DF8B3
:10104000050002208DF807006946044801F087FC7E
:101050004FF40041014801F0F6FC1CBD00040240C1
:1010600010B5002406E00120074908603C2007F085
:101070003DFE641C054800688442F4DB0020024900
:1010800008600249086010BDBC8240427400002024
:101090004100014A1160704774000020022001499C
:1010A000086070477400002010B54FF4407002F0E3
:1010B00077FBA82006F078F9104803F021FE4FF4E2
:1010C000E12003F06FFF4FF4E13004F0D9F84FF462
:1010D000E13004F073F90A4804F04AFA00F014F819
:1010E00002F046F901F0ACFBFFF79AFF02F09AFA22
:1010F00002F022F8462001F083FB10BDA08601001B
:1011000020A1070000BFFEE700B58BB00121084613
:1011100002F0DCFE0121480602F0E8FE09220B2164
:101120003C4801F064FC09220C213A4801F05FFCC4
:101130004FF4C050029002208DF80C0002A93548EF
:1011400001F00DFC14208DF8040000208DF805003E
:1011500001208DF806008DF8070001A802F0E4FADE
:1011600013208DF8040000208DF8050002208DF872
:10117000060001208DF8070001A802F0D5FA2648E4
:1011800000F066F908A800F09EFB00208DF826000C
:101190008DF827008DF828008DF829008DF82A0099
:1011A00001208DF82B0000208DF822008DF82300FF
:1011B00008208DF8240003208DF82500ADF82000CC
:1011C00008A9154800F07DFA00208DF81A008DF866
:1011D0001B0001208DF81C000020ADF81000ADF8B8
:1011E0001200ADF81400ADF81600ADF8180001209B
:1011F0008DF81D0004A800F047F9012202210648DD
:1012000000F056FA01221146034800F051FA0BB0E3
:1012100000BD0000000002400064004000B585B041
:101220000221314800F0B4F900285AD004212E4898
:1012300000F0BAF86A4600212B4800F0CCFA00987A
:10124000A0F2012006284AD2DFE800F0030E1A2699
:10125000323D0DF10B01254802F056FD244800688F
:10126000401C234908603BE00DF10B011F48103082
:1012700002F04AFD1E484068401C1D4948602FE0AE
:101280000DF10B011948203002F03EFD184880682E
:10129000401C1749886023E00DF10B0113483030E2
:1012A00002F032FD1248C068401C1149C86017E0C6
:1012B0000DF10B010F4802F04BFD0D480069401C79
:1012C0000B4908610CE00DF10B010A48183002F0DF
:1012D0003FFD07484069401C0549486100E000BFE8
:1012E00000BF05B000BD0000006400409C08002065
:1012F00050010020DC08002010B50121044800F056
:1013000047F918B10121024800F04EF810BD000065
:101310000064004000B585B00221074800F038F9AC
:1013200040B10221044800F03FF86A46002102481B
:1013300000F051FA05B000BD0068004010B5012171
:10134000044800F025F918B10121024800F02CF8FA
:1013500010BD00000068004000B585B04FF4E060AB
:10136000009000208DF808008DF8090008208DF805
:101370000A0000208DF80B0000218DF80C108DF86C
:101380000D108DF80E108DF80F108DF810108DF8CF
:1013900011108DF812106946024800F0A4FA05B049
:1013A00000BD000000640040B1F5007F3AD00FDCC2
:1013B000202928D006DC01291CD004291DD00829A9
:1013C00040D11DE0402921D0B1F5807F3AD126E0FF
:1013D000B1F5004F31D006DCB1F5806F25D0B1F505
:1013E000006F2FD124E0B1F5803F12D0B1F5003F5E
:1013F00028D111E0154A826025E00822C26022E06F
:101400001022C2601FE0082202611CE0102202616B
:1014100019E00822426016E01022426013E0042224
:10142000426010E0042242600DE0042242600AE0C3
:10143000002282610422426005E0002282610422CF
:10144000426000E000BF00BF7047000001010100E2
:1014500010B504460B48844209D10121480602F028
:1014600055FD00214FF0007002F050FD08E0012111
:10147000880602F04BFD00214FF0806002F046FD2F
:1014800010BD00000064004010B50021837A0122E5
:1014900002FA03F13D4A126842F001023B4B1A6026
:1014A0003A4A1C3212688A43384B1C331A60027B5A
:1014B000CAB9364A0C3212688A43344B0C331A606C
:1014C0004288C38842EA0343304A4032847A42F871
:1014D00034300288838842EA03432C4A4032847ABB
:1014E00002EBC4025360027B012A19D1274A0C3255
:1014F00012680A43254B0C331A604288038842EA7B
:101500000343224A4032847A42F83430C2888388C6
:1015100042EA03431D4A4032847A02EBC40253601C
:10152000C27A3AB9194A121D12688A43174B1B1D19
:101530001A6006E0154A121D12680A43134B1B1D60
:101540001A60028932B9114A143212688A430F4B69
:1015500014331A600289012A06D10C4A1432126827
:101560000A430A4B14331A60427B012A06D1074A08
:101570001C3212680A43054B1C331A60034A126876
:1015800022F00102014B1A6010BD0000006600400D
:1015900070B504460D46002660692840002871D0C9
:1015A000B5F5807F5CD010DC082D35D006DC012D30
:1015B00020D0022D24D0042D72D127E0102D31D05F
:1015C000202D35D0402D6BD138E0B5F5004F60D0DF
:1015D00009DCB5F5007F49D0B5F5806F4CD0B5F585
:1015E000006F5DD14FE0B5F5803F2DD0B5F5003FE0
:1015F00056D12FE0A0682D4900F00AFC064651E0C4
:10160000E068032100F004FC06464BE0E068082196
:1016100000F0FEFB064645E0E068102100F0F8FB14
:1016200006463FE02069032100F0F2FB064639E060
:101630002069082100F0ECFB064633E02069102108
:1016400000F0E6FB06462DE06068082100F0E0FBB4
:10165000064627E06068102100F0DAFB064621E02C
:10166000A069012100F0D4FB06461BE0A06902211D
:1016700000F0CEFB064615E0A069042100F0C8FB8F
:1016800006460FE00FE0A069702100F0C1FB06469E
:1016900008E06068042100F0BBFB064602E0FFE7BB
:1016A000002600BF00E00026304670BD01010100A9
:1016B0001AB143690B43436102E043698B434361C1
:1016C000704730B5024600200023146824F002045D
:1016D0001460146844F00104146000E05B1C54685A
:1016E00004F001041CB94FF6FF74A342F6D154680C
:1016F00004F001040CB900206CE08C79012C04D1B9
:10170000146844F08004146003E0146824F080043A
:101710001460CC79012C04D1146844F040041460A6
:1017200003E0146824F0400414600C7A012C04D106
:10173000146844F02004146003E0146824F02004CA
:1017400014604C7A012C04D1146844F01004146025
:1017500003E0146824F0100414608C7A012C04D186
:10176000146844F00804146003E0146824F00804CA
:101770001460CC7A012C04D1146844F00404146081
:1017800003E0146824F0040414608C78A407CD7876
:1017900044EA05640D7944EA05444D7944EA055468
:1017A0000D886D1E2C43D461146824F0010414606C
:1017B000002300E05B1C546804F001041CB14FF6E8
:1017C000FF74A342F6D1546804F001040CB1002068
:1017D00000E0012030BD10B500F5D87303EB011314
:1017E0001B6803F004031372137A53B900F5D8731E
:1017F00003EB01131B6840F2FF7404EA53531360B8
:1018000009E000F5D87303EB01131B686FF0604427
:1018100004EAD303536000F5D87303EB01131B688C
:1018200003F00203537200F5D87303EB01135B68F6
:1018300003F00F03937200F5D87303EB01135B6899
:101840001B0AD37400F5D87303EB01139B68D372A2
:1018500000F5D87303EB01139B681C0A147300F5A1
:10186000D87303EB01139B681C0C547300F5D873F9
:1018700003EB01139B681B0E937300F5D87303EB06
:101880000113DB68D37300F5D87303EB0113DB6836
:101890001C0A147400F5D87303EB0113DB681C0CED
:1018A000547400F5D87303EB0113DB681B0E9374BB
:1018B00021B9C36843F02003C36003E0036943F028
:1018C0002003036110BD00218171C1710172417259
:1018D0008172C1728170C170032101710221417155
:1018E00001210180704710B502460020936803F083
:1018F0008063B3F1806F00D110E0936803F0006360
:10190000B3F1006F01D1012008E0936803F0805328
:10191000B3F1805F01D1022000E00420042874D0DC
:1019200002F5C07303EB00131B6803F0010402F51A
:10193000C07303EB00131C600B7A7BB94B7A0C88E5
:1019400043EA445302F5C07404EB001424682343B3
:1019500002F5C07404EB0014236010E00B7A4C68AD
:1019600043EAC4034C7A234302F5C07404EB001429
:101970002468234302F5C07404EB001423608B7ABF
:1019800003F00F038B7202F5C07303EB00135B6867
:1019900023F00F0402F5C07303EB00135C6002F543
:1019A000C07303EB00135B688C7A234302F5C074A9
:1019B00004EB001463608B7B1C064B7B44EA0344FE
:1019C0000B7B44EA0323CC7A234302F5C07404EB77
:1019D0000014A3608B7C1C064B7C44EA03440B7C04
:1019E00044EA0323CC7B234302F5C07404EB0014C8
:1019F000E36002F5C07303EB00131B6843F00104BE
:101A000002F5C07303EB00131C6010BD08B501F0B4
:101A100027F8009029E00121684607F0A1F901208C
:101A200005F08EFC38B101F01BF800F00300E0B9BE
:101A300000F0F0F819E0022005F082FC10B101F08E
:101A400001FD12E0032005F07BFC40B100231A46A3
:101A50001946184602F05CFCFFF720FB05E0002366
:101A60001A461946184602F053FCD4E708B500F0B0
:101A7000F7FF00900DE00121684607F071F900F0D2
:101A8000EFFF00F0030020B90248007808B100F031
:101A900031F8F0E73800002000F0E2FF1349086059
:101AA00003220021012007F033FD114908601CE0EA
:101AB00000235A1E19460E48006807F063FD00F027
:101AC000CFFF0A490968401AB0F5FA6F06D900F04D
:101AD000C7FF0649086000F039FE06E000236422D3
:101AE00019460348006807F04DFDE1E73400002087
:101AF0003000002010B53248D0ED000AB0EE600A88
:101B00003049081F05F02CFB2E48001FD0ED021AAB
:101B1000B0EE611AD0ED011AF0EE610AD0ED001AB4
:101B2000B0EE610A284805F0C1FB00241EE02649FA
:101B300001EB840191ED001AF0EE410A234901EB1B
:101B4000041191ED031AB0EE410A04EB840101EB9C
:101B500084111F4A88189FED1F1A01F02BFE1A48A6
:101B6000103800EB840080ED000A641C042CDEDBDE
:101B7000154C103C94ED030ABDEEC00A10EE104A5D
:101B800023B2114C103C94ED020ABDEEC00A10EED7
:101B9000104A22B20C4C103C94ED010ABDEEC00A72
:101BA00010EE104A21B2084C103C94ED000ABDEE34
:101BB000C00A10EE104A20B202F0AAFB10BD0000CD
:101BC000DC080020F8060020880100209C08002086
:101BD0008411002000008046054890ED090ADFEDE1
:101BE000050A30EE600A044880ED000A70470000E4
:101BF000DC08002000008045D4060020034890ED5A
:101C0000020A034880ED000A7047000038010020F6
:101C1000E406002010B52DED028B4A48007808B983
:101C200000F0ACF847480078012804D19FED460A3F
:101C3000464880ED020A4648007868BB454890ED6A
:101C4000000ADFED450A30EE600ADFED440A80EE5F
:101C5000201AB7EE080A21EE000AB0EE408A40488A
:101C600005F064FC394880ED000A3A4890ED010A1D
:101C7000DFED390A30EE600ADFED380A80EE201A17
:101C8000B0EE000A21EE000AB0EE408A354805F0B9
:101C90004DFC2E4880ED010A2D48007801284ED1D8
:101CA0003148407828B1B7EE080A304880ED010A83
:101CB0000DE02D48407928B1BFEE080A2B4880ED91
:101CC000010A04E09FED200A284880ED010A264819
:101CD000007928B19FED260A244880ED000A0DE026
:101CE0002148807928B19FED230A204880ED000A21
:101CF00004E09FED150A1D4880ED000A1A48807B1C
:101D000038B11948407820B19FED1B0A174880ED83
:101D1000010A1648D0ED000AB0EE600A104805F03E
:101D200005FC0A4880ED000A1048D0ED010AB0EE2B
:101D3000600A0C4805F0FAFB044880ED010ABDEC8E
:101D4000028B10BD3900002000000000F4060020C6
:101D50003C000020D00A0020000080440000254400
:101D6000E8100020F8100020240B002004070020B9
:101D70009A9999BF9A99993F478E574010B51C4838
:101D80000078012808D11A48807828B99FED190AEF
:101D9000194880ED000A0FE01548007848B914484A
:101DA0008078012805D19FED150A134880ED000ABF
:101DB00002E0134805F04AF90F4890ED000A104878
:101DC000001F05F0B3FB0E48001F90ED011AF0EE66
:101DD000410A0C4890ED001AB0EE410AB2EE061A24
:101DE000094801F0E7FC094880ED020A10BD000037
:101DF000240B002000003CC25400002000003C42A4
:101E00000C110020DC080020AC130020F406002098
:101E10000246002002EA01030BB1012000E000208D
:101E20007047000010B500F01BFE04461148006822
:101E3000201AB0F5487F1BD90F4890ED020A0F48D1
:101E400080ED000A01F090F9DFED0D0A9FED0D0A1B
:101E50000D4805F091FBDFED0D0A9FED0A0A0C48D5
:101E600005F08AFB05200B49087000200A4908701C
:101E700010BD00004000002038010020E4060020D2
:101E80002CF9C53D0AD7233BE81000208FC2753DD1
:101E9000F81000203B0000203900002010B500F0B1
:101EA000DFFD044611480068201AB0F5487F1BD9B1
:101EB0000F4890ED020A0F4880ED000A01F054F936
:101EC000DFED0D0A9FED0D0A0D4805F055FBDFED26
:101ED0000D0A9FED0A0A0C4805F04EFB05200B4940
:101EE000087000200A49087010BD00004000002062
:101EF00038010020E40600202CF9C53D0AD7233B19
:101F0000E81000208FC2753DF81000203B00002033
:101F10003900002010B50549054800F031F918B125
:101F20000449034800F008F810BD000020800010AC
:101F300010600240200000100246094B9A4201D274
:101F4000084801E00648103801F000531BB1064B69
:101F50000B40C36002E0044B0B40836070470000FD
:101F600010640240006002407D0F7D0F21B10268C5
:101F700042F00102026003E0026822F00102026006
:101F800070470000016821F001010160002101603B
:101F900041608160C1600161212141614A498842FB
:101FA00004D13D21484A103A91608CE046491831ED
:101FB000884205D14FF47461434A103A916082E03F
:101FC00041493031884205D14FF474113E4A103AEC
:101FD000916078E03C494831884205D14FF0746106
:101FE000394A103A91606EE037496031884204D135
:101FF0003649354A103AD16065E033497831884234
:1020000004D13349304A103AD1605CE02E49903116
:10201000884204D12F492C4A103AD16053E02A4912
:10202000A831884205D14FF03D51274A103AD1607E
:1020300049E02949884204D13D21274A083A1160E4
:1020400041E025491831884205D14FF47461224A94
:10205000083A116037E020493031884205D14FF409
:1020600074111D4A083A11602DE01B49483188421D
:1020700005D14FF07461184A083A116023E01649FF
:102080006031884204D11149134A121F11601AE0CD
:1020900011497831884204D10D490F4A121F11604D
:1020A00011E00D499031884204D10A490A4A121FB1
:1020B000116008E00849A831884204D14FF03D5131
:1020C000054A121F11607047106002403D00002059
:1020D000400F002000003D201064024021B1026842
:1020E00042F48022026003E0026822F4802202604F
:1020F000704722B1036843F40023036003E00368E0
:1021000023F40023036001617047014600200A6840
:1021100002F001020AB1012000E0002070470146F0
:10212000486880B27047014600200A6802F4002225
:102130000AB1012000E000207047000030B50346DE
:102140000A46002000240B4DAB4201D20A4901E0AF
:102150000849103902F000550DB14C6800E00C68D8
:10216000064D2C4004EA02050DB1012000E00020DC
:1021700030BD000010640240006002407D0F7D0F02
:1021800070B50246002000240025124EB24201D252
:10219000114B01E00F4B103B104E0E4036B11E2686
:1021A00006EAD124166806EA040502E0566906F03C
:1021B000800501F000560EB15C6800E01C68084E16
:1021C000344004EA010616B10DB1012000E0002000
:1021D00070BD000010640240006002403C0F3C0FE4
:1021E0007D0F7D0F10B501F080034BB122B1436923
:1021F00043F08003436103E0436923F080034361BC
:1022000080290BD02AB1036801F01E042343036028
:1022100004E0036801F01E04A343036010BD000046
:1022200010B500220268134B1A40CC680B68234398
:102230004C6923438C692343CC6923430C6A2343B1
:102240004C6A23438C6A23434C6B23438C6B23439C
:102250001A430260426922F00702D1E90B3423439A
:102260001A4342610B6943604B6883608B68C360AB
:1022700010BD00003F801CF04160704700210160EC
:1022800041608160C160016141618161C161016240
:1022900041628162C162016341638163704730B50D
:1022A000044625460C21284603F066FF48B1B5F8E0
:1022B000090000F10E01284603F040FF08B101209B
:1022C00030BD0020FCE7000070B5A8B0032003F08B
:1022D0006DFFFF24002605F0AFF9044614B9002075
:1022E00028B070BD601EC4B21A4800EBC426002599
:1022F00007E02946304606F059F901A94855681CFF
:1023000085B29B2DF5D39B2201A91348FEF7C0FA95
:102310001148007858280FD10F4890F89A00582893
:102320000AD19B220C490D48FEF7B2FA0CA003F02B
:1023300045FF04F0BFFD0BE00EA003F03FFF582067
:102340000549087081F89A0000F000FA0020C7E7FC
:102350000120C5E700000E08D70900203C09002035
:10236000464C415348CAFDBEDDD0A3D1E9CDA8B942
:10237000FD0A0000464C415348CAFDBEDDD0A3D142
:10238000E9CAA7B0DC2CD5FDD4DAD6D8D0C2D0B4F7
:10239000C8EBCDB7CEB2C3DCC2EB0A000288A2F50F
:1023A0008062002A07DD0288A2F580628A4202DA92
:1023B0009FED0B0A70470288A2F58062002A08D5BB
:1023C0000288A2F580624B429A4202DD9FED040A28
:1023D000F0E7028800EE102AB8EE400AEAE70000B3
:1023E000000080447047000000BF00BFD0ED000A2D
:1023F000C0ED010A80ED000AD0ED000A90ED011A4F
:1024000070EEC10AC0ED030AD0ED030A9FED121A67
:10241000F4EEC10AF1EE10FA03D24169491C4161A0
:102420000BE0D0ED030A9FED0D1AF4EEC10AF1EEB8
:1024300010FA02DD4169491E416190ED001A4169BF
:102440004FF4B472514300EE901AF8EEE00A71EEC8
:10245000200AC0ED020A7047000066C30000664310
:1024600001490860704700000C3C024070B504460A
:102470000A460026092502B909E0012A01D11602FF
:1024800005E0022A01D1160201E04FF4407600F087
:102490009DF80546092D28D11548006820F44070A4
:1024A0001349086008460068304308600846006821
:1024B00020F0F80008600846006844F00201084374
:1024C0000B4908600846006840F48030086000F05E
:1024D0007DF805460648006820F0020004490860BF
:1024E0000846006820F0F8000860284670BD00002B
:1024F000103C024009201349096801F48031B1F50C
:10250000803F01D101201CE00E49096801F0100153
:1025100009B1062015E00B49096801F4807109B181
:1025200002200EE00749096801F0EF0109B1072018
:1025300007E00449096801F0020109B1082000E040
:10254000092070470C3C02400348006840F00040FE
:102550000149086070470000103C024030B5024657
:102560000C46092500F032F80546092D17D10D4813
:10257000006820F440700B49086008460068086055
:102580000846006840F001000860147000F01EF872
:1025900005460448006820F001000249086028460A
:1025A00030BD0000103C02400548006800F00040CB
:1025B00028B1044802490C39086003480860704794
:1025C000103C024023016745AB89EFCD08B50920D7
:1025D0000090FFF78FFF009002E0FFF78BFF009065
:1025E0009DF800000128F8D09DF8000008BD00000B
:1025F00010B54FF46171044802F063F84FF4617153
:10260000014802F060F810BD0008004010B540F627
:10261000FC01044802F055F840F6FC01014802F0C4
:1026200052F810BD0008004010B50021014801F02B
:1026300095FF10BD0004004010B50121014801F0D4
:102640008DFF10BD0004004010B5FFF73DFEB8B986
:102650000CA003F0B3FD40F6B83004F0C7FE00BF95
:10266000BFF34F8F1148006800F4E0601049084341
:10267000001D0E490860BFF34F8F00BF00BFFEE78B
:1026800010BD0000504944CAFDBEDDB3F6B4EDA351
:10269000A1A3A1A3A1C8FDC3EBD6D3BAF3D6D8C6D4
:1026A000F4A3A1A3A1A3A10A000000000CED00E087
:1026B0000000FA0510B51C48D0ED000AB0EE600A23
:1026C0009FED1A1ADFED1A0A1A4801F073F81A483A
:1026D00080ED020A90ED021AF0EE410A1748B0F9B7
:1026E0000C0001EE100AB8EEC11AB0EE410A9FEDDF
:1026F000141A144801F05EF80F4880ED010A124ADE
:1027000092ED010AB1EE400ABDEEC00A10EE102AA9
:1027100011B2024692ED010ABDEEC00A10EE102A77
:1027200010B201F027FE10BDDC0800200000AF430E
:1027300000000000F1130020E40600202811002012
:1027400000409C4598120020D406002070B5A8B027
:102750001EA003F033FDFF25002604F06DFF0546A3
:102760003E2D08DD582004F0CBFD08B1002502E025
:10277000002028B070BD1A4800EBC526FFF714FFF3
:102780009B22184901A8FEF783F800240AE001A85B
:10279000025D2146304606F0D9FD08B90020E8E781
:1027A000601C84B29B2CF2D3FFF7CEFE052003F011
:1027B000FDFC9B220B490C48FEF76AF80BA003F0C6
:1027C000FDFC04F077FB0120D3E70000666C617329
:1027D00068D0B4C8EBD6D0A3A1A3A1A3A1A3A100A4
:1027E00000000E08D70900203C090020666C6173C8
:1027F00068D0B4C8EBCDEAB1CFA3A1A3A10000007B
:1028000070B506460324002509E0204601F0D8FCF7
:10281000304604F0EBFD6006040E681CC5B2032DC3
:10282000F3DB002508E0204601F0CAFC304604F046
:10283000DDFD6410681CC5B2052DF4DB70BD000021
:1028400000B58BB00121042001F050FB01210820CC
:1028500001F03CFB02220C21314800F0C8F80222B2
:102860000D212F4800F0C3F84FF44050099002208A
:102870008DF8280003208DF8290000208DF82A000B
:1028800001208DF82B0009A9254800F068F8532095
:10289000ADF818000020ADF81A0040F6C3100790FC
:1028A0000020ADF8200006A91E4801F00FFF70209F
:1028B000ADF804000120ADF806000220ADF81000CC
:1028C00001A9184801F056FE0821164801F090FEB3
:1028D0000121144801F036FE0121124801F03EFEAC
:1028E00001A9104801F08EFE08210E4801F0DCFE1F
:1028F00001210C4801F026FE01210A4801F02EFEBC
:102900004FF46171074801F0DCFE4FF46171054836
:1029100001F0D9FE4FF4FA7004F068FD0BB000BD71
:10292000000C02400008004008B500F099F8009043
:1029300014E00121684606F013FA00F091F8002037
:1029400004F0F2FC20B10021084601F013FD05E07F
:10295000012004F0E9FC08B100F0BCF8E9E7F0B5AB
:102960000A4600210023002400BF3DE0012505FAAE
:1029700001F3156805EA03049C4234D105684F0051
:102980000326BE40B543056015794E00B540066884
:10299000354305601579012D02D01579022D16D128
:1029A00085684F000326BE40B543856055794E00CB
:1029B000B540866835438560456801268E40B5433D
:1029C0004560456896798E40B6B235434560C56826
:1029D0004F000326BE40B543C560D5794E00B540D3
:1029E000C6683543C560491C1029BFD3F0BDF0B59A
:1029F000002300244D07ED0E02FA05F3CE1000F17E
:102A0000200555F826504E07F70E0F26BE40B54359
:102A1000CF1000F1200646F82750CE1000F1200517
:102A200055F8265045EA0304CE1000F1200545F87C
:102A30002640F0BD0246002013690B400BB1012077
:102A400000E00020704741837047018370474FF6D4
:102A5000FF7101600021017141718171C171704785
:102A600010B507F013F9012802D007F01FF910BDC7
:102A700001480068FBE700002C00002030B5034649
:102A800013B94FF6FF7030BD09E013F8014B82EA2D
:102A90000400C0B2054D35F8100080EA2222081E5D
:102AA000A1F10101F1D11046EDE70000DEA200081E
:102AB00030B5034605E013F8010B80EA0204044830
:102AC000025D081EA1F10101F5D1104630BD0000E4
:102AD000DDA1000810B50E480078052801D100F0EE
:102AE00019F80B48007808B900F04AF9084800784E
:102AF000042803D1FFF7DEFDFFF794F904480078BE
:102B0000032803D100F016F9FFF7C8F910BD000043
:102B10003B00002010B52DED088B74480078E8BB11
:102B2000734890ED020ADFED730A30EE600A10EE92
:102B3000101A0846FEF77EF841EC1B0B9FED6E0B5A
:102B400053EC102BFDF784FF41EC190B6C4890ED12
:102B5000000A10EE101A0846FEF76CF841EC1A0B4A
:102B600053EC192BFDF7CDFE41EC180BFEF78EF858
:102B7000634908606348D0ED001A9FED632A32EE86
:102B8000612A6248D0F81B0001EE900A72EE211A09
:102B9000B0EE611A5B48D0ED001A00E016E09FED40
:102BA0005C2A32EE612A5948D0F81B0001EE900AE7
:102BB00072EE211AF0EE610A0846D0ED001AB0EE6E
:102BC000610A04F0E9FC4E4880ED000A47480078AD
:102BD00001284CD14F49B1F90A00FEF71AF841EC2F
:102BE0001B0B9FED4D0B53EC102BFDF731FF41EC10
:102BF000190B434890ED000A10EE101A0846FEF734
:102C000019F841EC1A0B53EC192BFDF77AFE41EC45
:102C1000180BFEF73BF83A4908603A48D0ED001A25
:102C20009FED392A32EE612A3848D0F81B0001EEB8
:102C3000900A72EE211AB0EE611A3248D0ED001AF5
:102C40009FED332A32EE612A3048D0F81B0001EEA6
:102C5000900A72EE211AF0EE610A0846D0ED001AD1
:102C6000B0EE610A04F098FC254880ED000A244883
:102C700090ED001AF0EE410A2448D0F81B0000EE57
:102C8000100A9FED271A274800F094FD1C4880ED9C
:102C9000020A90ED021AF0EE410A1C48B0F90C004D
:102CA00001EE100AB8EEC11AB0EE410A9FED1E1AED
:102CB0001E4800F07FFD124880ED010A1C4A92ED8B
:102CC000010AB1EE400ABDEEC00A10EE102A11B2A0
:102CD000024692ED010ABDEEC00A10EE102A10B2B3
:102CE00001F048FBBDEC088B10BD00003C0000204B
:102CF000D00A002000008044FCA9F1D24D62403F80
:102D0000E4060020DC0800200000704228110020AA
:102D1000000070C2100B0020FCA9F1D24D62803F70
:102D200000002F442213002000409C4598120020F0
:102D3000D406002010B59FED0F0A0F4880ED000A61
:102D400000F058FB0C4A92ED010AB1EE400ABDEECC
:102D5000C00A10EE102A11B2084A92ED010AB1EE33
:102D6000400ABDEEC00A10EE102A10B201F002FBBC
:102D700010BD000000000000D4060020E406002082
:102D800010B5FFF76DFE0B4A92ED010AB1EE400A55
:102D9000BDEEC00A10EE102A11B2074A92ED010AE8
:102DA000B1EE400ABDEEC00A10EE102A10B201F0DA
:102DB000E1FA10BDD4060020E406002000BFFEE7C3
:102DC00010B513480078E0B91248006800EE100A08
:102DD000B5EEC00AF1EE10FA11DDFFF72DFCDC2094
:102DE00005F084FF0B48006800EE100AF7EE000AB9
:102DF00030EE600A10EE100A0649086001E0FFF7A5
:102E000013FC03480078012801D1FFF715FC10BD21
:102E10003D0000204C00002010B52F48007800280D
:102E200058D12E480078032854D12D480078022824
:102E300050D12C4890ED000ADFED2B0AB4EEE00AE9
:102E4000F1EE10FA46DD90ED010ADFED280AB4EE4E
:102E5000E00AF1EE10FA3DD22548007818B9FFF7E4
:102E6000FFFD2449086022480078401C2049087072
:102E70000846007804281AD1FFF7F2FD1D490968B9
:102E8000401A40F6B83188420BD200201849087029
:102E900019A003F093F901F0F9F81DA003F08EF9E1
:102EA00005E00020124908701EA003F087F9FFF723
:102EB000D7FD10490968401A40F6B831884209D94F
:102EC0000B480078042805DA00200949087015A08D
:102ED00003F074F910BD000038000020E00A002063
:102EE000F80A0020D00A00200000B24400001C4470
:102EF0004800002044000020BDF8D0D0D2BBB4CEA2
:102F0000D0A3D7BC50D6E159D6E1D0A3D7BC0A0094
:102F1000D0A3D7BCCDEAB3C9A3A1A3A1A3A1A3A168
:102F20000A000000D0A3D7BCB3ACCAB100000000B7
:102F30007047000010B507480078012802D101F061
:102F400045FA05E0FFF754FB0021034801F006FBBA
:102F500010BD0000380000200004004010B51248E9
:102F6000407C012808D111480078012804D10020B4
:102F70000F4908700F4908700D48007898B90E483D
:102F8000C07C012802D10D48C07C10B107480078F0
:102F900048B9FEF733FEFEF71FFE0520044908700E
:102FA00000200449087010BD100B0020980E00206E
:102FB0003B00002039000020E00A0020F80A002031
:102FC00010B522484078012816D1214840780328BE
:102FD00012D1012005F00CFB012005F003FB0420B9
:102FE00005F0FAFA012005F0E5FAFFF739FD194975
:102FF000086019A003F0E2F81A48808C40B100BFC5
:1030000013484078032803D10220174908700CE0C8
:103010000F484078012808D113480078032804D0CD
:1030200000201149087011490870094840780328A8
:1030300003D100200E49087006E0054840780228B8
:1030400002D101200A49087010BD0000E00A0020EA
:10305000F80A002040000020D4CBD0D0C4A3CABDC1
:103060000A00000050010020380000203A00002033
:103070003C00002010B51948007D012804D11848F3
:10308000007D08B9FEF768F91448407D012815D184
:103090001348407D002811D112A000F05FFD15A05B
:1030A00000F05CFD16A000F059FD18A000F056FDE0
:1030B0001AA000F053FD1CA000F050FD0748C07D91
:1030C000012809D10648C07D30B958201949087037
:1030D00081F89A00FFF73AFB10BD0000F80A0020C3
:1030E000E00A0020535441545F4A554447455F74F9
:1030F00061736B004348415349535F7461736B00C4
:1031000047494D42414C5F7461736B00434F4E43DE
:103110004C5544455F7461736B000000414E4F5F36
:1031200044545F7461736B004155585F7461736BF5
:1031300000000000D70900201CB50121102000F07C
:10314000C5FE0F20009000208DF8040003208DF8AC
:10315000050001208DF8070069460248FFF7FFFBD4
:103160001CBD000000100240054890ED090ADFED8B
:10317000050A30EE600A044880ED000A704700003E
:10318000DC08002000008045D406002001F0400249
:1031900012B10122027001E00022027001F001026E
:1031A00012B10122427001E00022427001F080025F
:1031B00012B10122827001E00022827001F480725B
:1031C00012B10122C27001E00022C27001F00402BB
:1031D00012B10122027101E00022027101F002022B
:1031E00012B10122427101E00022427101F0080295
:1031F00012B10122827101E00022827101F4007299
:1032000012B10122C27101E00022C27101F4806298
:1032100012B10122027201E00022027201F4006286
:1032200012B10122427201E00022427201F4805286
:1032300012B10122827201E00022827201F4005276
:1032400012B10122C27201E00022C27201F4804276
:1032500012B10122027301E00022027301F4004264
:1032600012B10122427301E00022427301F0100208
:1032700012B10122827301E00022827301F0200268
:1032800012B10122C27301E00022C2737047000034
:1032900031480078002812DD3048006808B9012064
:1032A00000E000202D4908602B480078401E2A4984
:1032B00008700846007810B901202849086028489D
:1032C0000078002815DD2548001F006808B9012096
:1032D00000E000202149091F086021480078401EB5
:1032E0001F4908700846007818B901201B49091FBA
:1032F00008601C480078002815DD18480838006868
:1033000008B9012000E00020144908390860154878
:103310000078401E134908700846007818B901204B
:103320000E490839086010480078002812DD0F485F
:10333000006808B9012000E000200C4908600A4834
:103340000078401E084908700846007810B901202E
:10335000064908607047000065000020980242425C
:10336000660000206700002068000020B40241428F
:103370001CB50121142000F0A9FD4FF4005000906D
:1033800001208DF8040000208DF8060003208DF840
:10339000050069460A48FFF7E2FA70200090694686
:1033A0000848FFF7DCFA0120074908600749C1F81F
:1033B0009002074908600549C1F898021CBD000049
:1033C0000008024000100240B402414200004242A4
:1033D000940242420548007880F0010003490870D9
:1033E0000846007802490860704700007800002015
:1033F000B402414290ED000AF3EE040AB4EEE00A92
:10340000F1EE10FA03DDB3EE040A80ED000A90ED50
:10341000000AFBEE040AB4EEE00AF1EE10FA03D261
:10342000BBEE040A80ED000A7047000010B50023CF
:103430001A4619460248006806F0E0F910BD00007F
:10344000300000209FED060A064880ED000A9FED3F
:10345000040A80ED010A9FED020A80ED020A70471E
:1034600000000000F406002010B504462078FF2874
:1034700003D000202D49087010BD6079A0B900204C
:103480002A4908709FED2A0A084680ED010A9FED3F
:10349000280A80ED020A9FED260A80ED080A9FEDBA
:1034A000240A80ED090AE7E70120204908706078C6
:1034B000A17840EA012000B200EE100AB8EEC00A7E
:1034C000B1EE400AF2EE040A80EE201A174880EDB1
:1034D000011AE078217940EA012000B200EE100ADA
:1034E000B8EEC00AF2EE040A80EE201A0F4880ED12
:1034F000021A6079A17940EA012000B200EE100AB8
:10350000B8EEC00A094880ED050AE079217A40EA60
:10351000012000B200EE100AB8EEC00A034880EDA8
:10352000040AFDF7BBFD00BFA6E70000980E0020CF
:103530000000000000BFFEE710B53348407A0328C2
:1035400010D13248807C012803D02F48007A02280D
:1035500004D101212E4801F001F803E000212C489C
:1035600000F0FCFF2848407A02284CD12948007816
:1035700010BB2648807C01281ED12748807CD8B902
:103580002648006800EE100AF7EE000A30EE200A26
:1035900010EE100A214908600846006800EE100A83
:1035A000F2EE040AB4EEE00AF1EE10FA04DDB2EE37
:1035B000020A10EE100A08601448807C012810D11D
:1035C0001448007868B915484068401C13494860A1
:1035D00008464068E62804D90020486001200D49CB
:1035E00008700C48007801280DD10848807C50B93B
:1035F0000020084908709FED0A0A10EE100A0749DA
:1036000008600020486010BD100B0020F80A002060
:10361000000400403D000020E00A00204C00002093
:10362000000000001CB50121084600F04FFCA0205E
:10363000009001208DF8040000208DF80600032082
:103640008DF8050001208DF8070069460848FFF74E
:1036500086F920210648FFF7F8F980210448FFF792
:10366000F4F94FF47A71142000F014FF1CBD00002F
:103670000000024010B50446102221462548FDF7FF
:1036800007F9244890ED010AB8EEC00ADFED220ADE
:1036900020EE600A10EE100A2049C1F817001D48FC
:1036A00090ED000AB8EEC00ADFED1B0A20EE200AFA
:1036B00010EE100AC1F81300164890ED030AB8EE98
:1036C000C00ADFED150A20EE600ABDEEC00A10EE5A
:1036D000100A01B2114801810E4890ED020AB8EEBD
:1036E000C00ADFED0D0A20EE200ABDEEC00A10EE82
:1036F000100A01B209488181D0F8170000EE100AC3
:103700000748FEF771FE064880680449C1F81B00AF
:1037100010BD0000C81000200AD7233C281100204B
:10372000380100207047000070B5002100230F22EF
:10373000C4781CB3174C246804F4E064C4F5E06456
:10374000C4F30721C1F10404E3B20A4144789C4068
:10375000E1B28478144021430C07210E0E4C057809
:103760006155047804F01F050124AC4005786D1103
:10377000AD0005F1E025C5F8004109E0047804F04A
:103780001F050124AC40054D0678761145F826400A
:1037900070BD00000CED00E000E400E080E100E01E
:1037A00002490143024A1160704700000000FA0517
:1037B0000CED00E0F0EE401A10B99FEDA90A704739
:1037C00011EE101AC0F80D10D0F83D10C0F84110DD
:1037D000D0F83910C0F83D1010EE901AC0F815104E
:1037E00011EE901AC0F8191030EEE10A10EE101A1E
:1037F000C0F83910017800297ED150F8011F00EE81
:10380000101A816B02EE101A20EE020A10EE101A46
:103810000162416A00EE101A416802EE101A816BD3
:1038200002EE901A02EE220A10EE101A4162401EB9
:10383000D0F83110C0F83510D0F82D10C0F8311084
:10384000D0F8391000EE101AD0F83D1002EE101A20
:1038500030EE420A10EE101A09304162016800EEA3
:10386000101A416A02EE101A20EE020A10EE101A27
:103870000162C16900EE101A8168093802EE101A5F
:10388000B4EEC20AF1EE10FA04DDD0F81110C0F85F
:10389000251018E0D0F8251000EE101AD0F81110FD
:1038A00002EE101AB1EE422AB4EEC20AF1EE10FA9C
:1038B00009D2D0F8111000EE101AB1EE400A10EE45
:1038C000101AC0F825100D30416900EE101A8169F8
:1038D00002EE101A30EE022AC16900EE101A32EE22
:1038E000000A10EE101A0161016900EE101A50F87A
:1038F0000D1902EE101A00E023E0B4EEC20AF1EE58
:1039000010FA04DDD0F80D10C0F81D10A3E0D0F8B7
:103910001D1000EE101AD0F80D1002EE101AB1EEC4
:10392000422AB4EEC20AF1EE10FA09D2D0F80D1014
:1039300000EE101AB1EE400A10EE101AC0F81D1079
:1039400089E0017801296CD1D0F8391000EE101A05
:10395000D0F83D1002EE101A30EE422A50F8011F46
:1039600000EE101A22EE000A10EE101A01624168F1
:1039700000EE101A816B02EE101A20EE020A10EE11
:10398000101A4162401ED0F83110C0F83510D0F83E
:103990002D10C0F83110D0F8391000EE101AD0F800
:1039A0003D1002EE101AF0EE002A02EEC20AD0F824
:1039B000411002EE101A30EE020A10EE101A093011
:1039C0004162016800EE101A416A02EE101A20EE00
:1039D000020A10EE101A0162816900EE101AC16924
:1039E00002EE101A30EE022A016A00EE101A32EED0
:1039F000002A416900EE101A32EE000A10EE101A89
:103A00004161416900EE101A4168093802EE101A4E
:103A1000B4EEC20AF1EE10FA04DDD0F80D10C0F8D1
:103A20001D1018E0D0F81D1000EE101AD0F80D107F
:103A300002EE101AB1EE422AB4EEC20AF1EE10FA0A
:103A400009D2D0F80D1000EE101AB1EE400A10EEB7
:103A5000101AC0F81D10D0F81D1000EE101AAEE6B6
:103A60000000000000B97047401C00F8011C10EE77
:103A7000102A026010EE902A426011EE102A826035
:103A800011EE902AC26012EE102A0261401EDFED94
:103A90000D2A12EE902AC0F83520C0F831201D30D2
:103AA0000261DFED082A12EE902A0260C260826095
:103AB00042601D38C0F84120C0F83D20C0F83920D0
:103AC00000BFD0E70000000010B5DFED1A0A9FED3F
:103AD0001A0A1A4803F050FDDFED190A9FED160A85
:103AE000184803F049FDDFED180A9FED130A174847
:103AF00003F042FDDFED160A9FED160A164803F0AB
:103B00003BFD01F01BFDFEF79FFD00F0B5FA002024
:103B100004F06EFD012004F04DFD002003F004FCD4
:103B2000002004F04DFD002004F050FD0220FDF7C0
:103B3000AFFA10BD2CF9C53D6F12833BE810002091
:103B40008FC2753DF8100020EC51B83D08110020DF
:103B5000CDCC4C3E0AD7A33C1811002030B589B01B
:103B6000044618A002F02AFB204606F031F805466C
:103B7000052301226946284605F0E6F920A00199AF
:103B800002F01CFB25A0029902F018FB9DF80C1016
:103B900029A002F013FB2FA0049902F00FFB34A020
:103BA000059902F00BFB39A0079902F007FBBDF85D
:103BB00020103EA002F002FB43A002F0FFFA09B081
:103BC00030BD00002F2A2A2A2A2A2A2A2A2A2A2A0B
:103BD0002A2A2A2A2A2A2A2A2A2A2AC8CECEF1D0F2
:103BE000C5CFA22A2A2A2A2A2A2A2A2A2A2A2A2A7D
:103BF0002A2A2A2A2A2A2A2A2A2A2A2A2F0D0A0087
:103C0000C8CECEF1C3FB3A20202020202020202047
:103C10002020202020202025730D0A00C8CECEF1C0
:103C2000B1E0BAC53A2020202020202020202020EA
:103C300020202025640D0A00C8CECEF1D7B3CCAC2D
:103C40003A20202020202020202020202020202555
:103C5000640D0A00C8CECEF1B5B1C7B0D3C5CFC888
:103C6000BCB63A202020202020202025640D0A0008
:103C7000C8CECEF1BBF9D3C5CFC8BCB63A20202000
:103C80002020202020202025640D0A00C8CECEF15F
:103C9000B6D1D5BBBBF9B5D8D6B73A202020202065
:103CA0002020202523780D0A00000000C8CECEF188
:103CB000B6D1D5BBC0FACAB7CAA3D3E0D7EED0A15C
:103CC000D6B53A25640D0A002F2A2A2A2A2A2A2A3A
:103CD0002A2A2A2A2A2A2A2A2A2A2A2A2A2A2A2A44
:103CE0002A2A2ABDE1CAF82A2A2A2A2A2A2A2A2A7C
:103CF0002A2A2A2A2A2A2A2A2A2A2A2A2A2A2A2A24
:103D00002A2A2F0D0A000000428802804A780B7888
:103D100042EA03224280CA788B7842EA032212B236
:103D20008280B0F9042000EE102AB8EEC00ADFED60
:103D3000070A20EE200A80ED030A4A790B7942EA4D
:103D4000032212B2C2808A79027270470A01DA39FC
:103D500030B504460D466878297840EA0120A080F5
:103D6000194AD2F8892000EE102ABCEEC00A10EEE3
:103D7000102A91B2A28810B204F026FD00EE100ABB
:103D8000B8EEC00ADFED110A30EE600AB1EE400A6B
:103D9000DFED0F0A20EE200ADFED0C0A80EE201A7C
:103DA00084ED001A0B4890ED030A84ED020A90EDB1
:103DB000000A84ED030A90ED030AD0ED020A30EE0A
:103DC000600A84ED040A30BDD70900200000804558
:103DD00000003443DC08002010B5044620786178E8
:103DE00040EA0120C0F30A00354908806078C0101D
:103DF000A17840EA4110C0F30A0031494880A07818
:103E00008011E17840EA8100217940EA8120C0F305
:103E10000A002B49888020794010617940EAC1105E
:103E2000C0F30A002649C880607900118008087232
:103E30006079C0F301104872A079E17940EA01206D
:103E400000B21F494881207A617A40EA012001B21C
:103E50001B488181A07AE17A40EA012001B218482A
:103E6000C181217B0174617B4174A07BE17B40EACD
:103E700001201349488232211148FEF78FFA114878
:103E800080ED000A32210E48801CFEF787FA0D48AB
:103E900080ED010A32210A48001DFEF77FFA094829
:103EA00080ED020A32210648801DFEF777FA0548A8
:103EB00080ED030A0248418A0348FFF767F910BD05
:103EC000100B0020D00A0020240B002029B1064A44
:103ED00012680243044B1A6004E0034A12688243EA
:103EE000014B1A60704700003038024029B1064A81
:103EF00012680243044B1A6004E0034A12688243CA
:103F0000014B1A60704700004038024029B1064A50
:103F100012680243044B1A6004E0034A12688243A9
:103F2000014B1A60704700002038024029B1064A50
:103F300012680243044B1A6004E0034A1268824389
:103F4000014B1A60704700004438024029B1064A0C
:103F500012680243044B1A6004E0034A1268824369
:103F6000014B1A607047000024380240F0B5002170
:103F700000220024022500260223324F3F6807F06A
:103F80000C0121B1042905D0082937D105E02E4FB5
:103F9000076036E02D4F076033E02A4F3F1F3F6830
:103FA000C7F38056274F3F1F3F6807F03F036EB1AE
:103FB000264FB7FBF3F7DFF88CC0ACF1040CDCF84C
:103FC00000C0CCF3881C07FB0CF40CE01E4FB7FBC1
:103FD000F3F7DFF870C0ACF1040CDCF800C0CCF3F0
:103FE000881C07FB0CF4174F3F1F3F68C7F30147BE
:103FF0007F1C7D00B4FBF5F7076002E0124F0760FD
:1040000000BF00BF0F4F3F6807F0F0010909104FD4
:104010007A5C0768D74047600A4F3F6807F4E05171
:10402000890A0B4F7A5C4768D7408760054F3F6825
:1040300007F46041490B064F7A5C4768D740C76078
:10404000F0BD0000083802400024F40000127A009D
:104050008700002008B5FEF703FD009009E001216C
:10406000684604F07DFEFEF7FBFCA521014804F044
:10407000BFFBF4E7E40100204FF4806002490880B0
:1040800048808880C8807047100B002010B50C480D
:10409000808B00EE100AB8EE400A10EE100A0949B3
:1040A000C1F885000648808800EE100AB8EE400A84
:1040B00010EE100AC1F88900FFF7B8F910BD000032
:1040C000DC080020D709002010B518222349244815
:1040D000FCF7DEFB2348007A204908702148407A2B
:1040E00048702148C07B48741E48407C08B10120BC
:1040F00000E000201949C8741A48007C08B101206A
:1041000000E000201549887401211848FEF792FC50
:1041100008B9012000E00020104908750221134869
:10412000FEF788FC08B9012000E000200B49487523
:1041300004210E48FEF77EFC08B9012000E00020B3
:104140000649887508210948FEF774FC08B9012062
:1041500000E000200149C87510BD0000F80A0020E9
:10416000E00A0020100B0020240B00200010024069
:1041700008B5FEF775FC009007E00121684604F0E1
:10418000EFFDFEF76DFCFEF71BFEF6E708B5FEF748
:1041900067FC009013E00121684604F0E1FDFEF7A2
:1041A0005FFCFFF791FFFEF70BFFFEF7C3FEFEF784
:1041B000D5FEFEF7BDFEFEF75DFFFEF72DFEEAE73A
:1041C00000F0010119B10021144A116002E001213F
:1041D000124A116000F0020119B10021104A116069
:1041E00002E001210E4A116000F0040121B100211A
:1041F0000B4A121F116003E00121094A121F1160CE
:1042000000F0080121B10021054A083A116003E0DD
:104210000121034A083A116070470000B40241428C
:10422000980242420CB5002001900090344800688A
:1042300040F480303249086000BF3148006800F423
:10424000003000900198401C0190009818B9019826
:10425000B0F5A04FF1D12A48006800F4003010B149
:104260000120009001E0002000900098012846D134
:1042700023484030006840F08050214940310860B8
:104280002048006840F440401E4908601C4808303F
:1042900000681B49083108600846006840F4004087
:1042A00008600846006840F4A05008601648091FDE
:1042B0000860081F006840F08070091F086000BF98
:1042C0000F48006800F000700028F9D040F2057037
:1042D0000E4908600A480830006820F003000849C9
:1042E000083108600846006840F00200086000BF1E
:1042F00003480830006800F00C000828F8D10CBD15
:10430000003802400070004008544007003C024062
:10431000F0B585B004460D4616461F464FF40070B2
:10432000009000208DF808008DF8090008208DF815
:104330000A00200A8DF80B00E1B28DF80C10290A52
:104340008DF80D10E9B28DF80E10310A8DF80F10AE
:10435000F1B28DF81010390A8DF81110F9B28DF8FC
:10436000121069460248FDF7BEFA05B0F0BD000024
:104370000064004030B585B004460D4640F2FF10A1
:10438000009000208DF808008DF8090008208DF8B5
:104390000A00200A8DF80B00E1B28DF80C10290AF2
:1043A0008DF80D10E9B28DF80E1000218DF80F1068
:1043B0008DF810108DF811108DF812106946024812
:1043C000FDF791FA05B030BD0064004010B5084813
:1043D000007A032803D00648007A022804D1FEF7A9
:1043E00015F9FFF7A9F801E0FEF702F910BD00008A
:1043F000100B0020042808D14FF0E021096941F09A
:1044000004014FF0E022116107E04FF0E02109695B
:1044100021F004014FF0E0221161704710B505F062
:1044200035FC012801D005F059F810BD10B515482C
:10443000006840F47000134908601348006840F0B9
:1044400001001149086000200F49083108600E483A
:1044500000680E4908400C4908600D48091D0860B5
:10446000081F006820F48020091F0860002006490A
:104470000C310860FFF7D6FE4FF00060014980392B
:10448000086010BD88ED00E000380240FFFFF6FE36
:104490001030002430B58BB004460D4601210220B7
:1044A000FFF724FD01210846FFF710FD0222062137
:1044B0002248FEF79CFA4020099002208DF828003F
:1044C00003208DF8290000208DF82A0001208DF8A6
:1044D0002B0009A91948FEF742FAA8B2ADF8180056
:1044E0000020ADF81A000794ADF8200006A9144882
:1044F00000F0ECF86020ADF804000120ADF80600F3
:104500000020ADF8100001A90D4800F033F8082193
:104510000B4800F06DF80121094800F013F8012163
:10452000074800F01BF80021054800F017F80121AA
:10453000034800F0C6F80BB030BD00000000024098
:104540000004004021B1028842F08002028004E0B1
:1045500002884FF67F731A400280704721B10288AB
:1045600042F00102028004E002884FF6FE731A4016
:104570000280704770B5002400220023058C4FF69E
:10458000FE7635400584028C8388048B4FF68F7548
:104590002C40B51E2C400D882C43751E2A408D8959
:1045A0002A434D882A43104DA84202D00F4DA842FD
:1045B00013D14FF6F7752A40CD892A434FF6FB7584
:1045C0002A408D882A434FF6FF652B404FF6FF5552
:1045D0002B400D8A2B434D8A2B43838004838D68A7
:1045E0004563028470BD00000000014000040140EA
:1045F0000A460021018B4FF6F773194011430183DE
:104600007047000070B5002400220023058C4FF68F
:10461000EF7635400584028C8388048B48F6FF755D
:104620002C404FF6FF452C400D884FF6FF7606EAEA
:1046300005252C434FF6DF752A408D8906EA0515BE
:104640002A434D8806EA05152A43154DA84202D093
:10465000144DA8421DD14FF67F752A40CD894FF6E3
:10466000FF7606EA05152A434FF6BF752A408D8866
:1046700006EA05152A434FF6FF352B404FF2FF752A
:104680002B400D8A06EA85052B434D8A06EA8505EF
:104690002B43838004838D688563028470BD000092
:1046A00000000140000401400A460021018B4FF246
:1046B000FF7319404FF6FF7303EA02231943018386
:1046C0007047416370478163704700000022028891
:1046D000184B98420ED0184B98420BD0B0F1804F37
:1046E00008D0164B984205D0154B984202D0154B76
:1046F000984204D14FF68F731A404B881A43124BDD
:10470000984207D0114B984204D04FF6FF431A400D
:104710000B891A4302804B68C3620B880385054BE3
:10472000984202D0044B984201D18B7A0386012330
:1047300083827047000001400004014000040040F3
:1047400000080040000C0040001000400014004031
:1047500010B504461CB12046FDF7A1FD00B910BDFF
:104760007A222146FE48FCF793F8FD48808900EE46
:10477000100AF8EE400A9FEDFB1A80EE810A10EE57
:10478000100AF949C1F80100F548C08900EE100A85
:10479000F8EE400A9FEDF31A80EE810A10EE100A3F
:1047A000C1F80500EE48008A00EE100AF8EE400A53
:1047B0009FEDEC1A80EE810A10EE100AC1F8090094
:1047C000E748408A00EE100AF8EE400A9FEDE51A2D
:1047D00080EE810A10EE100AC1F80D00E048808AD0
:1047E00000EE100AF8EE400A9FEDDE1A80EE810A14
:1047F00010EE101ADC48C0F81110D948C08A00EE3B
:10480000100AF8EE400A9FEDD71A80EE810A10EEEA
:10481000101AD548C0F81510D148008B00EE100AC8
:10482000F8EE400A9FEDCF1A80EE810A10EE100AD2
:10483000CD49C1F81900CA48408B00EE100AF8EEC5
:10484000400A9FEDC81A80EE810A10EE101AC64881
:10485000C0F81D10C248808B00EE100AF8EE400A26
:104860009FEDC01A80EE810A10EE101ABE48C0F803
:104870002110BB48C08B00EE100AF8EE400A9FEDF5
:10488000B91A80EE810A10EE100AB749C1F8250066
:10489000B348008C00EE100AF8EE400A9FEDB11A02
:1048A00080EE810A10EE101AAF48C0F82910AC480B
:1048B000408C00EE100AF8EE400A9FEDAA1A80EE36
:1048C000810A10EE101AA848C0F82D10A448808C58
:1048D00000EE100AF8EE400A9FEDA21A80EE810A5F
:1048E00010EE100AA049C1F855009D48C08C00EE9A
:1048F000100AF8EE400A9FED9B1A80EE810A10EE36
:10490000100AC1F859009648008D00EE100AF8EE22
:10491000400A9FED941A80EE810A10EE100AC1F849
:104920005D008F48408D00EE100AF8EE400A9FEDC2
:104930008D1A80EE810A10EE100AC1F849008848ED
:10494000808D00EE100AF8EE400A9FED861A80EE88
:10495000810A10EE100AC1F84D008148C08D00EEAA
:10496000100AF8EE400A9FED7F1A80EE810A10EEE1
:10497000100AC1F851007A48008E00EE100AF8EED5
:10498000400A9FED781A80EE810A10EE100AC1F8F5
:104990003D007348408E00EE100AF8EE400A9FED8D
:1049A000711A80EE810A10EE100AC1F841006C48BD
:1049B000808E00EE100AF8EE400A9FED6A1A80EE33
:1049C000810A10EE100AC1F845006548C08E00EE5D
:1049D000100AF8EE400A9FED631A80EE810A10EE8D
:1049E000100AC1F831005E48008F00EE100AF8EEA0
:1049F000400A9FED5C1A80EE810A10EE100AC1F8A1
:104A000035005748408F00EE100AF8EE400A9FED3F
:104A1000551A80EE810A10EE100AC1F8390050488C
:104A2000808F00EE100AF8EE400A9FED4E1A80EEDD
:104A3000810A10EE100AC1F861004948C08F00EEEB
:104A4000100AF8EE400A9FED471A80EE810A10EE38
:104A5000100AC1F865004248B0F8400000EE100AA4
:104A6000F8EE400A9FED3F1A80EE810A10EE100A20
:104A7000C1F869003A48B0F8420000EE100AF8EEBA
:104A8000400A9FED381A80EE810A10EE100AC1F834
:104A900079003348B0F8440000EE100AF8EE400AFE
:104AA0009FED301A80EE810A10EE100AC1F87D00E9
:104AB0002B48B0F8460000EE100AF8EE400A9FEDD1
:104AC000291A80EE810A10EE100AC1F881002448EC
:104AD000B0F8480000EE100AF8EE400A9FED211AE7
:104AE00080EE810A10EE100AC1F86D001C48B0F883
:104AF0004A0000EE100AF8EE400A9FED1A1A80EE06
:104B0000810A10EE100AC1F871001548B0F84C0087
:104B100000EE100AF8EE400A9FED121A80EE810AAC
:104B200010EE100AC1F875000D48B0F84E0000EE06
:104B3000100AF8EE400A9FED0B1A80EE810A10EE83
:104B4000100AC1F88D000648B0F8500000EE100AB7
:104B5000F8EE400A9FED031A80EE810A06E000009D
:104B6000140700200000C842D709002010EE100AE8
:104B7000C1F891000948B0F8520000EE100AF8EEB2
:104B8000400A1FED081A80EE810A10EE100AC1F8E3
:104B90009500FDF7DBFD00BFE1E5000014070020F4
:104BA00010B540F22441234800F07AFE002840D09E
:104BB000204800881F48001D00881F48FDF7B3FAF1
:104BC000D8B900211C48FDF7D1F91B48FDF7A7FA19
:104BD000C0F1320019490870322017494039486441
:104BE0000846006C40F40020086401211248FDF7DB
:104BF000BDF91348FEF738FC1BE000210E48FDF715
:104C0000B5F90D48FDF78BFAC0F132000B49087079
:104C100032200949403948640846006C20F40020DD
:104C2000086401210448FDF7A1F905483230FEF778
:104C30001BFC10BD004C004040600240840000207E
:104C4000340E002010B5294800F0E4FEC4B240F252
:104C50002441264800F024FE002845D0234800883F
:104C6000224880882248FDF75EFAF0B900212048EA
:104C7000FDF77CF91E48FDF752FAC0F180001D498E
:104C8000087080201A49103948610846006940F4CC
:104C90000020086101211648FDF768F915480278DF
:104CA00015491648FBF7F3FB1EE000211048FDF7FD
:104CB0005DF90F48FDF733FAC0F180000D49087027
:104CC00080200B49103948610846006920F4002013
:104CD000086101210648FDF749F9064802780649AE
:104CE00080310648FBF7D3FB10BD000000500040A8
:104CF0001060024085000020C80E0020BC06002085
:104D000010B596B0044601210220FFF7DFF801211B
:104D10008805FFF7DBF801211020FFF707F90722CC
:104D200011464548FDF763FE14A8FDF790FE80206C
:104D3000149002208DF8540000208DF855000120B9
:104D40008DF8570014A93C48FDF709FE3B4800F0D8
:104D50002FFD10A800F063FE10940020ADF8440071
:104D6000ADF84600ADF848000420ADF84A00002038
:104D7000ADF84C0010A9314800F0E2FD01224021BD
:104D80002E4800F00BFD2E48FDF7FCF86846FDF7B5
:104D900075FA4FF0006000902848001D01902948E6
:104DA0000290002003902D200490002005904FF4E5
:104DB000806006900020079008904FF48070099062
:104DC00000020A9000200B900C900D900E90694606
:104DD0001B48FDF725FA00221A491E311848FDF735
:104DE00088F901211648FDF779F901211448FDF7EA
:104DF000BDF825208DF83C0002208DF83D000020F4
:104E00008DF83E0001208DF83F000FA8FEF78CFCC6
:104E1000012240F22441094800F06CFD01210748BD
:104E200000F0B0FC00221E21012004F071FB0649B5
:104E3000086016B010BD00000004024000100140E0
:104E400088640240740A00207C00002010B540F203
:104E50002441244800F024FD002841D02148008846
:104E6000204880882048FDF75EF9E0B900211E48FF
:104E7000FDF77CF81C48FDF752F9C0F11E001B49F4
:104E800008701E201849091D0860081F006840F4BA
:104E90000020091F086001211348FDF767F8144836
:104EA000FEF79AFF1CE000210F48FDF75FF80E485F
:104EB000FDF735F9C0F11E000C4908701E200A49A3
:104EC000091D0860081F006820F40020091F086001
:104ED00001210548FDF74AF805481E30FEF77CFF22
:104EE00010BD0000001001408864024080000020D6
:104EF000740A002010B540F22441264800F0D0FC8E
:104F0000002845D0234800882248001D00882248F8
:104F1000FDF709F9F0B900211F48FDF727F81E48F1
:104F2000FDF7FDF8C0F180001C49087080201A4987
:104F3000091D086018488838D0F8880040F400201F
:104F4000091F086001211448FDF710F81448FEF706
:104F500091FB1DE000211048FDF708F80E48FDF711
:104F6000DEF8C0F180000D49087080200A49091D53
:104F7000086009488838D0F8880020F40020091F0C
:104F8000086001210448FCF7F1FF0548FEF772FBB9
:104F900010BD0000004400408860024081000020F5
:104FA000340B002010B5A6B0044601210220FEF704
:104FB0008DFF01214805FEF789FF01218804FEF7D6
:104FC00095FF07220A216048FDF711FD07220B21FA
:104FD0005D48FDF70CFD24A8FDF739FD4FF4406056
:104FE000249002208DF8940003208DF89500012074
:104FF0008DF8970024A95448FDF7B1FC534800F000
:10500000D7FB20A800F00BFD20940020ADF8840011
:10501000ADF88600ADF888000C20ADF88A000020BD
:10502000ADF88C0020A9494800F08AFC01224021FB
:10503000464800F0B3FB01228021444800F0AEFB5B
:105040004348FCF79FFF10A8FDF718F94FF00060E8
:1050500010903E48001D11903E4812900020139081
:1050600080201490002015904FF48060169000204E
:10507000179018904FF48070199000021A90002039
:105080001B901C901D901E9010A93148FDF7C8F888
:105090000022304980312E48FDF72BF801212C48A1
:1050A000FDF71CF801212A48FCF760FF27208DF846
:1050B0007C0002208DF87D0000208DF87E0001200C
:1050C0008DF87F001FA8FEF72FFB012240F224413C
:1050D0001E4800F00FFC01211C4800F053FB012189
:1050E0004805FEF7F3FE1A483030FCF74BFF00BFCF
:1050F00017483030FDF709F80028F9D14FF000606B
:1051000001901248001D0290134803904020049023
:1051100080000590002006904FF4806007900020EA
:10512000089009900A904FF480300B9000200C906A
:1051300003200D9000200E900F9001A904483030FC
:10514000FDF76EF826B010BD000402400048004094
:1051500028600240340D0020340C002010B540F2CD
:105160002441294800F09CFB00284AD026480088AA
:105170002548001D00882548FCF7D5FF00BB00210D
:105180002248FCF7F3FE2148FCF7C9FFC0F180007C
:105190001F49087080201D492839C8620846806A66
:1051A00040F40020886201211848FCF7DFFE18480F
:1051B00000787A2800D010BD1648FFF7C9FA20E021
:1051C00000211248FCF7D2FE1048FCF7A8FFC0F1FE
:1051D00080000F49087080200C492839C8620846B1
:1051E000806A20F40020886201210848FCF7BEFE96
:1051F000074800787A2800D0DDE706488030FFF7BE
:10520000A7FA00BFD7E7000000480040286002402E
:1052100083000020340D002010B5044615480078A6
:1052200030B94FF0C0511448FCF788FF00B910BDE9
:105230004FF0C0511048FCF77FFE012280210F483B
:1052400000F0ACFA00210C48FCF790FE00BF0A48C1
:10525000FCF75BFF0028FAD121460748FDF70CF860
:1052600001210548FCF782FE00200249087000BFBA
:10527000DDE7000082000020586002400048004046
:1052800010B596B0044601210420FEF71FFE01214F
:105290004805FEF71BFE0121C804FEF727FE082281
:1052A0000B214248FDF7A3FB14A8FDF7D0FB4FF4F8
:1052B0000060149002208DF8540000208DF85500F5
:1052C00001208DF8570014A93848FDF748FB3848ED
:1052D00000F06EFA10A800F0A2FB10940020ADF8C8
:1052E0004400ADF84600ADF848000420ADF84A008F
:1052F0000020ADF84C0010A92D4800F021FB012240
:1053000040212B4800F04AFA2A48FCF73BFE684649
:10531000FCF7B4FF4FF0006000902548001D01909D
:105320002548029000200390322004900020059030
:105330004FF4806006900020079008904FF4807032
:10534000099000020A9000200B900C900D900E9096
:1053500069461848FCF764FF0022174932311548A6
:10536000FCF7C7FE01211348FCF7B8FE01211148E4
:10537000FCF7FCFD34208DF83C0002208DF83D0048
:1053800000208DF83E0001208DF83F000FA8FEF7A9
:10539000CBF9012240F22441054800F0ABFA01218B
:1053A000034800F0EFF916B010BD000000080240FD
:1053B000004C004040600240340E002010B596B012
:1053C000044601210420FEF781FD01210820FEF79B
:1053D0007DFD01214805FEF779FD01210805FEF755
:1053E00085FD08220C214F48FDF701FB0822022110
:1053F0004D48FDF7FCFA14A8FDF729FB4FF4805047
:10540000149002208DF854008DF8550001208DF87D
:10541000570014A94348FDF7A2FA04201490022073
:105420008DF854008DF8550001208DF8570014A90F
:105430003D48FDF794FA3D4800F0BAF910A800F095
:10544000EEFA10940020ADF84400ADF84600ADF837
:1054500048000C20ADF84A000020ADF84C0010A91F
:10546000324800F06DFA01224021304800F096F9F0
:105470002F48FCF787FD6846FCF700FF4FF00060FF
:1054800000902A48001D01902A48029000200390B5
:1054900080200490002005904FF48060069000204A
:1054A000079008904FF48070099000020A90002045
:1054B0000B900C900D900E9069461D48FCF7B0FEC5
:1054C00000221C4980311A48FCF713FE01211848BC
:1054D000FCF704FE01211648FCF748FD01221021CB
:1054E0001348FCF77FFE14491148FCF725FD3520D1
:1054F0008DF83C0002208DF83D0000208DF83E0024
:1055000001208DF83F000FA8FEF70EF9012240F2AE
:105510002441064800F0EEF90121044800F032F978
:1055200016B010BD00080240000C024000500040C0
:1055300010600240C80E00202000001010B54FF48B
:10554000806208490848FAF7FAFE074807490860E8
:1055500001F10A0048600020A1F8D400088181F818
:10556000D20010BDBC020020BC060020E4010020D7
:1055700010B596B0044601210420FEF7A7FC0121D6
:105580000820FEF7A3FC01218805FEF79FFC0121FE
:105590002020FEF7CBFC082207214A48FDF727FA16
:1055A000082206214748FDF722FA14A8FDF74FFA12
:1055B0008020149002208DF854008DF855000120B1
:1055C0008DF8570014A93F48FDF7C9F94020149001
:1055D00002208DF854008DF8550001208DF85700F9
:1055E00014A93848FDF7BBF9374800F0E1F810A8D6
:1055F00000F015FA10940020ADF84400ADF8460014
:10560000ADF848000C20ADF84A000020ADF84C0081
:1056100010A92D4800F094F9012240212A4800F0F9
:10562000BDF82A48FCF7AEFC6846FCF727FE4FF0B1
:10563000206000902448001D019025480290002021
:10564000039080200490002005904FF48060069025
:105650000020079008904FF48070099000020A9093
:1056600000200B900C900D900E9069461748FCF7A7
:10567000D7FD0022164980311448FCF73AFD01217C
:105680001248FCF72BFD01211048FCF76FFC472066
:105690008DF83C0002208DF83D0000208DF83E0082
:1056A00001208DF83F000FA8FEF73EF8012240F2DE
:1056B0002441054800F01EF90121034800F062F87A
:1056C00016B010BD000802400014014028640240DA
:1056D000C80F002010B5274800F09CF9C4B240F272
:1056E0002441244800F0DCF8002842D021480088FA
:1056F0002048001D00882048FCF715FDE0B9002176
:105700001D48FCF733FC1C48FCF709FDC0F1800084
:105710001A49087080201849091D0860081F006890
:1057200040F40020091F086001211348FCF71EFC0B
:105730001348FDF79FFF1CE000210F48FCF716FC03
:105740000D48FCF7ECFCC0F180000C49087080208B
:105750000949091D0860081F006820F40020091F7E
:10576000086001210448FCF701FC05488030FDF782
:1057700081FF10BD00140140286402408600002013
:10578000C80F002021B1828942F40052828104E0D6
:1057900082894DF6FF731A40828170471AB1838A5D
:1057A0000B43838202E0838A8B438382704700002D
:1057B00010B504463248844208D101211020FEF77A
:1057C000C5FB00211020FEF7C1FB57E02D488442A5
:1057D00009D101214804FEF799FB00214FF4003064
:1057E000FEF794FB4AE02848844209D1012188044D
:1057F000FEF78CFB00214FF48020FEF787FB3DE095
:105800002248844209D10121C804FEF77FFB002110
:105810004FF40020FEF77AFB30E01D48844209D1A6
:1058200001210805FEF772FB00214FF48010FEF7FE
:105830006DFB23E01748844208D101212020FEF7A8
:1058400085FB00212020FEF781FB17E012488442EF
:1058500009D101218807FEF759FB00214FF0804054
:10586000FEF754FB0AE00D48844207D101214005B0
:10587000FEF74CFB00216005FEF748FB10BD000061
:10588000001001400044004000480040004C00402F
:10589000005000400014014000780040007C0040AF
:1058A00070B50246002400230025002040F66A1649
:1058B000B14200D100BFC1F3421501F01F03012620
:1058C00006FA03F3012D02D19689334006E0022D3A
:1058D00002D1168A334001E0968A33400C12012629
:1058E00006FA04F41688344013B10CB1012000E02C
:1058F000002070BDF0B503460024002600250020DE
:1059000040F66A17B94200D100BF1846C1F34214ED
:1059100001F01F06012707FA06F5012C01D10C3012
:1059200004E0022C01D1103000E014301AB10768F5
:105930002F43076002E00768AF430760F0BD000037
:105940002DE9FF4705460E460024A14600BFA046AC
:10595000B08900B100BF2C8A24F44054F08804437D
:105960002C82AC8941F20C608443B08831890843B1
:10597000718908430443AC81AC8A24F44074B08933
:105980000443AC826846FEF7F1FA2048854202D013
:105990001F48854202D1DDF80C9001E0DDF8089047
:1059A000A88900F4004040B109EBC90000EB0910E0
:1059B00031684900B0FBF1F707E009EBC90000EBE3
:1059C000091031688900B0FBF1F76420B7FBF0F0F3
:1059D00004012009642101FB1078A88900F400402B
:1059E00040B1322000EBC800B0FBF1F000F007003E
:1059F000044308E0322000EB08106421B0FBF1F012
:105A000000F00F0004432C81BDE8FF870010014027
:105A10000014014001468888C0F3080070474FF425
:105A20001651016000218180C18001810C214181DA
:105A3000002181817047000008B5FDF711F8009042
:105A40006EE31421684603F08BF9FE48D0F8170086
:105A5000FD490860FD48006A4860FA48D0F81B001C
:105A60008860FB480068C8609FEDFA0A10EE100AD3
:105A70000861F948C0684861F848D0F817008861A3
:105A8000F648B0F9080000EE100AB8EEC00A10EEB1
:105A9000100AC861F148B0F90C0000EE100AB8EE27
:105AA000C00A10EE100A08629FEDEA0A10EE100A12
:105AB000486200240BE000EE104AB8EEC00A10EE77
:105AC000100AE149283101EB84010860641C1E2C96
:105AD000F1DBDC48007A000900EE100AB8EE400A5B
